:02000004A0005A
:200000004258323400E012009C0600000DE012000000100000E00F0000000400F8B500F0AD
:20002000A1F80121022000F0E5F93C4D2F4680372E46603601242403384A6021204600F0B1
:200040006BF93748806932460019602100F064F9286DC10703D1800701D5304C07E0386BE1
:20006000C10703D1800701D5344600E00024002CE0D0AC4201D1002501E029488569A16DFA
:20008000E06D401A21212818C9014718206DC006400F022818D0042816D0032000F0D2FA69
:2000A000206D204EC006410F18D0430F32463846A16D00F0D5F81C48006BC006C00E142895
:2000C00012D3FF218E3111E00F2000F0BBFA00F019F90028E4D100F00FF9E1E73246384602
:2000E000A16D00F019F9E6E7FF21B231204600F07DFA002803D10C49022040390860306867
:2001000080F308880748216D001DC9064A0F044949690468054B2846A047F8BD8CE6120071
:20012000F0DF120000001000801020209933000010B50B4A58246143084B8918CA699842F7
:2001400004D91A43CA615942401810BD0005000D120B12031043C861002010BDFF0F0000BF
:20016000000012200349012088610249FF2080398863704780031220F8B504460F46806849
:20018000FFF7D6FF0246E0684104490F08D0012903D0022906D1022603E00026022501E057
:2001A000002600258104C305890F5B0F09059B03194303055B0FDB021943B3075B0D194374
:2001C000AB07DB0D194343075B0E80061943400F4000014358200F4B7843C0188161002159
:2001E0000164E1684B0249031B0F090FDB02C9010B439B1C4364216801606168816001206E
:20020000B8408106890E8006800C0143024801621046F8BD0000122080031220F3B581B0FA
:2002200002990E4E01248C4031682142FCD00B4F4037BC63A506AD0EA106890C0D4309E043
:200240000299FFF775FF0549C0310D6231682142FCD0BC630028F3D1FEBD0000C002122069
:200260007FB5214C0002A568E4680191E9B2014300920C220291F02091010394012B06D083
:20028000022B0AD0032B16D0042B0ED11EE03B236C46A381E389934313E06B236C46A3816A
:2002A000E3899343834319E0E381684600F0AEF8002004B070BDBB236C46A381E38993439E
:2002C0001B1D83438B43FF330133EDE7EB236C46A381E38993431B1D834340338B43FF3381
:2002E000FF330233E0E700004CE6120010B500F04BF8C107FBD110BD10B50221002000F03B
:2003000067F810BD10B500F04CF8800701D5012010BD002010BD0000FEB50446080C0290DD
:2003200088B20025012716463F04019012E015A000680090200C69464870200A8870CC7076
:200340003B4632460421684600F00AF9E419F6196D1CADB202988542E9D3019800280ED02E
:2003600008A000680090200C69464870200A8870CC70324604216846019B00F0F1F800200C
:20038000FEBD0000030000001CB505206946087101236A46194601A800F0E2F869460878AC
:2003A0001CBD1CB535206946087101236A46194601A800F0D5F8694608781CBD08B5062092
:2003C000694608700121684600F0FEF808BD000008B507A2126800926A4650709170FFF7A2
:2003E000EDFF0321684600F0EFF8FFF77FFF08BD01000000044A0023936050610248C030DF
:20040000016313617047000000003020F0B50446406885B085088607A07BB60F01068207A7
:20042000090FC902920D00071143800F01432020014331484163304FC03F002D29D0E0895E
:200440002E498005800F400540183860681E786029480721803841610021C1600121C16006
:20046000B960A1890162A168016225480FC8009001A80EC020680190002102956846FFF7AA
:200480007BFE012139610021FFF7C8FE0020B8603861002E2DD0E0891A498005800F400529
:2004A00040183860701E7860134800218038C1600121B960A1890162A168AB000A0AD21817
:2004C0001202C9B20A43026201213961B96A4907FCD5B96AC907FCD12168CB18002103E0AC
:2004E000026A5A54491CC9B2B142F9D30020B860386105B0F0BD0000C000302000021F00DF
:200500007CE6120000020700054A0260091F01650021C1640221C1640121816070470000D7
:20052000000107007FB504460C480D46C06803902046603001900092002102936846FFF760
:200540001BFE25610021FFF769FEA06A4007FCD5A06AC007FCD1A06020617FBD5CE61200AD
:20056000F0B59446164C85B0144A22605A1E6260134D072640356E610026EE600126EE6091
:20058000A660002703E0C25D2A627F1CFFB28F42F9D30C480169C069039060460091019075
:2005A000002102936846FFF7E7FD26610021FFF735FE0020A060206105B0F0BD000307001F
:2005C000000030205CE6120070B5074C0D46064640212046FFF798FF2B463246012120469B
:2005E000FFF7A0FF70BD000000003020FEB50646806D0F4601010005090C000D01252D0527
:200600000024019100900DE00122120329460020B8476100715A81420FD1012000032D18A9
:20062000641CA4B201988442EED329460020009AB8476100715A814201D00020FEBD0120E0
:20064000FEBD000004490A6A000712091201000F02430A627047000000201320000000001F
:200660000000000000000000000002000000000000000000000000004092000060003020F6
:20068000000000000000000080A40000EC003020000000000000000082A40000F8A8FFFF36
:2006A000FFFFFFFFFFFFFFFFFFFFFFFFFFFFFFFFFFFFFFFFFFFFFFFFFFFFFFFFFFFFFFFF5A
:2006C000FFFFFFFFFFFFFFFFFFFFFFFFFFFFFFFFFFFFFFFFFFFFFFFFFFFFFFFFFFFFFFFF3A
:2006E000FFFFFFFFFFFFFFFFFFFFFFFFFFFFFFFFFFFFFFFFFFFFFFFFFFFFFFFFFFFFFFFF1A
:20070000FFFFFFFFFFFFFFFFFFFFFFFFFFFFFFFFFFFFFFFFFFFFFFFFFFFFFFFFFFFFFFFFF9
:201000001266599108B28EFAC0EE14D38528460621EBA2B52BD17D607DE500000000000000
:201020000000000000000000000000000000000000000000000000000000000000000000B0
:2010400000000000000000000000000000000000EAFFFFFFFFFFFFFF20C6000024C60000DD
:20106000000000000000000000000000000000000000000000000000000000000000000070
:2010800070470000506E11008D011000450610002507100000000000000000000000000095
:2010A000000000000000000000000000000000004506100000000000000000004B01100079
:2010C000450610004506100031091000390910001D211000B10E1000A10E1000910E100033
:2010E00045061000C9231000D9231000E9231000FD2410000D2510001D2010002D20100054
:20110000E51F1000C1241000A1231000450610004600000041711000096710008D6510000D
:201120006D651000916810006D721000ED711000F9711000E9711000057210003972100041
:201140003D511000895010007150100071921000A19210004D90100031901000699010001A
:20116000D89D1200D4B91000E2B91000E5601000B9081000000000003557100000000000DE
:20118000000000000348854600F01AFA004800475D621000506E1100084B19680868203074
:2011A00080F30988022080F31488BFF36F8F3FBCAE4608BC04BC62B618470000F4C210009A
:2011C000EFF3108072B6704780F310887047EFF309800E4B1A6820381060F0C044464D4621
:2011E00056465F46F0C008B572B60AF02BFC62B60CBC116808681030F0C8A046A946B2466A
:20120000BB4680F309882038F0C81847F4C21000014CA047014C204759241000010110000D
:201220000321001D401E037812021A43491EF9D510467047F0B507460846584087B0C00F03
:20124000049048000E46590040084908BC1A884105D2384631461E4617460B46024658004F
:20126000400810434CD0300D039040055900400D490D0590401A0290402872DA1803012134
:20128000000B09050843019004980092002805D001995242002088410092019002984021F9
:2012A0000A1A0199009801F793FC05460C466B4607CB00F097F9C0197141039A0E0D00234B
:2012C000D71756401A467A40164344D0049A002A2DD0029A012A039A15DC1205C01A914126
:2012E00001263605001C7141D20F059ED2070093019202962A46234600F094F907B0F0BDE9
:2013000038463146FAE71605224A0F46B218C01AB74101210905001C4F4100187F41114674
:2013200018187941E20F10436D19644113E0E2076D0815436408C2071443039A0126120544
:20134000C01A91413605001C7141CE07400830434908C01851412A46234600F056F9CDE7C1
:20136000FFE7049801224000C117121A00238B4104983146C417381AA141EEE730B4012495
:20138000E407634030BC55E730B40124E407614030BC4FE70000E0FFF0B51FB488B00B99AD
:2013A0000998002448400999C00F490049080991C0070B990090490049080B9109990898C8
:2013C000A64608431CD00B990A98084318D0099801244000420D4800410D099824050003B9
:2013E000000B204309900B980003000B20430B9050181C494018002201901446104605E0CA
:20140000002001460DB0F0BD032801DA034600E003239C46C11A0AAE0AE05F0008ADED5BEB
:201420004F00F75B7D430027AA187C41491C5B1E6145F2DD410004AB5A522104120C0A4326
:20144000240C401C0828DFDB019802900099704601910090059B049A0799069800F0E2F834
:20146000D0E700000DFCFFFFF0B50C465C4085B0E40FE40703944C00002664085900944660
:20148000490802460296224321D062460A431ED06200570D4A000E032303550D01240246CC
:2014A0002C492405781B1B0B360B401823432643614600901C46501AB44103D30098401CAB
:2014C000009002E0921800985B41002803DA0020014605B0F0BD0020012109050746864685
:2014E00011E064461D46141BB54106D36546521BB341744607430C43A646CD074008490838
:20150000284392185B4105460D43EAD11046184313D06046194650407140084306D0604623
:20152000101AB34106D20122002306E000220123DB0702E00122D24353100098744601058C
:20154000381C6141029C039D0019694100F05DF8BFE70000FD0300004A0009030123090B1B
:201560001B0519430A4B10B5520D9A4202DA0020014610BD064B34339A4203DC9A1A01F76B
:2015800037FB10BD034BD21801F722FB10BD0000FF030000CDFBFFFF10B5002904DB012478
:2015A000E40740428C412146002B04DB1C460123DB075242A341994200D1904210BD000055
:2015C000064C0125064E05E0E36807CC2B430C3C98471034B442F7D3FFF7D8FD9CC210006A
:2015E000BCC2100010B5202A06DBCB170846203A1041C1170B4306E00B461341D04020248D
:20160000A21A91400843194610BD10B5002B08DA0024401C614192185B411A4301D1400815
:20162000400010BDF0B51FB482B005460C0003D0084602F04DFA02E002F04AFA2030024692
:2016400000902146284601F7C3FA049B059A04460F4618431143084314D0184610431BD019
:20166000009840210A1A1846059901F7C1FA05460E46009A0599049801F7AAFA084305D06F
:20168000012004E02046394607B0F0BD0020C11705430E432C43374300990E986305401A81
:2016A0007905E40A00220C43FD0A0A3002D500200146E9E70105101969410C9C0D9D0019BA
:2016C0006941FFF7A2FFDFE7FEE70000401E0028FCD17047FEB53C48066845688468C168AD
:2016E00002910169019141690091876937A1012008F050FC43A1012008F04CFC44A10120A8
:20170000029A08F047FC46A10120019A08F042FC47A10120009A08F03DFC3A4648A10120BB
:2017200008F038FC22464AA1012008F033FC32464BA1012008F02EFC2A464DA1012008F0C4
:2017400029FCE41C2DD034464DA1012008F022FC50A10120226808F01DFC52A1012062683D
:2017600008F018FC53A10120A26808F013FC55A10120E26808F00EFC56A10120226908F039
:2017800009FC58A10120626908F004FC59A10120A26908F0FFFB5BA10120E26908F0FAFBFA
:2017A000FEBD2C465BA1D0E710B5EFF308814A680548083100F0B8F8FFF78CFF00204178E7
:2017C0000029FCD110BD00008015110021212121212121212121486172644661756C7420BB
:2017E00048616E646C657220697320747269676765726564212121212121212121210D0AF1
:201800000000000050726F6C6F673A0D0A00000052342020203D203078253038780D0A00FD
:2018200052352020203D203078253038780D0A0052362020203D203078253038780D0A0097
:2018400052372020203D203078253038780D0A006C722020203D203078253038780D0A001F
:201860006D737020203D203078253038780D0A0070737020203D203078253038780D0A0003
:201880004D535020537461636B20496E666F3A0D0A00000052302020203D203078253038D1
:2018A000780D0A0052312020203D203078253038780D0A0052322020203D2030782530381F
:2018C000780D0A0052332020203D203078253038780D0A0052313220203D203078253038EC
:2018E000780D0A004C522020203D203078253038780D0A0050432020203D203078253038B5
:20190000780D0A0078505352203D203078253038780D0A0050535020537461636B20496EAA
:20192000666F3A0D0A0000000160EFF3098343608260C460056146618761704700B57346EF
:2019400008F040FB00BD00001FB50F4C6069FF2804D90E4804F05BFC00206061207C6946CE
:201960000873002804D0206800906068019002E007A004F0B9F9206A02906069411C61614C
:20198000694600F01FFB1FBDA413110000308600200D0A206164642061646D696E20766590
:2019A00072696679206D6F6465206572726F7220200D0A0010B503F00FFE10BD10B51AF79F
:2019C0006FFB03490420086005F0B4FD10BD000080E200E010B50E4C206AC1B2002013E0E1
:2019E000082805D2A2688300DA4013071B0F05E0E3688200203AD3401B071B0F0A1A12193B
:201A00002032D370401CC0B28842E9D310BD0000A413110070B500230D4DFF2219462C7B7F
:201A200003E00C2909D00D2907D0C60705D05B1C6A5CDBB20E2900D12246491C4008C9B2A4
:201A40000F29EED3012B00D9FF22104670BD0000F8C51000FFB51E46002781B0B14202D2E0
:201A6000002005B0F0BD881BC5B2002409E0019832460019039901F795F8002805D0641CF5
:201A8000E4B2AC42F3D93846EBE70127FBE7F8B50746002425460B2005F0D8FA0A2005F002
:201AA0004FFA3020FFF712FE0B2005F0E5FA1820FFF70CFE6806060E0A2005F0D1FA304371
:201AC00005460B2005F0C2FA641C082CE9DB0A2005F046FA002F03D00A2005F0B7FA02E054
:201AE0000A2005F0C9FA3020FFF7F0FD0B2005F0C3FA1820FFF7EAFD0B2005F0A7FAFF20FF
:201B0000E130FFF7E3FD2846F8BD10B50A2005F0B3FA1820FFF7DAFD0B2005F0ADFA30200E
:201B2000FFF7D4FD0A2005F091FA3020FFF7CEFD0B2005F08BFA10BD10B50B2005F09CFA36
:201B40000A2005F099FA7820FFF7C0FD0A2005F07DFA7820FFF7BAFD10BD10B50B2005F0FB
:201B600075FA0A2005F072FA4820FFF7AFFD0B2005F082FA4820FFF7A9FD0A2005F07CFA2C
:201B80004820FFF7A3FD10BD10B50A2005F05EFA7820FFF79BFD0B2005F06EFA7820FFF702
:201BA00095FD0A2005F068FA7820FFF78FFD10BDF8B5054600240B2005F048FA0727012658
:201BC0000B2005F043FA3020FFF780FD391B30468840284203D00A2005F04EFA02E00A20A3
:201BE00005F034FA3020FFF771FD0B2005F044FA6020FFF76BFD641C082CE1DB0B2005F042
:201C000025FA0A2005F09CF97820FFF75FFD0B2005F032FA7820FFF759FD0B2005F016FAA7
:201C20000A2005F09DF97820FFF750FDF8BDF8B5054600240B2005F009FA0727012630207B
:201C4000FFF744FD391B30468840284203D00A2005F012FA02E00A2005F0F8F93020FFF71B
:201C600035FD0B2005F008FA3020FFF72FFD0B2005F0ECF9641C082CE1DB0A2005F060F9B1
:201C80003020FFF723FD0B2005F0F6F93020FFF71DFD0A2005F0E4F904460B2005F0D6F93A
:201CA0000A2005F05DF9FF20E130FFF70FFD2046F8BDF8B5054600240B2005F0C7F9072738
:201CC00001260B2005F0C2F93020FFF7FFFC391B30468840284203D00A2005F0CDF902E02B
:201CE0000A2005F0B3F93020FFF7F0FC0B2005F0C3F93020FFF7EAFC641C082CE1DB0A2045
:201D000005F01EF90B2005F0A1F93020FFF7DEFC0B2005F0B1F93020FFF7D8FC0A2005F0DA
:201D20009FF904460B2005F091F9FF20E130FFF7CDFC2046F8BD000070B50A4C4026267096
:201D4000062060700025A570E57000F0C7F8012009F030F8267002206070A570E57000F02B
:201D6000BDF870BDB8C5100010B50B2005F084F90A2005F081F90B2005F0F2F80A2005F0D0
:201D8000EFF8082005F0ECF8082005F075F910BD10B501F0A7F910BD10B5E82000F06EF8BD
:201DA000FE2000F06BF80B2000F068F810BD000070B5FFF7AAFEA020FFF739FFB020FFF7F3
:201DC00036FFFFF7A2FEA120FFF773FF2A4D00240120FFF75CFE2855641CE4B2152CF7D365
:201DE0000020FFF754FE2855FFF7B7FE052030212954401CC0B21428FAD3002068752A5C06
:201E0000697D401C8918C0B269751528F7D3FFF77CFEA020FFF70BFFB020FFF708FF002467
:201E2000285DFFF704FF641CE4B2162CF8D3FFF794FE1621104800F7AAFEFFF766FEA02031
:201E4000FFF7F5FEB020FFF7F2FEFFF75EFEA120FFF72FFF00240120FFF719FE2855641C5D
:201E6000E4B2152CF7D30020FFF711FE2855FFF774FE01F025F970BDBC1D1100F8B5054699
:201E80000024032005F06CF8032005F0DFF80126E127BF013046A04028420BD0032005F011
:201EA000EBF83846FFF712FC032005F0CFF84B2080010AE0032005F0DFF84B208001FFF737
:201EC00005FC032005F0C2F83846FFF7FFFB641C082CDFDB032005F0CFF8F8BD10B5782062
:201EE000FFF7F4FBFFF728FE094C2078FFF760FE6078FFF75DFEA078FFF75AFEE078FFF7C3
:201F000057FEFFF741FE7820FFF7E0FB10BD0000B8C5100010B50248006802F029FB10BD1A
:201F200038C4100010B50248006802F017FD10BD68C41000F8B50D4EB06A00248506AD0E83
:201F400001273846A040284204D0F0620848A10040588047641CE4B2052CF2D3A80604D588
:201F60002020F062034800688047F8BD00102020001A110000C41000044B10B500010A46EC
:201F8000C018102104F0A4FB10BD00000030860008B50021C94300910449800040186A46D2
:201FA000042104F095FB009808BD000000108600432310B500015B040A46C018102104F0AD
:201FC00087FB10BD044B10B500010A46C018102104F030F910BD000000308600432310B579
:201FE00000015B040A46C018102104F023F910BDF8B54A4C4A48E61D4068F936002700284D
:2020000076D000F06DFD0546FF2822D02078A84215D008F057FE424988602570012001F0EE
:20202000BFFB0B2D17D0F0680A2D50D0641C0555F0682946401CF0603AA003F055FE384C27
:20204000A06800F051FC3849884201D3374881C4F8BD2070F3E7F0680028F0D00C2801D9EB
:2020600033A028E03AA003F03FFE00213E48C94341600160002513E03B484168026809010E
:20208000120F1143416001680A0161194B781B071B0F1A430260497822A003F025FE6D1C4C
:2020A000F068A842E8D8304801210174F1680162FFF74AFC2DA003F017FE3349184882C024
:2020C000FF210131601C00F762FDF760B7E700280AD0FF210131601C00F759FD2BA0F760A8
:2020E00003F002FEABE703E027490D4882C0A6E7FF210131601C00F74AFD094C0120F7600B
:20210000606008F0DFFDA06028A003F0EDFD31A003F0EAFD25A003F0E7FDF8BDD81311008E
:2021200078C310002025640010270000951D10002070617373776F7264206D6F72652074B8
:2021400068616E203132202C6661696C0D0A0000200D0A20696E7075742070617373776F82
:202160007264203A20000000A4131100200D0A206164642061646D696E65722073756363F9
:2021800065737320200D0A009D1A10000D0A20636C65617220696E707574207061737377FA
:2021A0006F72642020200D0A20000000202A2A2A2A2A2A2A2A2A2A2A2A2A2A2A2A2A2A2A05
:2021C0002A2A2A2A2A2A2A2A2A2A2A2A2A2A0D0A0000000020506C656173652061646420B9
:2021E00070617373726F726420666F722061646D696E20200D0A000070B5144D124C6868D6
:202200000026002808D0A86800F06EFB1049884201D3104841C570BDFF210131601C00F7E8
:20222000B6FCFF3401340120E660686008F04AFDA86009A003F058FD11A003F055FD06A081
:2022400003F052FD70BD0000D813110078C3100010270000C9141000202A2A2A2A2A2A2A5E
:202260002A2A2A2A2A2A2A2A2A2A2A2A2A2A2A2A2A2A2A2A2A2A2A2A2A2A0D0A0000000003
:2022800020506C656173652070726573732066696E67657220200D0A00000000F8B5494C43
:2022A0004948E61D4068F9360027002874D000F017FC0546FF2822D02078A84215D008F05A
:2022C00001FD414988602570012001F069FA0B2D17D0F0680A2D4ED0641C0555F068294617
:2022E000401CF06039A003F0FFFC374CA06800F0FBFA3749884201D3364881C4F8BD2070D5
:20230000F3E7F0680028F0D00C2801D932A026E039A003F0E9FC00213D48C943C160816058
:20232000002512E0C16882680901120F1143C16081680A0161194B781B071B0F1A43826017
:20234000497822A003F0D0FC6D1CF068A8423048E8D80774F168016201F0ECF92DA003F06B
:20236000C3FC3449184882C0FF210131601C00F70EFCF760B9E700280AD0FF210131601CE9
:2023800000F705FC2CA0F76003F0AEFCADE703E028490D4882C0A8E7FF210131601C00F7B2
:2023A000F6FB094C0120F760606008F08BFCA06029A003F099FC32A003F096FC26A003F0BF
:2023C00093FCF8BDD813110078C310002025640010270000951D10002070617373776F72A1
:2023E00064206D6F7265207468616E203132202C6661696C0D0A0000200D0A20696E707546
:20240000742070617373776F7264203A20000000A4131100200D0A20616464206E6F726D17
:20242000616C2075736572207375636365737320200D0A00C91410000D0A20636C65617255
:2024400020696E7075742070617373776F72642020200D0A20000000202A2A2A2A2A2A2ABC
:202460002A2A2A2A2A2A2A2A2A2A2A2A2A2A2A2A2A2A2A2A2A2A2A2A2A2A0D0A0000000001
:2024800020506C65617365206164642070617373726F726420666F72206E6F726D616C20BB
:2024A0007573657220200D0A0000000070B5144D124C68680026002808D0A86800F014FA1E
:2024C0001049884201D3104841C570BDFF210131601C00F75CFBFF3401340120E6606860C7
:2024E00008F0F0FBA86009A003F0FEFB11A003F0FBFB06A003F0F8FB70BD0000D81311000D
:2025000078C3100010270000C9141000202A2A2A2A2A2A2A2A2A2A2A2A2A2A2A2A2A2A2A0E
:202520002A2A2A2A2A2A2A2A2A2A2A2A2A2A0D0A0000000020506C65617365206164642055
:202540007266696420200D0A00000000F8B52F4F2D4D7868002600282AD000F0C1FA0446BD
:20256000FF2812D02878A0421AD008F0ABFBB8602C70012001F014F9012C08D0022C08D06A
:20258000032C08D00A2C08D00AE0287008E0204804E0204802E0204800E0204841C7083F27
:2025A000B86800F0A1F91E49884221D31D4829E0FF210131681C00F7EAFAFF3501350120A2
:2025C000EE60786008F07EFBB86017484069002816A00ED003F088FB1EA003F085FB24A01D
:2025E00003F082FB29A003F07FFB10A003F07CFBF8BD03F079FB2CA003F076FB0BA003F031
:2026000073FB064841C7F8BDD813110078C310001912100075111000291410009D1A100015
:2026200010270000951D1000A4131100202A2A2A2A2A2A2A2A2A2A2A2A2A2A2A2A2A2A2A9B
:202640002A2A2A2A2A2A2A2A2A2A2A2A2A2A0D0A000000002050726573732031203A61647A
:2026600064206B6579207573657220200D0A00002050726573732032203A61646420666966
:2026800067207573657220200D0A00002050726573732033203A6164642072666964207540
:2026A000736572200D0A000020506C65617365206164642061646D696E6572206669727302
:2026C0007420200D0A00000070B5124C6068002813D000F005FA0025FF2802D10E4821C490
:2026E000083CA06800F000F90C49884204D3E068052801D20A4821C470BDE068401CE0601F
:202700000120606008F0DEFAA06006A003F0ECFA70BD000078C31000B516100010270000FF
:20272000951D10002050617373776F7264204572726F720A00000000F8B54E4C4E48E71D4F
:202740004068F9370026002878D000F0C9F90546FF282FD02078A84219D008F0B3FA464949
:2027600088602570012001F01BF80B2D24D00A2D41D042484069002847D0F868641C055597
:20278000F8682946401CF8603DA003F0ADFA00F0A1F901283DD000F0AFF9040043D408F0D4
:2027A00091FA354DA860204600F06EFF002838DB344837E02070EAE7F868002813D000F0B7
:2027C00007FF002803D100F031FF002801D02D4900E02D49284842C0FF210131601C00F7DB
:2027E000D6F9FE60D3E725484069002801D027490CE027490AE0FF210131601C00F7C7F9A8
:2028000024A0FE6003F070FAC1E71E491A4842C0BDE71A484069002805D11A49164842C056
:2028200001E0194841C5144CA06800F05DF81E49884201D31D4841C4F8BDFFE700F01FFE8C
:20284000022000F0ADFFFF202070411C601C00F79EF9094C0120FE60606008F033FAA060EB
:2028600013A003F041FA1CA003F03EFA10A003F03BFAE1E7D813110078C31000A4131100E1
:2028800020256400711E100045161000C11E10009D1C1000200D0A20636C65617220696E78
:2028A000707574200D0A000010270000951D1000202A2A2A2A2A2A2A2A2A2A2A2A2A2A2AF9
:2028C0002A2A2A2A2A2A2A2A2A2A2A2A2A2A2A2A2A2A0D0A000000002057656C636F6D6501
:2028E0002020200D0A00000010B508F0EBF904498968884201D3401A10BD401A401E10BD38
:2029000078C31000F8B5354F334D786800285AD000F0E6F800260446FF2822D02878A042B0
:2029200016D008F0CFF9B8602C70012000F038FFE81DF9300B2C16D00A2C32D0C1686D1CC0
:202940004C55C168491CC160214625A003F0CCF9B868FFF7C9FF2349884201D3224841C7E9
:20296000F8BD2870F4E70446C068002812D000F02FFE00281C4841C708D01CA0083F03F034
:20298000B3F900F019FE00F00BFE03E01FA0083F03F0AAF9FF210131681C00F7F8F8E66009
:2029A000D6E70446C068002809D0FF210131681C00F7EDF81EA0E66003F096F9C8E70A48AE
:2029C00041C7083FC4E70120786008F07BF9B8601CA003F089F9F8BDD813110078C3100053
:2029E0002025640010270000991B10002064656C65746520616C6C207573657220737563FD
:202A00006365737320200D0A000000002070617373776F7264206572726F72202C64656C53
:202A2000657465206661696C20200D0A00000000200D0A20636C65617220696E7075742077
:202A40000D0A000020706C6561736520696E7075742061646D696E2070617373776F7264B9
:202A6000200A000070B50D4C606800280BD00C4D002660C42068083CFFF736FF094988422D
:202A800000D360C470BD0120606008F01BF9A06005A003F029F900F08FFD70BD78C3100077
:202AA000991B1000102700002064656C657465206E6F726D616C2075736572207375636332
:202AC0006573730A000000000148406870470000700F11000148806870470000700F1100F1
:202AE0000148007870470000700F11000148C06870470000700F110001484069704700006D
:202B0000700F110010B505480349016000214160416100F0CBFD10BD951D100078C3100070
:202B2000F8B5214E1F4D7068002828D0FFF7D8FF00270446FF2810D02878A04216D008F070
:202B4000C1F8B0602C70012000F02AFE012C06D0022C06D00A2C06D008E0287006E0134803
:202B600002E0134800E0134881C6083EB068FFF7BBFE1149884201D3104881C6F8BD01201C
:202B8000706008F09FF8B0600DA003F0ADF816A003F0AAF81AA003F0A7F809A003F0A4F8B2
:202BA000F8BD0000D813110078C310006D0F1000C91410009D1C100010270000951D1000DE
:202BC000202A2A2A2A2A2A2A2A2A2A2A2A2A2A2A2A2A2A2A2A2A2A2A2A2A2A2A2A2A2A2ABF
:202BE0002A2A0D0A000000002050726573732031203A6164642061646D696E0D0A00000029
:202C00002050726573732032203A616464206E6F726D616C20757365720D0A00F8B5214EF7
:202C20001F4D7068002828D0FFF75AFF00270446FF2810D02878A04216D008F043F8B060BE
:202C40002C70012000F0ACFD012C06D0022C06D00A2C06D008E0287006E0134802E013480D
:202C600000E0134881C6083EB068FFF73DFE1149884201D3104881C6F8BD0120706008F00E
:202C800021F8B0600DA003F02FF816A003F02CF81BA003F029F809A003F026F8F8BD000039
:202CA000D813110078C3100081181000E11910009D1C100010270000951D1000202A2A2ABA
:202CC0002A2A2A2A2A2A2A2A2A2A2A2A2A2A2A2A2A2A2A2A2A2A2A2A2A2A2A2A2A2A0D0AF1
:202CE000000000002050726573732031203A64656C65746520616C6C20757365720D0A003A
:202D00002050726573732032203A64656C657465206E6F726D616C20757365720D0A0000C8
:202D2000F8B5214E1F4D7068002828D0FFF7D8FE00270446FF2810D02878A04216D007F070
:202D4000C1FFB0602C70012000F02AFD012C06D0022C06D00A2C06D008E0287006E01348FB
:202D600002E0134800E0134881C6083EB068FFF7BBFD1149884201D3104881C6F8BD01201B
:202D8000706007F09FFFB0600DA002F0ADFF16A002F0AAFF1AA002F0A7FF09A002F0A4FF92
:202DA000F8BD0000D813110078C310009D1A1000991B1000B516100010270000951D1000B8
:202DC000202A2A2A2A2A2A2A2A2A2A2A2A2A2A2A2A2A2A2A2A2A2A2A2A2A2A2A2A2A2A2ABD
:202DE0002A2A0D0A000000002050726573732031203A61646420757365720D0A0000000071
:202E00002050726573732032203A64656C65746520757365720D0A0070B50F4C0025606803
:202E20000E4E00280CD0FFF761FE002803D1FFF751FE002803D0FF203070094821C470BD7F
:202E400000F01CFB0120E560606006A002F04CFFF560B56070BD000078C31000700F1100F0
:202E6000B51610002046726F6E7420536C6565700A00000070B51A4D28688047FFF724FE30
:202E8000044668690026002802D0012806D024E0012C22D107F016FF28611DE0012C02D043
:202EA000002C0CD019E0A869002816D12869FFF71BFD0C49884210D30120A8610DE0A86928
:202EC000002809D108492868884202D00749884202D1074841C5083DAE616C6170BD0000E3
:202EE00078C31000B80B0000951D1000B5161000C11E100070B50C4C00256068002808D0CE
:202F0000A068FFF7F1FC0949884201D3084821C470BD0120E560606007F0D4FEA06005A0E0
:202F200002F0E2FE70BD000078C3100010270000951D10002046726F6E7420556C6F636B07
:202F40000A000000F8B5334C3348E61D4068F936002700284CD0FFF7C3FD0546FF2822D061
:202F60002078A84215D007F0ADFE2B4988602570012000F015FC0B2D17D0F0680A2D27D090
:202F8000641C0555F0682946401CF06023A002F0ABFE214CA068FFF7A7FC2149884201D370
:202FA000204881C4F8BD2070F3E7F068002808D000F00EFB002801D01B4900E01B491648F5
:202FC00082C0FF210131601CFFF6E1FDF760E0E7002809D0FF210131601CFFF6D8FD14A0A3
:202FE000F76002F081FED4E716490B4882C0D0E7FF202070411C601CFFF6C9FD064C0120ED
:20300000F760606007F05EFEA0600FA002F06CFEF8BD0000D813110078C310002025640096
:2030200010270000951D10009D1C100045161000200D0A20636C65617220696E7075742095
:203040000D0A0000B516100020706C6561736520696E7075742061646D696E207061737394
:20306000776F7264200A000010B50248006801F0C7FB10BD3CC4100010B50748FF210170BE
:2030800000218160C1604A1E02614261034841608160FFF737FD10BD700F1100881311009F
:2030A00010B50248006801F097FC10BD6CC4100010B50248406801F08FFC10BD6CC41000C8
:2030C00010B5064A0321112003F06AFF0121112003F07EFF02490020C86010BD8520100052
:2030E000700F110010B5064A02210F2003F058FF01210F2003F06CFF02490020886010BDC0
:20310000FD231000700F110070B5224DE868002811D00021112003F05BFF1F4A03211120A5
:2031200003F03EFF0121112003F052FF0020E860FF20287070BDFEF7E8FCA020FEF777FD7A
:203140000820FEF774FDFEF7E0FCA120FEF7B1FD0120FEF79CFC114CE0800020FEF797FC99
:20316000E18800020843A080FEF7F7FCA088FEF751FC28700021112003F02AFF064A0221AE
:20318000112003F00DFF0121112003F021FF0120E86070BD700F110085201000F0C51000F9
:2031A00010B508F0F9FA10BD10B503480078002801D100F0FBFA10BDD85D1100F8B5044621
:2031C00016480078002801D100F0F0FAFF20002569460870102C1DD21148104E005D4870E3
:2031E0001836307D0E4F8007800F7F1E02280BD0304600F011FB02280CD33C7002226946C5
:20320000304600F034FC07E03C700222304600F0FEFB01E00025ED432846F8BDD85D110063
:20322000AEC3100070B5074B0646187814460D46002801D100F0BAFA22462946304600F032
:2032400003F870BDD85D110070B50E4618214843134914464518E86A1835002804D00128EC
:203260000FD0022805D113E0284600F0D5FAA04201D2002411E022463146284600F0F7FB56
:203280000BE0284600F0C8FAA042F4D20446F2E73146284600F0BBFB0446204670BD0000F0
:2032A000D85D1100F7B598B007A802904020039000200C4604901899154608260691059034
:2032C0002178641C002970D0252907D002A800F07FFB05980028F3DA1BB0F0BD01220020E6
:2032E00013460227217823291BD02B2916D02D2902D0302906D101E0184300E03843641CD3
:20330000002AEFD1002122781346303B0A2B0AD20A23594389183039641CF4E70421084395
:20332000EDE73043EBE70023D7B22E2F0AD1641C22781746303F0A2F04D20A277B439B18F9
:20334000303BF4E76C2A0DD0682A0BD0702A48D00BDC252A4FD0582A28D0632A0CD0642ACF
:203360004DD10EE02278641CECE7732A2AD0752A13D0782A43D119E02868011D29600178DC
:203380003AE02A68171D2F601768009101900A22394602A800F04BFA31E02A68171D2F602D
:2033A00017680A220091019007E02AE02A68171D2F601768102200910190394602A800F00E
:2033C0009BFA1CE02868011D2960076839787F1C002914D002A800F0FBFA05980028F5DA3A
:2033E0000DE028680823011D296001680020102200960190E2E7252102A800F0E9FA641C90
:2034000067E7002800DC67E70498002804D0024607A91898FFF706FF0499059840180590AA
:203420005AE7000010B5074900204860064900238A69C8698B61CB611946904704F07AF824
:2034400010BD0000402013209808110010B50248006801F0BDFD10BDB8C4100010B50248D1
:20346000406801F0B5FD10BDB8C4100010B50248006801F0ADFD10BDB4C4100070477047D3
:2034800010B51348134C8178491C8170A06800280ED000210F2003F09BFD0F4A02210F20CA
:2034A00003F07EFD01210F2003F092FD00200DE000210F2003F08CFD074A03210F2003F05B
:2034C0006FFD01210F2003F083FD0120A06010BD08C61000700F1100FD23100070B5134DAB
:2034E000134CAB4205D00020206060600220A06006E007C40121132089030004FFF647FB5C
:20350000202007F0A7F9BFF35F8F0120094900058860BFF34F8F25200749C003FFF637FBC5
:2035200006490748FFF633FB70BD0000993300000CF5120000ED00E0C61D0000340A0000D0
:20354000CCF5120070B50C4842680C490A6082694A600169406AC907C90F084DC407E40F52
:203560000835002902D0286801F03CFE002C02D0686801F037FE70BD00001320C0C4100070
:2035800010B50248006801F0CFFE10BDD0C4100010B50248406801F0C7FE10BDD0C41000A7
:2035A00010B5034802F033FE02490020486110BD00308600A413110010B54320400402F01B
:2035C00026FE02490020886110BD0000A4131100F0B5154F134DFE1D0024F936284685B064
:2035E0002430049069462046FEF7C6FC0298401C11D00198E8600098A86002982862FEF7A6
:20360000E9F9286A317BC3B2781C049AFEF722FA002802D0012005B0F0BD641CFF2CE1D9F0
:203620000020F8E7A4131100D8131100F0B5154F134DFE1D0024F936284685B02430049065
:2036400069462046FEF7B4FC0298401C11D00198E8600098A86002982862FEF7BBF9286AF9
:20366000317BC3B2781C049AFEF7F4F9002802D0012005B0F0BD641CFF2CE1D9F9E7000053
:20368000A4131100D813110070B500240546661E2046FEF77DFC411C06D0A84201D1204625
:2036A00070BD641CC82CF3D3304670BD7FB51F4D00206861044669462046FEF75DFC029830
:2036C000401C02D0641CFF2CF5D96C61002C0DD06946601EFEF750FC00982860019868607E
:2036E0006846007B28740298286207E01048286000166860062028620120287400246946FC
:203700002046FEF755FC0298401C02D0641CFF2CF5D9AC6100242046FEF73AFC401C02D0CC
:20372000641CC82CF7D3EC617FBD0000A4131100563412FF1FB5104CA069FF2805D94320BE
:20374000400402F064FD0020A061207C69460873002803D009A002F0C7FA03E0A068009019
:20376000E0680190206A0290A069411CA1616946FEF734FC1FBD0000A4131100200D0A201D
:20378000616464207573657220766572696679206D6F6465206572726F7220200D0A000006
:2037A00001490870704700008813110010B5114C02202061606110A0A0611248E0610120F1
:2037C00080020021A162206261620BA0E162A0640D48E064A165102061652065E1650BA100
:2037E000E01DFFF6ECF90AA12046FFF6E8F92020A07110BDD85D11005465726D696E616C6B
:20380000000000009C1511009C1911005254540053454747455200000269C1688A4203D82E
:203820008068401A801800E0501A401E7047FFB583B00E4670420D9F0C9C0090002900DB7A
:203840000846012502E0FFF633F96D1C05998842F9DA0698A84200D90546002C04D0002E53
:2038600001DB780700D5641EB80702D50698002810D0F8070ED1002C0CD0A5420AD2202170
:20388000641E039800F0A4F80398C0680028F2DA07B0F0BD0398C0680028F9DB002E02DA9B
:2038A0002D21009E02E0780707D52B21039800F08FF80398C0680028EADBB807800F022859
:2038C00010D1069800280DD1002C0BD0A54209D23021641E039800F07BF80398C0680028DE
:2038E000F2DAD5E7019700943146069B059A039800F002F8CCE70000FFB581B001261F46B4
:2039000035460A9C029802E0FFF6BCF86D1C03998842F9D2AF4200D93D460B98C00718D107
:20392000002C16D00B98800701D5002F02D0202000900CE03020FBE7641E0099019800F0E2
:2039400047F80198C06800283DDB002C01D0A542F2D30198C068002835DB012F01D97F1EDE
:2039600006E031460298FFF68DF80399884202D303984643F1E7154F31460298FFF682F8BB
:203980000146029A7143511A0291395C019800F01FF80198C068002805DB30460399FFF68D
:2039A00071F80600E8D10B98C0070CD0002C0AD0A54208D22021641E019800F009F80198EC
:2039C000C0680028F2DA05B0F0BD000067BA100010B5044680686368421C934205D32368E0
:2039E0001954A260E068401CE060A2686068824209D121682069FFF715FCA168884203D045
:203A00000020C043E06010BD0020A06010BDF7B5054682B000200090EC6817462869A0428C
:203A200001D9061B02E0A968201A0E1AA868761E001BB04200D80646BE4200D33E4668683A
:203A4000324600190399FFF689F80098BF1B801900900398A41980190390A868A04200D1E1
:203A60000024EC60002FD9D1009805B0F0BDF7B50446C7688068E168C51B60681646401851
:203A8000B54205D90199FFF669F8B819E060FEBD2A460199FFF662F80198761B4119324640
:203AA0006068FFF65BF8E660FEBD000037B514460846064B6A46214600F00AF9044669460D
:203AC000002000F0A1FC20463EBD0000853310002021020C01D010211046020A01D0104636
:203AE0000839020901D01046091F820801D01046891E420801D0881E7047081A7047000082
:203B000008B572B613460A46009002A1012006F041FAFEE7417373657274696F6E2046612E
:203B2000696C65643A2066696C652025732C206C696E652025642C2025730A0002E008C8F8
:203B4000121F08C1002AFAD170477047002001E001C1121F002AFBD170470000F0B51FB4EF
:203B600086B00998089A030D0021024314D05148514A1818504305141198012810981AD0FE
:203B8000281A401C00264D4F4D49009601910490002812DA444211E01198012449A3012805
:203BA00001D11098C1430698119A84600360C26041600BB0F0BD4042E4E7044621050020EF
:203BC0003F4A001C51410391029012E0E00707D032463B4601990098FDF7DEFB01910090BE
:203BE00032463B4610461946FDF7D6FB06460F466410002CEAD10498039B0028029A0999B6
:203C0000089806DAFDF7C8FB019B009AFDF7C4FB05E0FDF729FC019B009AFDF725FC0446F1
:203C20000E460022284BFDF7B7FC03D80020C043014607E00022254B20463146FDF7FAFA71
:203C4000FDF78AFC102409E0002C0ADB0A220023FEF642FF079B30321A55641E02460A43AE
:203C6000F2D11122641C079B121B1C19119B012B03D0012308430ED10AE0084304D0112097
:203C800010900020119077E71098151A6D1E0BE01098824202DD00236D1C03E0824201DA9F
:203CA00000236D1E002BEED0069811998260C16030C07EE701FCFFFF104D00000000144021
:203CC0000000F03F300000000000F0430000E03FFFB597B00646002518E2252877D1002414
:203CE0002746FD49049400E00443761C32780120203A90400842F7D130782A280ED00222BD
:203D0000307801463039092916D804990A235943303940181443761C0490F1E7189802C835
:203D200004911890002904DA0120400304434842049002200443761C30782E2814D1042074
:203D400004437078761C2A2809D11898761C80C8189009E00A214F43303FC719761C307815
:203D6000014630390929F5D930786C2810D006DC4C281AD068280ED06A2817D104E07428CF
:203D800013D07A2812D110E00120400504430CE00121090501E0032109050C4371788142F4
:203DA00003D1012000052418761C761C3078119066280BD013DC58287DD009DC00287BD0E3
:203DC0004528F6D04628F4D047281AD1A5E118E0632835D0642870D0652812D19DE17028C4
:203DE0006CD008DC6728F1D069287BD06E280DD06F2806D1BAE073282ED0752871D07828E5
:203E000059D01A9A199990476D1C7EE16002400F022809D003280DD00428189801680DD076
:203E20000D60001D189070E11898EA1701680D604A60F6E7189801680D80F2E70D70F0E71E
:203E400018986A4601781172001D18900020507202A80090012005E0189802C818900020DD
:203E60000091C04361070DD5002101E00199491C0191B94212DA8142F8DB009A515C0029E4
:203E8000F4D10BE0002101E00199491C01918142FADB019A0099895C0029F5D10199049809
:203EA0001A9B471A21463846199A00F097FA0199401945180BE04FE02CE113E04EE00098A3
:203EC00000990078491C00911A9A199990470198401E0190401CF2D1214638461A9B199AAA
:203EE00010E137E00A200021009001916002410F022907D0189A01CA1892C2179446032993
:203F000008D00AE01898C01DC108C90005C91891944607E000B2C2179446042902D140B231
:203F2000C1178C4600226146944506DA0A460021404291418C462D2102E0210504D52B2143
:203F40006A461173012103E0E10701D02021F7E7029155E00A200AE0102008E0102000909C
:203F60000021042004430191082703E008200021019100906002410F022907D0189A01CA75
:203F8000189200229446032908D008E01898C01DC108C90005C91891944603E080B20429DD
:203FA00000D1C0B200210291210729D51199702906D0009A1021019B4A401A4305D00EE0BA
:203FC00040216A461173012108E06146014306D030216A4611731199517302210291009A3E
:203FE0000821019B4A401A430AD16146014301D1610705D530216A46117301217F1E029164
:204000001199582904D035A10E910DA90D910DE037A1F9E76146019B009AFEF65DFD0E9B5F
:204020008C469B5C0D9A521E0D92137061460143F0D10D9805A9081A20300190600703D53D
:2040400001200004844300E001270198874201DD381A00E00020019900904118029809189C
:204060000498401A0490E00306D421461A9B199A049800F0B3F94519002706E003A81A9A28
:20408000C05D199990476D1C7F1C02988742F5DBE0030CD521461A9B199A049800F09EF96D
:2040A000451904E01A9A3020199990476D1C0099481E00900029F5DC08E00D980D99007874
:2040C000491C0D911A9A199990476D1C0199481E01900029F1DC63E1092801003031323354
:2040E000343536373839616263646566000000003031323334353637383941424344454682
:204100000000000000F05AF94519761C3078002800D0E2E528461BB0F0BD600700D40627B7
:204120001898C01DC108C90048680A680831C30FDB071891190001D09CA108E0210501D59D
:204140009BA104E0E10701D09AA100E09AA1430011985B08109165280CD006DC452809D0AF
:2041600046281DD0472841D141E0662818D067283CD13CE00021112F01DB112000E0781C32
:204180000191009008A911A8FFF7E8FC139905910021119A15927F1C12980197009150E066
:2041A0000120C00703900120019008A9009711A8FFF7D4FC139A149905920022119B0092BA
:2041C00012981593059A0192002901D0104602E0791C40180190381A01D5019804E0404284
:2041E000401E0090781C0190C01B029043E0012F00DA01270021112F01DD112000E038461C
:204200000191009008A911A8FFF7A8FC13990591119A0021129815920091019721070CD4E8
:204220000599B94201DB019900E00191012904DD159A491E515C302906D0B84201DA011D0D
:2042400005DA0121029115E00199491EEDE7002805DC0099411800910199091A03E0019A39
:20426000411C914200DD01910099401A401C02900120C0070390200706D40299019881424B
:2042800002DB0020C043029000206946C87707AF012103980337C907884224D00220119080
:2042A0002B201290039800280CDA404203902D20129007E00A210398FEF6E4FB30317F1EE6
:2042C000039039701199481E11900029F2DC03980028EFD1791E129808703078202108408D
:2042E0004530BF1E387006A8C01BC01D039010980078002800D00120019941180298C0172E
:204300000918039809180498401A401E0490E00306D421461A9B199A049800F05FF845190B
:2043200010980078002803D01A9A199990476D1CE00324D521461A9B199A049800F04EF81F
:2043400045191CE00098002807DB00990598884203DD1598405C199901E0199930201A9AEF
:20436000904700986D1C401C00900298401E0290002804D11A9A2E20199990476D1C019924
:20438000481E01900029DDDC05E038781A9A7F1C199990476D1C0399481E03900029F4DCC0
:2043A00021461A9B199A0498ACE600002D0000002B0000002000000000000000F8B5044691
:2043C00000251E461746880404D405E039462020B0476D1C641EF9D52846F8BDFFB50446FE
:2043E000002581B01E46C80301D5302700E02027880404D505E038460399B0476D1C641E7E
:20440000F9D5284605B0F0BD0A68531C0B601070704710B503F084FD10BD000070B51048F8
:204420000B2184681620A27D4243C001163200F037F8054616226168FEF690FBA27D162042
:2044400042432818A168FEF689FBA17D162041430022D2432846163103F042FB70BD0000F5
:20446000C80811000FB470B5044606AE00250EE0327A30787168531C23706070A01C0C3665
:20448000FEF66CFB2078641C04196D1CEDB26846007D8542ECD3204670BC08BC04B018474A
:2044A00070B50646104615460C46083004F08CFE00280BD00680448010218180C5800830D6
:2044C00004462946FEF663FB204670BD122202A109A0FFF715FB00002E2E5C2E2E5C2E2EEC
:2044E0005C2E2E5C7574696C735C6F736170705F7461736B2E6300006D736720213D203040
:204500000000000070B5154D044669688847EA680021204690472A680221204690472A68F6
:204520000021204690470720E1680122C00108188261207A8240521E9006800E020210437F
:20454000032212028918086308616A69002120469047EA6801212046904770BD20C41000AA
:2045600010B50248FFF7CEFF10BD0000D8C41000F8B50646C068032109024718B9680029F7
:2045800016D0DB220FA11DA0FFF7BAFA00240BE0A96E0120A040014204D0B86321463046EB
:2045A00001F062FD641CE4B2307AA04203D9EFE70521C9014518A86E0028E7D1304601F0AD
:2045C000F9FCF8BD2E2E5C2E2E5C2E2E5C2E2E5C2E2E5C2E2E5C706C665C706572697068BB
:2045E0006572616C5C6170705F646D61635C6170705F646D61632E63000000007265672DF9
:204600003E7374617475735F6572725F6C203D3D20300000F8B50C46054601F009FC0646CF
:204620000C2358436A682168031DD15001466B68626808315A506A68216911502D4F0021F3
:20464000FA68284690477A690221284690473146284601F0CBFB60694104490F0DD001295F
:2046600008D0022904D0692223A131A0FFF748FA022203E00022022101E000220021EB6848
:204680008504C705AD0F7F0F2D05BF033D4307057F0FFF023D4352021543C9010D434107DE
:2046A000490E0D438106490F49000D430002C00F582105437143C81885610022026462697C
:2046C000550252032D0F120FED02D2011543AD1C4564A2685A50E16881600120B0408106CF
:2046E0008006890E800C01430720C001181801623046F8BD20C410002E2E5C2E2E5C2E2E67
:204700005C2E2E5C2E2E5C2E2E5C706C665C7065726970686572616C5C6170705F646D611D
:20472000635C6170705F646D61632E63000000003000000010B501460148FFF76BFF10BD42
:20474000D8C41000F3B50646C0680521C90183B04518049901248C40296C2142FCD003219B
:204760000902411802918C63A706A106BF0E890C0F430721C9014018019004980C2148431C
:20478000009008E001F032FB01980762286C2042FCD00298846371680098085804990028A8
:2047A0003046EFD101F086FB304601F003FC05B0F0BD000010B501460148FFF7C3FF10BDAF
:2047C000D8C4100070B50D4E0546F26800219047326802212846904732680021284690470E
:2047E0006C6804E02146284602F00AF82468002CF8D1726900212846904770BD78BA100007
:2048000070B5054644680EE0E968086C227AD040C00707D0CB6C0120904083431843C8640A
:20482000606880472468002CEED170BDC06842688A4342607047C06842680A4342607047D5
:20484000C06840687047C06841607047C068006D7047C06802688A4302607047C0680068FD
:204860007047C06802680A4302607047C06802684A4002607047C0680160704770B50E469B
:204880000446EFF3108572B6406801F00CF9002804D073220CA11AA0FFF732F93146606839
:2048A00001F0DAF8207A002803D00020002D03D003E001202072F9E762B6002802D0204692
:2048C00002F036F870BD00002E2E5C2E2E5C2E2E5C2E2E5C2E2E5C2E2E5C706C665C7065C8
:2048E000726970686572616C5C6170705F68776563635C6170705F68776563632E630000C4
:204900003000000010B501460148FFF7B7FF10BDECC4100070B50C4C054661688847E2682F
:2049200000212846904722680221284690472268002128469047E868002141600121016199
:20494000E2682846904770BD50C4100010B50248FFF7E0FF10BD0000ECC41000F8B504460F
:20496000E1680120C8610021606801F0A4F80546876946690721E068C90141182022E8681F
:20498000FEF6ECF81D21E0684901411820222869FEF6E4F80F480121C26820469047EFF3B1
:2049A000108572B6606801F045F8606801F074F8002802D00020207200E00120002D00D174
:2049C00062B6002802D0204601F0B2FF3846B047F8BD000050C41000F8B5C61D0546F93665
:2049E000F06CC46A214602F05FF8600729D52B46FF33213329468031F26C0DE01769086BC3
:204A00000770086B401C0863187F00280CD0401E0006000E187707D0906FC006EED1187F57
:204A2000102805D9082004E0284602F05DF906E0401EC1B2906B000A00020843906304207E
:204A40008443E0061027002803DA284602F016FABC43A00605D5F06C016B39430163202096
:204A60008443600601D540208443200601D580208443002C07D0FF3541352A7C234602A14A
:204A8000022005F087FAF8BD69696325643A756E6578706563746564206972712C737461BC
:204AA000743D307825780A0010B58902520211431A02029C11432143016110BD70B50E46E4
:204AC00011491546CA68046900219047A87B01068207090FC902920D00071143800F014327
:204AE00018200143F4200151E88908498005800F40054018206068688008401E60602661E4
:204B00000120A06070BD0000A8BA100000021F0010B5024601210248FFF7D0FF10BD0000A9
:204B2000FCC4100001698A6AD207FCD18A600A610149CA6801211047A8BA100010B50248D6
:204B4000FFF7F0FF10BD0000FCC41000006960307047000010B50248FFF7F8FF10BD00005A
:204B6000FCC41000FFB581B01E46054604F00BFC0090144F2C69FA680021284690477A69A3
:204B80000221284690472046009904F02BFC039820663002000E20663004000E2066F0B242
:204BA000206620460B9B0A9A029904F029FC7A69032128469047FA6801212846904705B041
:204BC000F0BD0000A8BA1000FEB51D4614460E46074601F069FD33463A4601210448019551
:204BE0000094FFF7BFFF00F08DFF06F039FDFEBDFCC41000F8B5224F044679688847FA68C0
:204C00000021204690473B69E179002220469847607B022809D13B69E17A04222046984788
:204C20003B69A17A0322204698473B69217A0122204698473B69617A022220469847002597
:204C400005266019017B3B693246204698476D1C761CEDB2F6B2002DF3D0216900208860EF
:204C60002169A08848612069A179803001677A69002120469047FA68012120469047F8BD67
:204C8000A8BA100010B51148022484800121104A817112681300FDF6BCFF05040507050790
:204CA00008000021417300E04473182101731921C1711A2101721B2141721C2181721D215C
:204CC000C1720248FFF796FF10BD0000FCC4100014F51200F7B588B0069004690121506853
:204CE00089041546884204D3A62247A155A0FEF707FF870886075948B60FC2680021069820
:204D0000904756480221426906989047A87B01068207090FC902920D00071143800F014378
:204D2000202001430698006980304167002F32D0E8894B498005800F400540182060781E93
:204D40006060072060650020E0640120E064A060A8892066A8682066182242496846FDF62B
:204D6000FDFE2046EC300290286803900F2205980121D203C90390430843110188430590E0
:204D800004976846FFF7D6FC09992161FFF712FD0020A0602061002E2AD0E889324980059F
:204DA000800F400540182060701E60600022E2640120A060A8892066A868B900030A5B1870
:204DC0001B02C0B20343236609982061A06A4007FCD5A06AC007FCD128684118002003E0A7
:204DE000236E0B54401CC0B2B042F9D3A26022611A4C0321626906989047E26801210698DE
:204E000090470BB0F0BD00002E2E5C2E2E5C2E2E5C2E2E5C2E2E5C2E2E5C706C665C706590
:204E2000726970686572616C5C7373695C6170705F717370695C6170705F717370692E636D
:204E400000000000706172616D2D3E6C656E677468203C203078343030303000A8BA1000CA
:204E600000021F0088BB10000002070010B5044601F01AFC224601210348FFF72BFF00F0BA
:204E800041FE06F0EDFB10BDFCC41000FFB505460469254887B0C2681F46119E002128467B
:204EA0009047214802214269284690471F482060701E6060072060650020E0640120E064B5
:204EC000A060002004E00999095C2166401CC0B2B842F8D3182216496846FDF63FFE2046D0
:204EE00060300290109803900F2205980121D203C903904308431101884304960590002674
:204F00006846FFF717FC08992161FFF753FCA6602661054C0321626928469047E2680121F4
:204F2000284690470BB0F0BDA8BA10000003070070BB1000FEB51D4614460E46074601F00B
:204F4000B3FB33463A460121044801950094FFF79DFF00F0D7FD06F083FBFEBDFCC41000BD
:204F6000FFB581B0044604F00EFA0F4D0746EA6826690021204690476A69022120469047EB
:204F80003946304604F02EFA304602AE0ECE04F037FA6A69032120469047EA6801212046CB
:204FA000904705B0F0BD0000A8BA100070B50C46054601F079FB23462A4601210348FFF7E3
:204FC000CFFF00F09FFD06F04BFB70BDFCC4100070B5064605462036A86A006B0406240E73
:204FE0000BD0A00613D5327B22A1022004F0D2FFA86A406CFF22573231E0A86A8068002856
:2050000004D124480121C2682846904770BDE00602D5284605F022FB200709D5327B1EA1E3
:20502000022004F0B7FFA86AC06BFF22613216E0600709D5327B20A1022004F0ABFFA86A38
:20504000006CFF2267320AE0A0070CD5327B22A1022004F09FFFA86A806BFF226D3226A110
:2050600033A0FEF74DFDE007B6D0284605F086FBB2E7000073706925642C6D756C74695FA9
:205080006D617374657220636F6E74656E74696F6E0A0000C0BA100073706925642C5265D7
:2050A0006365697665204649464F204F766572666C6F770A0000000073706925642C52656A
:2050C0006365697665204649464F20556E646572666C6F770A00000073706925642C5472D9
:2050E000616E736D6974204649464F204F766572666C6F770A0000002E2E5C2E2E5C2E2E96
:205100005C2E2E5C2E2E5C2E2E5C706C665C7065726970686572616C5C7373695C617070F9
:205120005F7370695C6170705F7370692E63000030000000112001F09FFF102001F09CFF3F
:20514000172001F099FF112001F00AFF102001F007FF172001F004FFFDF78CFEFCE70000B1
:2051600002484168491C41607047000014C5100070B51B4E0022336904460569114698475C
:2051800032680221204690473268002120469047B2680F2120469047F268002120469047DE
:2051A000217D142041436A586068120E0002000A120610436850207D142148434019816821
:2051C000022211438160207D1421484340198168042291438160726900212046904770BD96
:2051E000D8BA1000027D142301695A435118C968C268816810460847027D142301695A4341
:2052000051188A6801231A438A6002494A69022110470000D8BA100010B5EFF31082416BC9
:2052200072B6CB6F1B070CD4CB6F5B0709D5037BEF2423400373086902239843086101202B
:2052400000E00020002A00D162B610BD027B10231A43416B02730869022210430861704738
:20526000F8B50646041D40682E4F850A8005800D0090796830468847BA68294630469047BA
:20528000FA680021304690473B6921790122304698473B696179002230469847207A756B19
:2052A000400709D53B69A1790322304698473B69E179022230469847207A20210007002810
:2052C00004DA8120A8602869084303E00120A860286988432861207AC006304602D5FFF7D7
:2052E000B5FF01E0FFF798FF207AC1078007C00F090F0001C91C0143E96068680421084309
:2053000068603A680221304690473A680021304690472846009906F057F87A6900213046DD
:205320009047F8BDF0BA1000F8B50646406B354620350090009880680107090F012950D039
:20534000022937D0042920D0062907D00C291CD02A7E24A1022004F01DFEEBE7746B6069BF
:20536000C7B2B80708D525A1012004F013FE00E020686069C007FBD13807DBD523A1012094
:2053800004F008FE01206874D4E73046726B0AE01168436A1970016A491E0162436A5B1C16
:2053A0004362002903D05169C907C3D0F0E705F043FFBFE73169304600290FD0426B09E0CD
:2053C0004169097811604169491C41610169491E0161AFD0D16F8907ACD5F1E706F052F865
:2053E000A8E7F8BD756172743A256420756E6578706563746564206969640A007561727479
:20540000206F76657272756E0A00000075617274206672616D696E67206572726F720A003D
:20542000F8B516460F4604461D461A463146384606F01EF8002804D0606A002803D002201D
:20544000F8BD0120F8BD67622662A5620698E06209480221426920469047207B400603D574
:20546000204600F00BF804E0606B41680122114341600020F8BD0000F0BA100030B587B0B8
:20548000044605F053FE054618221B496846FDF665FB0194606B0290606A0390206A049025
:2054A000207B000701D5680800E0012000F018FDFF2205994007C132C00D914301432034CC
:2054C0000591207E002801D00B2000E009200F22D203C0039143014368460591FFF72AF92D
:2054E0004007410E207C8F221040084380210843207407B030BD000008BB1000F0B5164636
:205500000F46044687B01D461A463146384605F0AFFF002805D06069002804D0022007B0BF
:20552000F0BD0120FBE767612661A5610C98E0611C480521426920469047207B800629D5F0
:20554000204605F0F3FD182217496846FDF606FB019460690290606B039020692034049005
:20556000207E002801D00A2000E008200F220599D204C0049143014368460591FFF7DAF8D5
:205580004107207C490FC008C000084308210843207404E0606B4168022211434160002063
:2055A000BDE70000F0BA100020BB100003490A6B52005208C00702430A63704700001020D5
:2055C00001490320486370470010202010B5032005F0AAF910BD000010B50120800200F007
:2055E000DBFA01F0CFFE002005F09EF90A49012008700A4804210160094A002013680B426D
:2056000007D0002807D1FF22083206A113A0FEF777FA401CF2E710BDA0C3100000E100E062
:2056200000E200E02E2E5C2E2E5C2E2E5C2E2E5C2E2E5C2E2E5C706C665C61706F6C6C6F33
:205640005F30305C7372635C736C6565705C7379735F736C6565702E6300000072656475FE
:205660006E64616E745F74696D65000004490A68C00752085200C00F02430A6070470000A0
:205680004000112004494A69000712091201000F02434A61704700004000112004494A683E
:2056A0000005120B1203000D02434A60704700004000112004498A680005120B1203000D0C
:2056C00002438A6070470000400011200449CA680005120B1203000D0243CA60704700008A
:2056E0004000112004490A690005120B1203000D02430A617047000040001120014610B551
:205700000748002300685A1E406806F085FB012804D01F2203A10BA0FEF7F2F910BD0000DF
:2057200050C310002E2E5C2E2E5C2E2E5C2E2E5C7574696C735C626C655F7461736B2E6303
:205740000000000030000000FFB581B00C9F1C4615460E46880704D5002211460120FCF783
:20576000EDF8280B04D0002211460120FCF7E6F8600804D0002211460120FCF7DFF80A9890
:20578000400804D0002211460120FCF7D7F80B98400804D0002211460120FCF7CFF87809FD
:2057A00004D0002211460120FCF7C8F80D98000904D0002211460120FCF7C0F80198B107B0
:2057C000C007084329040843E10308430A99490308430B9909030843390108430D99084365
:2057E0000149486305B0F0BD4000102004490A68FF231B049A43000402430A60704700009B
:205800008000102010B5084C2078002805D10AF739FB002801D000F009F82078022801D176
:2058200004F0A8FC10BD0000A0C3100010B50AA1032004F0AFFB0120800200F0ADF90A4AD2
:205840001020116B814301431163084800E030BF01780229FBD110BD736F66742077616BA5
:205860006575700A0000000000001020A0C310001CB50D4C20600D48006804F0D5FB0025E1
:20588000ED43FFF7BFFF20682A460068694606F0FFFB0128F5D1684681880029F1D082799A
:2058A000009802F003FBECE750C3100094C3100003490A68120A120202430A6070470000AF
:2058C00080001020F8B5054605F0BEFE04F08EFD044600F0F7FB060001D0072C05D0E007FE
:2058E00000D030BF05F0BCFEF8BD2B4F3969B8680C1A012E0FD0651E2848456000F0DAF9BA
:2059000002F0B0FC30BF02F073FC24480069002807D0012106E06D1C6843F9680019451AB0
:20592000EAE700211D480068012E0ED100290CD0FA680021AA180B464B41821A994104D326
:20594000FF22443216A11EA023E0001BB968FDF699F8054606F032F83869A04204D3B96892
:205960006943C943814201D2012400E00024B96869430818094D3861686000F09BF9002C5C
:20598000B0D1286839698842ACD9FF225D3204A11BA0FEF7B5F800005CC3100000002020E4
:2059A0002E2E5C2E2E5C2E2E5C2E2E5C7574696C735C7461736B5F696E69742E6300000023
:2059C0002875696E7436345F742977616B6575704D6174636856616C7565202B20525443AE
:2059E00057616B65757044656C6179203E52544356616C75654166746572536C656570001C
:205A000028287265675F7274635F74202A2930783230323030303030292D3E5254435F43BF
:205A20004356523C3D7274634D61746368436F756E7400008188037B02684B439A184389C6
:205A4000491C5B1E438189B281800389994201D1002181801046704710B50B46044600F0B0
:205A600015F8227B1946FDF679F8204600F001F810BD4189491C4181C188491C89B2C18082
:205A80000289914201D10021C1807047C2880168007B4243501870474089002801D0002009
:205AA00070470120704741890089814201D1012070470020704742898A4201D80020704779
:205AC0008388026859180389994200D3C91A007B41438818704710B5002904D00120400248
:205AE00000F088F810BDFF200130F9E710B50248006800F0E3FB10BD0CF5120010B500F05F
:205B0000FBFB10BD10B50248007A00F007FC10BD0CF5120004480268C90752085200C90F5C
:205B20000A4302607047000040201320081A1949001F0B400105490D09040B43C1014202C1
:205B400010B54A40D20FD2430124D207E4061209A3431A4363001A4303024B40DB0FDB4362
:205B6000DB07A4009B08A24313430322920713439A0A80029202800D0243E0148243C80F91
:205B8000800202431F20C00282430F200003101810BD0000FFFF00F810B50B4948600B4A45
:205BA000104203D04A680242FCD110BD074AD243104204D04A6803469343FBD110BD1E22FA
:205BC000034904A0FDF79CFF00102020AAAAAAAAE4BD1000300000000449034808614861C3
:205BE0000349086148617047AAAAAAAA002013200090142010B50B4948610B4A104203D095
:205C00004A690242FCD110BD074AD243104204D04A6903469343FBD110BD6722034904A083
:205C2000FDF76EFF00201320AAAAAAAAE4BD10003000000010B50B4908610B4A104203D02B
:205C40000A690242FCD110BD074AD243104204D00A6903469343FBD110BD3022034904A0FA
:205C6000FDF74EFF00901420AAAAAAAAE4BD10003000000010B50B4948610B4A104203D05A
:205C80004A690242FCD110BD074AD243104204D04A6903469343FBD110BD4222034904A028
:205CA000FDF72EFF00901420AAAAAAAAE4BD100030000000024880690249082008607047B1
:205CC0000000202080E200E001700A0A42700A0C8270090EC170704702480068002800D05A
:205CE00001207047DCC310000FB438B50A4C60790028FCD005AA09480499FDF7D7FE02469C
:205D00000025074B054907480095FFF7F7FB657138BC08BC04B01847B61D1100B01A110092
:205D20002D50100040C5100070B500F08DFA2A4D0446E86910218843E8611A202749C04321
:205D40000860FFF73DFCFFF741FC00F051FB04F081FF002800D0012004F02EFE012004F07B
:205D600095FD28680121C008C00008432860002003F068FC1A49641C0A68A242FCD3E869B4
:205D80000121090488430843E861002004F0F0FDA86840084000A86001F050F9114C124DDE
:205DA000A168884321690843286001F0E9F8A1688843E16808436860286801F071F96868F5
:205DC00001F0E6F803F0F6F90349606840314861022004F05BFD70BD0010202080E100E0B8
:205DE00000002020ECC31000A4C3100030B50C224A43582543686943C5689B580B4C4919E0
:205E0000A34207D9CB692343CB61406863428158C91808E0CC691B051B0D240B24032343CF
:205E2000CB6140680021815030BD0000FF0F000070B504460020267A16E001218140C9B21E
:205E4000EFF3108572B6637A0B4201D1012200E00022002A01D00B436372002D00D162B64E
:205E6000002A08D1401CC0B28642E6D8372202A10FA0FDF745FE70BD2E2E5C2E2E5C2E2EF0
:205E80005C2E2E5C2E2E5C2E2E5C706C665C7065726970686572616C5C6170705F646D6186
:205EA000635C6170705F646D61632E63000000003000000001228A40EFF3108172B6437AE8
:205EC00093434372002900D162B6704710B5002903D08020FFF78EFE10BD4020FAE700007D
:205EE00010B5012809D020281BD008DC042812D0082812D0102809D111E0002010BD40284C
:205F000011D0802811D0FF38012810D0C22209A116A0FDF7F5FD012010BD022010BD0320AD
:205F200010BD042010BD052010BD062010BD072010BD00002E2E5C2E2E5C2E2E5C2E2E5CEA
:205F40002E2E5C2E2E5C706C665C7065726970686572616C5C6170705F646D61635C617049
:205F6000705F646D61632E63000000003000000010B54022002908D001290AD002290CD0C9
:205F80001822074907A0FDF7BBFD07490860074801E006488030026010BD0548FBE70000E0
:205FA00054BF10003000000038C4100000E100E080E200E070B50446C1680720C0010818DF
:205FC000006A002814D10520C0010818806E00280ED10320000208188068002808D1054DCF
:205FE0000121EA68204690476A6903212046904770BD000020C4100010B5202004F022FC84
:2060000010BD000010B500290DD0012910D00E4B0229186811D0032912D00A460BA10220CD
:2060200003F0B8FF10BD01460E4803F089FA10BD01460C4803F0BAFA10BD0121084301E0AC
:2060400040084000186010BDDCC31000756E6578706563746564207379735F737461743ABB
:2060600025640A00CCC3100070B50D462C460C22416854430A59C668002A0ED02946FFF798
:20608000B5FE0120A84081068006890E800C01430720C0013018016270BD221D08348E58AF
:2060A0000C592946FFF706FF2046B04770BD000008B50020009002480121417108BD000037
:2060C000B61D1100094901200968002901D0002070470749CA69002AF9D1044A283212688E
:2060E0008968491E8A42F3D102207047C0061100F4C2100008B50092034A0B4611462039A5
:2061000000F05EF808BD0000F0B71000F0B585B0044600294FD1204608300390001D029070
:20612000001D0190001D071D3E1D244D0090FCF603FD01462046FFF7C7FDFCF6FDFC014689
:20614000201DFFF7C1FDFCF6F7FC01460398FFF7BBFDFCF6F1FC01460298FFF7B5FDFCF67F
:20616000EBFC01460198FFF7AFFDFCF6E5FC01460098FFF7A9FDFCF6DFFC01463846FFF7E0
:20618000A3FDFCF6D9FC01463046FFF79DFD1F20215C002901D1401EFAD5401C02D12078A0
:2061A0000028C4D01F20215C2A5C9142BFD8914201D3401EF7D505B0F0BD000010B810006C
:2061C000F0B51C4687B017460E4605464023FF2220460C990AF77AF804461C2207496846FD
:2061E000FCF6BCFC204620300490039406946A46E0C26846FEF786FB07B0F0BD90B9100047
:2062000010B50AF79BF801F095F910BD704743214904401A000B000310B54018002100F0DB
:20622000FDF8044600F0DAF8002C01D0012010BD002010BDC91C10B58908890000F09CF93C
:2062400000F0CCF8002010BD10B50748C26910218A430A43C261C26909028A430A43C2617D
:2062600000F0BAFA10BD00000010202010B501460F3900240B00FCF6CCFC091306080E0EDA
:206280000E0E0A0C0E0001240AE0022408E0032406E0042404E0024602A1012003F07AFE11
:2062A000204610BD25642065787420696E7420636667206661696C0A0000000070B50B4AB6
:2062C00005460121126800209047094A002112680846904700F082F8064C6560FEF73AFC21
:2062E000A0602720C005E06070BD00001CC4100018C410000010122010B506480068002864
:2063000001D0FEF71BFC044A012112680020904710BD00000010122018C410007FB52C4A1A
:2063200005460021126808469047002D01D0052D02D3012004B070BD26496E460FC90FC67B
:206340000C208101F022012D06D0022D0FD0032D19D0042D2FD122E06C46E38983438B436D
:20636000FF33013393438033E3813B2423E06C46E38983438B43FF33FF3302339343803394
:20638000E3816B2417E06C46E38983431B1D8B43FF33013393434033E381BB240BE06C469A
:2063A000E38983431B1D8B43FF33FF33023393436033E381EB24084DE868000A000220431C
:2063C000E8606846FEF7A4FB012028600020B1E718C4100048BB1000001012200348012124
:2063E0008161C161C1690029FCD170470010122008B5B9206946087001216846FEF7D6FD2B
:2064000008BD10B5032300F061F8002010BD10B5012300F05BF8002010BD0000F8B50C00C4
:2064200006460AD0012C08D0022C06D0032C04D0692216A12148FDF763FB05F0FBFA00F053
:206440008EF9300C69464870300A8870CE70002C06D0012C06D0022C08D0032C0BD107E0A5
:20646000202000E052200870042504E0D820FAE760200870012529466846FEF797FD00F078
:2064800069F806F043F80020F8BD00002E2E5C2E2E5C2E2E5C2E2E5C2E2E5C2E2E5C706C69
:2064A000665C7065726970686572616C5C666C6173685C666C6173682E630000FCC11000BC
:2064C00010B50021FFF7AAFF10BD00007FB5204C0002A568E4680191E9B2014300920C223E
:2064E0000291F02091010394012B06D0022B0AD0032B14D0042B0ED11CE03B236C46A38177
:20650000E389934311E06B236C46A381E3899343834317E0E3816846FEF7A8FC7FBDBB2320
:206520006C46A381E38993431B1D83438B43FF330133EFE7EB236C46A381E38993431B1DDD
:20654000834340338B43FF33FF330233E2E7000038BB10001CB505206946087101236A46DD
:20656000194601A8FEF7E6FC68460078C007F5D1684600781CBD0000F8B5044616460D46E4
:20658000000E04D0952219A124A0FDF7B9FA200A0002A0420CD0071BFF370137BD4200D2F2
:2065A0000F463946204600F045F8F619E419ED1B2802070CE8B2002500900BE0FF21324651
:2065C0000131204600F036F86D1CFF340134FF36ADB20136BD42F1D30098002804D00146AB
:2065E0003246204600F026F80020F8BD2E2E5C2E2E5C2E2E5C2E2E5C2E2E5C2E2E5C706CAE
:20660000665C7065726970686572616C5C666C6173685C666C6173682E630000286F6666C4
:206620007365742630786666303030303030293D3D30000070B50546FF20013016460C4613
:20664000814204D98B2209A114A0FDF759FA05F0F1F900F084F82346324629460220FEF796
:20666000B3FAFFF777FF05F051FF70BD2E2E5C2E2E5C2E2E5C2E2E5C2E2E5C2E2E5C706C63
:20668000665C7065726970686572616C5C666C6173685C666C6173682E6300006C656E6701
:2066A00074683C3D3235360010B5002404F0CCFFFFF724FA204610BD10B50423FFF706FF12
:2066C000002010BD10B50223FFF700FF002010BD38B508A31B680093030C6C466370030AB2
:2066E000A370E0708BB204216846FEF723FC002038BD00000300000000B50A490020096862
:206700000B00FCF686FA050406080A0C0500064800BD064800BD064800BD064800BD064850
:2067200000BD000014F512004D5610008B531000415610007F5310003556100010B500F007
:2067400005F8FFF7D3F9FFF7D9F910BD08B5AB206946087001216846FEF728FC08BD08B5CB
:2067600006206946087001216846FEF71FFC08BD0D4A10B50021904201D9062111E00A4AD2
:20678000C83A90420DD8094A904201D9072108E0E122D200904204D86E22054905A0FDF737
:2067A000AFF9084610BD00003C0F0000480D0000FCBE10003000000003480449401804493F
:2067C0004018044908607047551A00003B1B0000F52A00009CC3100002490A6808688242B1
:2067E000FCD070470000202010B5002905D0012902D14803FFF73EFA10BD01200003F9E7CC
:20680000F0B5C3689D6E4A7A0C7A5207D60F0122A6401746A740BD432E439E66C3689E6B1F
:206820004C7A1746E5070C7AED0FA540A740BE4335439D63C368DE6B4C7A1746A407E50F4C
:206840000C7AA540A740BE433543DD63C468256B0E7A1346B3409D432B432363C068436BF3
:20686000097A8A4093434363F0BD0000012210B5D203002908D001290AD002290CD0242293
:20688000064907A0FDF73CF906490860064801E005488030026010BD0448FBE7A8BF100022
:2068A000300000003CC4100000E100E080E200E010B50120400403F0CDFF10BD10B50029F1
:2068C00007D001290AD00A4607A1022003F062FB10BD01460B4802F033FE10BD0146094884
:2068E00002F064FE10BD0000756E65787065637465642073797320737461743A2025640AFA
:2069000000000000C0C31000828A8A4205D2807D1018884201D301207047002070470000C3
:2069200010B5024800F0E2FA10BD00000804024B70B5044640680021FFF7BDF805462648BA
:206940000021C268204690471F22E068520180182968202200F0CAFC1522E0685201801848
:206960006968202200F0C2FC0B22E06892018018A968202200F0BAFC0921E0688901401869
:206980000822002102F07AFE1326E068760180190822002102F072FE0521E068C901401874
:2069A0000822002102F06AFE1725E0686D0140190822002102F062FEE068012280191146EF
:2069C00002F05CFEE06801224019114602F056FEE1680120886070BD50C4100010B5002979
:2069E00004D00120C004FFF705F910BD01208004F9E7000010B52022002908D001290AD08C
:206A000002290CD01D22074907A0FDF779F807490860074801E006488030026010BD054872
:206A2000FBE70000FCBF10003000000068C4100000E100E080E200E010B50120C00503F09C
:206A400001FF10BD10B500290ED0012911D00E4B40221868022911D0032911D00A460BA142
:206A6000022003F097FA10BD01460E4802F068FD10BD01460B4802F099FD10BD104300E0C0
:206A80009043186010BD0000DCC31000756E6578706563746564207379735F737461743A26
:206AA00025640A00CCC3100008B5CA0701D0426C00928A0701D5826C00920A0701D5C26C09
:206AC00000928A0601D5026D00924A0601D5426D00920A0601D5826D0092CA0501D5C26D1B
:206AE00000928A0501D5026E00924A0501D5426E0092090501D5806E009008BD10B5FF301B
:206B00004130007C002803D05020FFF793F810BD0520FAE770B5FF225132125CFF30013032
:206B2000C46C3A483023CDB2002AEFF3108172B60DD02022026102689A430260102202614C
:206B4000002900D162B60120FFF794F80DE002220261026892089200026001220261002965
:206B600000D162B60120FFF765F82168A8070622400F9143084320602548012D04D0022DCC
:206B800012D0032D20D02EE062692149120C898A120489B211436161A269018A120C89B229
:206BA00012041143A1611EE0E2691949120C898C120489B21143E161226A018C120C89B232
:206BC0001204114321620EE0626A1149120C898E120489B211436162A26A018E120C89B223
:206BE00012041143A162E16F2A011018027AFF2312041B0499430A43E267E16F8089090CD2
:206C000080B209040843E06770BD00000090142074C4100010B5FF225132135C002B01D096
:206C20000E2200E00D220124002908D001290CD002290FD03022094909A0FCF761FF9900A6
:206C4000084B94405850084802E0074894408030046010BD94400548FAE7000054C0100009
:206C6000300000006CC4100000E100E080E200E070B5FF304130057C8C1E0E46002A06D05D
:206C8000012A12D0B522154915A0FCF739FF0521304603F0A7FF002D03D00122E0B20821BF
:206CA00010E00122E0B206210CE00521304603F099FF002D03D00122E0B2092102E0E0B2A2
:206CC0000122072101F08EFF0648016A0122B24011430162C1691143C16170BD54C0100075
:206CE000300000004010202070B5C11DF931CA6C136B1024A34313630C6C4D6C002C0AD02C
:206D000000220A644A6406494A690321904700212846A04770BD412202A10FA0FCF7F0FEFF
:206D200090BA10002E2E5C2E2E5C2E2E5C2E2E5C2E2E5C2E2E5C706C665C70657269706883
:206D40006572616C5C6170705F6969635C6170705F6969632E63000063616C6C6261636B6F
:206D60000000000010B5FF304130007C002801D0082000E0022003F06DFD10BDF8B50A46E8
:206D8000FF215131144C0D5CFF260136802721681300FBF63EFF0604090E150E151B014600
:206DA0000E4802F0CDFBF8BD01460C4802F0FEFBF8BD002D01D0314300E039432160F8BDCF
:206DC000002D01D0B143F9E7B943F7E704A1022003F0E0F8F8BD0000D8C31000C0C3100082
:206DE000756E65787065637465642073797320737461743A2025640A0000000070B5FF21D1
:206E00004D3109580A6B10239A430A6302468032546A956A002C0AD00021516291620649CE
:206E20004A690521904700212846A04770BD542202A10FA0FCF764FE90BA10002E2E5C2EA2
:206E40002E5C2E2E5C2E2E5C2E2E5C2E2E5C706C665C7065726970686572616C5C61707061
:206E60005F6969635C6170705F6969632E63000063616C6C6261636B00000000F8B5044698
:206E8000FF3025460130A035C66C28782F46A037002822D1306B102188433063387A002815
:206EA00002D12046FFF7AAFFF8BD387A012818D000232878012816D000226069002100782C
:206EC00000903046FDF7F0FD6069401C60612878401E0006000E2870E6D0306F8007E4D4A7
:206EE000F8BD0123E5E70122E7E7000008B51049602248600D2008720C204872087B104359
:206F000008730846FEF7ACF9FF2107310948FBF63EFE094802210171012141710A460449E1
:206F20000020C91E0090054BC81CFEF779FA08BD40C51000B61C1100B61D1100C99E100006
:206F400010B50122824014462046012103F052FE21460248FDF76AFC10BD000004C41000B2
:206F600010B50122824014462046012103F042FE21460248FDF75FFC10BD000004C41000AD
:206F800010B50248FDF75CFC10BD000004C4100010B501460148FDF756FC10BD04C41000B1
:206FA00070B515460C46FFF761F907494B6A8200064E4000B55003220830824093438440D6
:206FC0001C434C6270BD000000102020001A1100F3B581B00E460198FFF748F90E4F044658
:206FE0007D6A3046012600280AD00721019803F0F9FD3046A0401434A6403043054309E039
:207000000021019803F0EEFD3046A0401434A640304385437D62FEBD0010202010B504481E
:20702000FDF7D0FB0349102008600349086010BD04C4100080E200E000E100E010B5024842
:20704000FDF70CFC10BD000004C41000012110B581400248FDF7FDFB10BD000004C410000C
:2070600010B504460348FDF7F1FBE040C007C00F10BD000004C41000012110B58140024889
:20708000FDF7EFFB10BD000004C41000012110B581400248FDF7EAFB10BD000004C41000FD
:2070A00010B501460148FDF7E6FB10BD04C4100070B5184DAC6B1848844204D300221146EA
:2070C0000120FAF73BFC204603F0EEF8134CA17A461813493046FBF6D5FC11492722414395
:2070E000711A1201511A89B2002300290CD0A372084A4032506011600A4908200860296BB3
:2071000081430143296370BD11460122A272401CEEE7000000001020001BB70088F812005B
:20712000710200004010202010B50D4AD3680D4C23605063FF200F3090610420D060D0688B
:207140000006C00F05D0802090610346D0689843D060002902D10120FEF728FA10BD000067
:207160000000102048C3100070B586B02F48002101600224684604716A4601A90F2000F0AE
:2071800047FA002802D02A48694608806846047104AA01A90E2000F03BFA264D002801D0D1
:2071A000684605826846047102AA01A90D2000F02FFA002801D0684605816846008903F084
:2071C00091F886B26846008A03F08CF885B26846008803F087F884B2E80A04D000221146EB
:2071E0000120FAF7ABFBA00A04D0002211460120FAF7A4FB7005A90208430F492043C863DE
