:1000000080314328033401347E1480314E01191AA3
:100010000F1E0D288B31A32380314E01991A8F1E9C
:100020001B28400169164101B6018C3160248031E2
:100030008A31782280314E01961A8C1E22288B310B
:10004000DE2380317E01CA1C29284001E9147E018B
:10005000CA104A1D2F28400169147E014A11CA1E88
:100060003B28400169154101B101B2018A31782272
:1000700080317E01CA12551C41284001E9157E01DC
:1000800055107E10090080314528803103208031D1
:10009000EF004101803102208031DF0057308400C1
:1000A0000030850017308A3182228031A0308400F0
:1000B0000030850021308A31822280312030840056
:1000C0000130850028308A3182227E104001813142
:1000D0005F2940012A08B0002B08B1002C08B200AB
:1000E0000310310D320DB3003308B6002D08B000F7
:1000F0002E08B1002F08B2000310310D320DB300ED
:100100003308B5003608031991283508360203185C
:1001100098283603FF3A3507B00019303002031C27
:1001200098282D08AA002E08AB002F08AC00080064
:10013000350803190800360835020318A7283503C7
:10014000FF3A3607B00019303002031808000630B5
:10015000B0003008B400AC1BB417AF1B3417AB179A
:10016000FF30AA05FF30AB050030AC05AE17FF30FD
:10017000AD05FF30AE050030AF0535083602031877
:10018000E3280130AD35AE0DAF0D890BC22801302B
:10019000B502350836060319DE280130B4023408EA
:1001A00007390319DE28C1280130AC36AB0CAA0C84
:1001B000890BD5280130B0003008B607360835065F
:1001C00003190829D42836083502031808290130F4
:1001D000AA35AB0DAC0D890BE8280130B602350805
:1001E0003606031904290130B4023408073903190B
:1001F0000429E7280130AF36AE0CAD0C890BFB2883
:100200000130B0003008B50736083506031DFA285E
:10021000B41F1A29FF30AA06FF30AB06FF30AC0628
:100220000130AA07003003180130AB070030031873
:100230000130AC07341F2C29FF30AD06FF30AE066D
:10024000FF30AF060130AD07003003180130AE07B4
:10025000003003180130AF07B4012A08AD072B089E
:10026000AE3D2C08AF3DAF1F4729FF30AD06FF3034
:10027000AE06FF30AF060130AD0700300318013085
:10028000AE07003003180130AF07B401B40A2D08DF
:10029000F0002E08F1002F08F2003608B0003008F8
:1002A000F3003408B1003108F4008631ED267008FF
:1002B0004001AA007108AB007208AC0008008B3145
:1002C000562381313A2A40016908031D6A298A317F
:1002D000752281314101DF01DF0A0230DE005E0854
:1002E0004001EF003A2A8D315A258131003A031935
:1002F0008C298F312A278131003A03198C29223029
:100300008C31D224813177308C31D224813141013A
:10031000AB01AC01DF01372A463041012C025030DD
:1003200003192B02031C9F2922308C31D2248131E6
:1003300044308C31D22481314101AB01AC01400108
:10034000691DC1298A3188228131003A031DB829EB
:100350000130410132022C3003193102031CC12942
:1003600022308C31D224813188308C31D2248131B9
:10037000FB304101DE005E084001E9054101B101A9
:10038000B2014001E91DD62941015F030319D029BB
:1003900022308C31D224813155308C31D2248131BC
:1003A000F7304101DE005E084001E90569080339C4
:1003B0000319062A8A31CF228131023A0319002A11
:1003C0008A31CF228131003A031D062A02304001D2
:1003D0006F06031DFC294101AB01AC018A31A0224B
:1003E00081318A317D22813122308C31D224813198
:1003F00066308C31D22481314101DF014001EF01AF
:10040000FC304101DE005E084001E9054001691E43
:100410002F2A863118268131003A0319202A8B3180
:100420002D2381318731FC2781314101B6012230F2
:100430008C31D224813199308C31D2248131292AD6
:100440000A3041013602031C2F2AB6018731FC27EE
:100450008131EF304101DE005E084001E9054001D5
:100460006908031D3A2A41015F03031D3A2A40012E
:10047000EF01EF0A40016F08003A03197329013AAE
:1004800003196329033A03199F293A2A3A2A40019A
:10049000CD004D088C311D24823179084001E700E0
:1004A0007808E60055308C31842482314001670899
:1004B0008C3184248231400166088C31842482315D
:1004C000AA308C318424823140016708F900660823
:1004D000F8008B31FD23823178084001CE00790885
:1004E000CF007A08D00041012F094001CA00410124
:1004F00030094001CB00CA0A0319CB0A66084A0733
:10050000F00067084B3DF1008A31C1228231710849
:10051000803A4001CC0080304C02031D912A0B3000
:1005200070020318BB2A40016808031D9B2A670854
:10053000E5006608E4000130CA004A08E8076409DB
:10054000CA006509CB00CA0A0319CB0A66084A0724
:10055000F00067084B3DF1008A31C12282317108F9
:10056000803A4001CC0080304C02031DB92A0B3088
:100570007002031CBD2A4001E801400167084101E7
:10058000B000400166084101AF00643040016802DC
:10059000031CE62A5A308C318424823140016708DA
:1005A0008C3184248231400166088C31842482316C
:1005B000A5308C3184248231400167084101AE00AE
:1005C000400166084101AD004001E8010030B7007C
:1005D0000330B8004330B9004E08AA004F08AB0002
:1005E0005008AC0041012E08F9002D08F8008B31AD
:1005F000FD23823178084001A0007908A1007A0823
:10060000A2008A319722823140012008AD002108E2
:10061000AE002208AF0080316920823140012A08F3
:10062000BA002B08BB002C08BC008331D823400142
:100630003708CE003808CF003908D0004E08C70070
:100640004F08C8005008C900080078084001A00001
:100650007908A1007A08A2000310210D220DA30041
:100660002308A4002408031D3C2B0030F8000030B0
:10067000F9000030FA0008007B08A0007C08A10007
:100680007D08A2000310210D220DA3002308A9005C
:100690002908031D522B0030F8000030F90000300B
:1006A000FA00080029087B3EA0002008A40778086B
:1006B000A0007908A1007A08A2001030A236A10C8F
:1006C000A00C890B5E2B2008A3002308A9007B083F
:1006D000A0007C08A1007D08A2001030A236A10C69
:1006E000A00C890B6E2B2008A3002308A9068030DC
:1006F000A0002008A905F917FC17FF30FB05FF3003
:10070000FC050030FD050030A5000030A6000030DB
:10071000A7000730A0002008A800781C952B7B08B4
:10072000A5077C08A63D7D08A73D0130FA36F90CE7
:10073000F80C890B962B0130FB35FC0DFD0D890B58
:100740009C2B0130A802031D8D2B0930A00020082E
:10075000A800781CB12B7B08A5077C08A63D7D0866
:10076000A73D0130FA36F90CF80C890BB22B013099
:10077000A736A60CA50C890BB82B0130A802031DC7
:10078000A92B2508F0002608F1002708F20024080C
:10079000A0002008F3002908A1002108F4008631F8
:1007A000ED267008F8007108F9007208FA000800D8
:1007B00040013A08BD003B08BE003C08BF000310E2
:1007C0003E0D3F0DC0004008C5004508031DEF2B3E
:1007D0000030B7000030B8000030B900080037081A
:1007E000BD003808BE003908BF0003103E0D3F0DA4
:1007F000C0004008C6004608031D052C0030B700A5
:100800000030B8000030B90008000030C2000030ED
:10081000C3000030C40089304607BD003D08C50252
:100820003A08BD003B08BE003C08BF001030BF3690
:10083000BE0CBD0C890B172C3D08C0004008C6003B
:100840003708BD003808BE003908BF001030BF3679
:10085000BE0CBD0C890B272C3D08C0004008C60605
:100860008030BD003D08C605BB17FF30BA05FF301C
:10087000BB050030BC05B817FF30B705FF30B80521
:100880000030B9051830BD003D08C1000130C23547
:10089000C30DC40D890B472C39083C02031D562C8F
:1008A00038083B02031D562C37083A02031C5F2C04
:1008B0003708BA023808BB3B3908BC3B4214013048
:1008C000BA35BB0DBC0D890B602C0130C102031D74
:1008D000462C4208F0004308F1004408F2004508A5
:1008E000BD003D08F3004608BE003E08F400863116
:1008F000ED2670084001B7007108B8007208B90011
:1009000008004530823147228431400147084101C7
:10091000A800400148084101A900400149084101DF
:10092000AA0000304001B7000030B8000030B90024
:10093000410128084001BA00410129084001BB00DB
:1009400041012A084001BC00BB30D1005108BD0064
:1009500087315127843141013B08F0003C08F10008
:100960003D08F20085311025843173084001DE0016
:100970007208DD007108DC007008DB000330BB3E4C
:1009800086008701403FF000413FF100423FF20006
:1009900085311025843173084001DA007208D900CE
:1009A0007108D8007008D70055308C318424843108
:1009B00040015B08D1005C08D2005D08D3005E08EE
:1009C000D4000830D500D437D30CD20CD10CD50BC1
:1009D000E32C51088C318424843140015B088C3134
:1009E0008424843140015708D1005808D2005908A6
:1009F000D3005A08D4000830D500D437D30CD20C19
:100A0000D10CD50BFD2C51088C318424843140014C
:100A100057088C3184248431AA308C318424080016
:100A20007008F4007108F5007208F6000310750DE7
:100A3000760DF7007708FD007D08031D282D003096
:100A4000F3000030F2000030F1000030F000080048
:100A50007008F4007108F5007208F6001730F636D9
:100A6000F50CF40C890B2F2D7408F7007708F800AB
:100A7000F117FF30F005FF30F1050030F205700886
:100A8000F9007108FA007208FB00FC018E30FD02CB
:100A9000FD1F662D7D08803A8F3E0318582D0030CB
:100AA000F3000030F2000030F1000030F0000800E8
:100AB0000130FC36FB0CFA0CF90C890B592D013076
:100AC000F4007408FD0703197F2D582D18307D029E
:100AD000031C7C2D0030F3000030F2000030F100E8
:100AE0000030F00008000130F935FA0DFB0DFC0D67
:100AF000890B742D0130FD027D08031D732D7808CC
:100B000003198D2DF909FA09FB09FC09F90A0319E2
:100B1000FA0A0319FB0A0319FC0A7C08F3007B0894
:100B2000F2007A08F1007908F00008004101CB01D9
:100B3000C41FA72DC109C209C309C409C10A0319E9
:100B4000C20A0319C30A0319C40ACB01CB0AC81F7E
:100B5000B82DC509C609C709C809C50A0319C60AB7
:100B60000319C70A0319C80A0130C9004908CB068E
:100B70000030CF000030CE000030CD000030CC007F
:100B800044084304420441040319012ECA01CA0A5D
:100B9000C41BD62D0130C135C20DC30DC40D890B48
:100BA000CB2D0130C9004908CA07C82D0130CC350A
:100BB000CD0DCE0DCF0D890BD72D44084802031D56
:100BC000EB2D43084702031DEB2D42084602031D8F
:100BD000EB2D41084502031CF62D4108C5024208D1
:100BE000C63B4308C73B4408C83B4C140130C436DD
:100BF000C30CC20CC10C890BF72D0130CA02031DB6
:100C0000D62D4B0803190F2ECC09CD09CE09CF09DB
:100C1000CC0A0319CD0A0319CE0A0319CF0A4F08CB
:100C2000C4004E08C3004D08C2004C08C1000800B3
:100C3000410139080319812E4E01991241013808EA
:100C4000031D2B2E3A08343E860001308700F53014
:100C500001060319322E38080319452E04303802D4
:100C60000318452E3A08343E8600013087000108FB
:100C7000C1003808203E860001308700410881000D
:100C80000130C1004108B807752E04303806031D35
:100C9000752E3A08343E8600013087005F30010629
:100CA000031D742E3A08343E860001308700010887
:100CB000C1003808203E86000130870041088100CD
:100CC0000130C1004108B807420121082206200670
:100CD0004101C1004108C20042012308410142060E
:100CE000031D742EB701B70AB8010130C1004108D5
:100CF000BA0714303A020318BA010130B9024E01A2
:100D0000991641013703031D872E0130080000307A
:100D1000080000304101DA000030D9000030D8006E
:100D20000030D700DB0132305B020318B52E4530AE
:100D30008C313E24863141014908D3004A08D40051
:100D40000030D41BFF30D500D6005308D707540815
:100D5000D83D5508D93D5608DA3D0130D300530837
:100D6000DB0732305B02031C972E5B08D300D401F3
:100D7000D501D6015608C4005508C3005408C20066
:100D80005308C1005A08C8005908C7005808C600CF
:100D90005708C50085319625863141014208AE00CD
:100DA0004108AD002E08B0002D08AF00300840010A
:100DB000E70041012F084001E600410130084001F1
:100DC000E50041012F084001E40055308C31D22468
:100DD0008631AA308C31D224080073080319F52E0D
:100DE000720871047004031D062F0030F0000030FB
:100DF000F1000030F20008000130F5007508F3073B
:100E00000130F236F10CF00C890B012FFE30720527
:100E100003191F2FFC2E0130F5007508F307013070
:100E2000F007003003180130F107003003180130DB
:100E3000F2070130F236F10CF00C890B1A2FFF305B
:100E4000720503192C2F0B2F0130F3020130F035FE
:100E5000F10DF20D890B272FF11B322F0230730297
:100E60000318242F73183A2FFF30F0057F30F10557
:100E7000FF30F2050310F30C7308F500F601F701DB
:100E80001030F535F60DF70D890B412F7508F0047C
:100E90007608F1047708F204740803190800F217C1
:100EA000080040013A08F0003B08F1003C08F2005D
:100EB000CD30F300CC30F4003D30F5008D31F92514
:100EC00087310318752FCD30F000CC30F100BD30E4
:100ED000F20040013A08F3003B08F4003C08F5003A
:100EE0008D31F9258731031C9B2F40015F08AA0033
:100EF0006008AB006108AC00D730F8002330F9007F
:100F00003C30FA003A08FB003B08FC003C08FD00BE
:100F100083312523873178084001AD007908AE0080
:100F20007A08AF008031692040012A08DF002B08D1
:100F3000E0002C08E10040013D08860087015F08C1
:100F4000C03F6008C13F6108C23F3D08033E8600C4
:100F500087013A08C03F3B08C13F3C08C23F080038
:100F60004101C200C401C501C30140018E11141624
:100F70004101C401C5014508803AC10080304102E9
:100F80000830031944020318E22F40018E150310A4
:100F90004101C30D40010E0E01394101C10041085C
:100FA000C30440018E1101304101C4070030C53D2A
:100FB0004508803AC10080304102083003194402DC
:100FC000031CC52FEF304101C100410840019405C9
:100FD000410142080319EF2F40010E12F12F400189
:100FE0000E160032003240018E15003200324001F0
:100FF0008E114101430808004101B701B801080002
:1014E4008B170B1708004B019E1308004B019E1B22
:1014F40008009E1708004B019E1B08009E17080059
:10150400640080010131890B832A003440018D1E5F
:101514008D2A01300800003008004F019601970120
:10152400980199019A019B010800400122082104B5
:101534002004031908008030A2060800003040018E
:10154400DF000030E0000030E1004101B501080097
:10155400603051018D008F0191010630930090019C
:10156400920108007B304B019F009E309D009C013E
:101574004E018C12961680304B019E000800F11F1C
:1015840008007009F2007109F300F20A0319F30A62
:101594007208F0007308F100080040018D180D1D59
:1015A400D52A023008008D18D92A0D1DDB2A0130F6
:1015B4000800003008004D3041019D0090309E002D
:1015C4009F019B019C018A30C100410852018C0497
:1015D400080040010E1200320032003240018E1524
:1015E40000320032003240010E1600320032003266
:1015F400080040010E1200320032003240018E1504
:1016040000320032003240010E1600320032003245
:10161400080040010E160032003240018E150032DF
:101624000032003240010E1200320032003240011A
:101634008E11080040010E160032003240018E1552
:1016440000320032003240010E1200320032003209
:1016540040018E110800362B01308E3170260800AF
:1016640002308E317026080042012108013A031924
:101674002E2B033A0319322B3F2B08004101C700DC
:101684008B311C238B31D0308F316B278B3141014F
:1016940047088F316B278B31410146088F316B2707
:1016A4008B318A31FB2208008A318F228B318D31B4
:1016B4008F258B318A31AA228B318B31C0238B3118
:1016C4008A31DD228B318F31B5278B318A31B422B7
:1016D4008B318A31722208004101C4004408C300DE
:1016E400C30DC30D1D084306033943069D001D1495
:1016F4000330890B7B2B000041019D149D18802B26
:101704001C08C2001B08C10008004101C501C60134
:10171400411C902B4308C5074408C63D0130C3351E
:10172400C40D890B912B0130C236C10C890B962B49
:1017340041084204031D8A2B4608C2004508C10023
:101744000800083040016E020318BD2B6C08A03E4F
:1017540086008701010842019A000130F0007008F8
:101764004001EC0708306C020318EC010130F00072
:101774007008EE0708004E01191208004E01991274
:101784001912483042019F0090309D0024309E0081
:1017940044309B009C014001ED01EC010830410103
:1017A400C10041084001EE00EB014101BA01B90159
:1017B400B8014E01991608004E018C124001691DB2
:1017C400E82B01304101B1070030B23D40016F0800
:1017D400031DF42B01304101AB070030AC3D8431D3
:1017E40081248B314001691E08000130D60056085F
:1017F4004101B6070800FD01F91F072CF809F90992
:10180400F80A0319F90AFD01FD0A7808F0007908BD
:10181400F100F2018E30FB007B08F3007D08FC0030
:101824007C08F4008631ED267008F8007108F90090
:101834007208FA000800FC007C088C31AA248C3160
:101844004001A0002008FA007C08013E8C31AA2443
:101854004001A0002008FB007B08A000A1017A0839
:10186400A200A3012208A300A20120082207F80075
:101874002108233DF90008004101D20052088C31AF
:10188400FD248C314101CB004B08D0005208013EAD
:101894008C31FD244101CB004B08D1005108CB0011
:1018A400CC015008CD00CE014D08CE00CD014B082F
:1018B4004D07C9004C084E3DCA00080042019D1C5A
:1018C400652C9D139D179F1C6C2C1908F000700843
:1018D400F10008001908F00040016B08343E86004E
:1018E40001308700700881000130F0007008EB07B8
:1018F40014306B020318EB010130F0007008410151
:10190400B9070800F10040016E080319852C420153
:101914009E1C892C4E01191A932C710842019A00BD
:10192400080019127108F00040016D08A03E8600FD
:101934008701700881000130F0007008ED0708305D
:101944006D020318ED010130EE024E011916080074
:10195400F600F7018B310B238C31D0308E31AC265D
:101964008C31F5007508F70076088E31AC268C3181
:10197400F5007508F7008B310B238C31D1308E3193
:10198400AC268C31F5007508F70000308E31EA265C
:101994008C31F5007508F7008A31EB2277080800CE
:1019A4004101C20040016E080319D42C42019E1C5F
:1019B400D82C4E01191AE32C4101420842019A0025
:1019C4000800191241014208C10040016D08A03EFF
:1019D400860087014101410881000130C1004108AE
:1019E4004001ED0708306D020318ED010130EE02ED
:1019F4004E01191608004101C700C8018B311C2390
:101A04008C31D0308F316B278C314101C6004608B0
:101A1400C80047088F316B278C314101C600460846
:101A2400C8008B311C238C31D1308F316B278C3122
:101A34004101C6004608C80000308731B0278C3108
:101A44004101C6004608C8008A31FB22410148080A
:101A540008003F308B316E238D3141014208D100A3
:101A64004108D00008308B316E238D31410142088A
:101A7400D3004108D2005108C8005008C7005308D9
:101A8400C2005208C100CD30C3000030C4008B3105
:101A940087238D3141014208CA004108C9008D31B4
:101AA400C42541014708CF004F08D400540808005A
:101AB40040015F084101C100400160084101C200CA
:101AC400400161084101C3000030C4002030C5005A
:101AD4004130C6008E3134268D310318892D0030F3
:101AE4004101C1002030C200C130C30040015F0881
:101AF4004101C400400160084101C5004001610882
:101B04004101C6008E3134268D31031C8C2D4101D8
:101B1400B501B50A41013508080040019801990151
:101B24009A01920127309300A130940096017E011E
:101B3400B8010130C300CE01E5012630C400B9016B
:101B44000130CF00BA01C501D0017D014B08C03975
:101B54001738CB000F307E01A60040010E15183057
:101B64004101C100410840018D0418304101C10008
:101B740041087E01D004C9144915C91654144E01F4
:101B8400161608004101CC01CD0147084804031989
:101B9400F42DCE01CE0AC81BD92D0130C735C80D8E
:101BA400890BD02D0130CB004B08CE07CD2D013051
:101BB400CC35CD0D890BDA2D48084A02031DE42DDE
:101BC40047084902031CEB2D4708C9024808CA3BD1
:101BD4004C140130C836C70C890BEC2D0130CE02F1
:101BE400031DD92D4D08C8004C08C7000800F21F7A
:101BF4000F2E7009F6007109F7007209F800F60A51
:101C04000319F70A0319F80A00307607F0000030C8
:101C1400773DF1008030783DF200F51F252E7309E1
:101C2400F6007409F7007509F800F60A0319F70AB3
:101C34000319F80A00307607F3000030773DF4000A
:101C44008030783DF5008030F2068030F506750866
:101C54007202031D080074087102031D0800730852
:101C6400700208004101C31F4B2E4109C7004209FD
:101C7400C8004309C900C70A0319C80A0319C90AD5
:101C840000304707C1000030483DC2008030493D64
:101C9400C300C61F612E4409C7004509C800460990
:101CA400C900C70A0319C80A0319C90A003047073B
:101CB400C4000030483DC5008030493DC600803036
:101CC400C3068030C60646084302031D08004508C3
:101CD4004202031D08004408410208004101D600E5
:101CE400F530D5005508A000872EA101A10AA20154
:101CF4008F2E0230D5005508A1008D312B258E3151
:101D04004101D5005508A2008F2E5608013A031947
:101D1400772E033A03197B2E8F2E210822062006E4
:101D2400D5005508A3005F30D5005508A400D7019D
:101D340005305702031808005708A03E86008701A3
:101D440001088C31D2248E3101304101D50055086F
:101D5400D7079A2EF100F301F401F301F40174089A
:101D6400803AF000803070020830031973020318BF
:101D7400D32E40018E11F11FC12E0E16C22E0E124B
:101D84000310F10D0130F3070030F43D8E15740893
:101D9400803AF00080307002083003197302031C8B
:101DA400BB2E40018E111416003200320032003274
:101DB40040018E1500320032003040010E1A01300D
:101DC400F2008E11EF30F0007008940572080800DC
:101DD400F100F301F401F20140018E111416F30134
:101DE400F4017408803AF00080307002083003195E
:101DF40073020318152F40018E150310F20D0E0EF9
:101E04000139F0007008F2048E110130F30700303C
:101E1400F43D7408803AF0008030700208300319F1
:101E24007302031CFD2EEF30F0007008400194058E
:101E3400710803191F2F0E12202F0E1600320032C4
:101E440040018E150032003240018E1172080800E4
:101E540000304101C100A030C2004030C300400145
:101E64005F084101C400400160084101C500400110
:101E740061084101C6008E3134268F31031C5F2F67
:101E840040015F084101C100400160084101C200F6
:101E9400400161084101C3000030C400A030C50006
:101EA400C030C6008E3134268F31031C5F2F0130C1
:101EB4004101CA004A08B307622F4101B301B401CA
:101EC40032303302031C692FB301B401B40A34085D
:101ED40008004101C200C401C501C401C50145088F
:101EE400803AC100803041020830031944020318CB
:101EF400992F40018E114101C21F832F40010E16FC
:101F0400852F40010E1203104101C20D0130C40798
:101F14000030C53D40018E1541014508803AC1009D
:101F240080304102083003194402031C7B2F400116
:101F34008E111416003200320032003240018E1528
:101F440000320032003040010E1A01304101C3005A
:101F540040018E11EF304101C10041084001940558
:101F640041014308080009304101DD001E30DC0056
:101F7400E430890BBB2FDC0BBB2FDD0BBB2F000028
:101F840075308C31FD248F31703A031D08004101F6
:101F9400C6016B308B3140238F3107304101DC00A7
:101FA4005C08C60019308B3140238F310630410163
:101FB400DC005C08C6001A308B3140238F314101AC
:101FC400C6011B308B3140238F313D304101DC0091
:101FD4005C08C6006C308B3140238F3109304101DD
:101FE400DD001E30DC00E430890BF62FDC0BF62F0D
:0C1FF400DD0BF62F000086318926080066
:020000040001F9
:0A000E00EC3FFF37AD07FF3FFF3F57
:00000001FF
