:0400000080313C28E7
:100008007E1480314E01191A0F1E0D288D311B25C3
:1000180080314E01991A8F1E14288D31792580312F
:100028004E01961A8C1E1B288C31D32480317E01F8
:10003800CA1C22284001E6147E01CA104A1D28283D
:10004800400166147E014A11CA1E34284001661513
:100058004101BB01BC018C311C2480317E01CA12D4
:10006800551C3A284001E6157E0155107E100900FE
:1000780080313E288731FE278031ED0041018731EC
:10008800FF278031E40056308400003085001630A8
:100098008C312B248031A03084000030850026303C
:1000A8008C312B247E10400182312E2A40012A08EF
:1000B800B0002B08B1002C08B2000310310D320D2E
:1000C800B3003308B6002D08B0002E08B1002F0881
:1000D800B2000310310D320DB3003308B5003608F5
:1000E8000319822835083602031889283603FF3A8F
:1000F8003507B00019303002031C89282D08AA00E2
:100108002E08AB002F08AC000800350803190800BA
:1001180036083502031898283503FF3A3607B00029
:1001280019303002031808000630B0003008B40057
:10013800AC1BB417AF1B3417AB17FF30AA05FF3041
:10014800AB050030AC05AE17FF30AD05FF30AE058E
:100158000030AF05350836020318D4280130AD3514
:10016800AE0DAF0D890BB3280130B5023508360640
:100178000319CF280130B402340807390319CF28EE
:10018800B2280130AC36AB0CAA0C890BC62801305A
:10019800B0003008B607360835060319F928C5280F
:1001A800360835020318F9280130AA35AB0DAC0D15
:1001B800890BD9280130B602350836060319F52807
:1001C8000130B402340807390319F528D82801305A
:1001D800AF36AE0CAD0C890BEC280130B0003008FE
:1001E800B50736083506031DEB28B41F0B29FF3069
:1001F800AA06FF30AB06FF30AC060130AA07003074
:1002080003180130AB07003003180130AC07341F66
:100218001D29FF30AD06FF30AE06FF30AF060130B6
:10022800AD07003003180130AE0700300318013065
:10023800AF07B4012A08AD072B08AE3D2C08AF3D27
:10024800AF1F3829FF30AD06FF30AE06FF30AF06CE
:100258000130AD07003003180130AE070030031835
:100268000130AF07B401B40A2D08F0002E08F100E0
:100278002F08F2003608B0003008F3003408B10047
:100288003108F4008631502670084001AA00710830
:10029800AB007208AC0008004001CD004D088D315C
:1002A8005825813179084001E4007808E300553089
:1002B8008D31BD258131400164088D31BD258131E5
:1002C800400163088D31BD258131AA308D31BD25AE
:1002D800813140016408F9006308F8008D31382540
:1002E800813178084001CE007908CF007A08D00023
:1002F800410139094001CA0041013A094001CB00D6
:10030800CA0A0319CB0A63084A07F00064084B3D80
:10031800F1008C31602481317108803A4001CC00B1
:1003280080304C02031D9A290B3070020318C4292F
:1003380040016508031DA4296408E2006308E10080
:100348000130CA004A08E5076109CA006209CB0002
:10035800CA0A0319CB0A63084A07F00064084B3D30
:10036800F1008C31602481317108803A4001CC0061
:1003780080304C02031DC2290B307002031CC629B1
:100388004001E501400164084101BA0040016308E9
:100398004101B900643040016502031CEF295A305D
:1003A8008D31BD258131400164088D31BD258131F4
:1003B800400163088D31BD258131A5308D31BD25C2
:1003C8008131400164084101B800400163084101DE
:1003D800B7004001E5010030B7000330B8004330F2
:1003E800B9004E08AA004F08AB005008AC00410104
:1003F8003808F9003708F8008D3138258131780838
:100408004001A0007908A1007A08A2008C3140249C
:10041800813140012008AD002108AE002208AF005C
:1004280080315A20813140012A08BA002B08BB00CC
:100438002C08BC008331AC2340013708CE003808B3
:10044800CF003908D0004E08C7004F08C800500830
:10045800C90008008C31BE248231EC2A40016608AC
:10046800031D452A22308E310B26823133308E31DE
:100478000B2682318C31282482318C311F24823121
:1004880063004101E401E40A0230E300630840012B
:10049800ED00EC2A8E3195268231003A0319672A3D
:1004A8008F31BF278231003A0319672A22308E31F3
:1004B8000B26823177308E310B2682314101B5010E
:1004C800B601E401E92A46304101360250300319E9
:1004D8003502031C7A2A22308E310B2682314430B1
:1004E8008E310B2682314101B501B6014001661DEE
:1004F8009C2A8C3131248231003A031D932A013021
:1005080041013C022C3003193B02031C9C2A223077
:100518008E310B26823188308E310B268231FB30AA
:100528004101E30063084001E6054101BB01BC014C
:100538004001E61DB12A410164030319AB2A2230A8
:100548008E310B26823155308E310B268231F730B1
:100558004101E30063084001E60566080339031911
:10056800E12A8C316E248231023A0319DB2A8C315C
:100578006E248231003A031DE12A023040016D06E3
:10058800031DD72A4101B501B6018C3149248231B6
:100598008C312524823122308E310B26823166300F
:1005A8008E310B2682314101E4014001ED01FC301E
:1005B8004101E30063084001E60540016608031DA8
:1005C800EC2A41016403031DEC2A4001ED01ED0A08
:1005D80040016D08003A03194E2A013A0319322ADC
:1005E800033A03197A2AEC2AEC2A78084001A00079
:1005F8007908A1007A08A2000310210D220DA3009A
:100608002308A4002408031D102B0030F800003034
:10061800F9000030FA0008007B08A0007C08A1005F
:100628007D08A2000310210D220DA3002308A900B4
:100638002908031D262B0030F8000030F90000308F
:10064800FA00080029087B3EA0002008A4077808C3
:10065800A0007908A1007A08A2001030A236A10CE7
:10066800A00C890B322B2008A3002308A9007B08C3
:10067800A0007C08A1007D08A2001030A236A10CC1
:10068800A00C890B422B2008A3002308A906803060
:10069800A0002008A905F917FC17FF30FB05FF305B
:1006A800FC050030FD050030A5000030A600003034
:1006B800A7000730A0002008A800781C692B7B0839
:1006C800A5077C08A63D7D08A73D0130FA36F90C40
:1006D800F80C890B6A2B0130FB35FC0DFD0D890BDD
:1006E800702B0130A802031D612B0930A0002008DF
:1006F800A800781C852B7B08A5077C08A63D7D08EB
:10070800A73D0130FA36F90CF80C890B862B01301D
:10071800A736A60CA50C890B8C2B0130A802031D4B
:100728007D2B2508F0002608F1002708F200240890
:10073800A0002008F3002908A1002108F400863150
:1007480050267008F8007108F9007208FA000800CD
:1007580040013A08BD003B08BE003C08BF0003103A
:100768003E0D3F0DC0004008C5004508031DC32BC2
:100778000030B7000030B8000030B9000800370872
:10078800BD003808BE003908BF0003103E0D3F0DFC
:10079800C0004008C6004608031DD92B0030B7002A
:1007A8000030B8000030B90008000030C200003046
:1007B800C3000030C40089304607BD003D08C502AB
:1007C8003A08BD003B08BE003C08BF001030BF36E9
:1007D800BE0CBD0C890BEB2B3D08C0004008C600C1
:1007E8003708BD003808BE003908BF001030BF36D2
:1007F800BE0CBD0C890BFB2B3D08C0004008C6068B
:100808008030BD003D08C605BB17FF30BA05FF3074
:10081800BB050030BC05B817FF30B705FF30B80579
:100828000030B9051830BD003D08C1000130C2359F
:10083800C30DC40D890B1B2C39083C02031D2A2C3F
:1008480038083B02031D2A2C37083A02031C332CB4
:100858003708BA023808BB3B3908BC3B42140130A0
:10086800BA35BB0DBC0D890B342C0130C102031DF8
:100878001A2C4208F0004308F1004408F200450829
:10088800BD003D08F3004608BE003E08F40086316E
:10089800502670084001B7007108B8007208B90006
:1008A8000800453081315021843140014708410119
:1008B800B000400148084101B10040014908410128
:1008C800B20000304001B7000030B8000030B90075
:1008D800410130084001BA00410131084001BB0024
:1008E800410132084001BC00C030D1005108BD00B0
:1008F8008631B426843141014008F0004108F100F6
:100908004208F2008431E424843173084001DD0098
:100918007208DC007108DB007008DA000330C03EA2
:1009280086008701403FF000413FF100423FF2005E
:100938008431E424843173084001D9007208D80056
:100948007108D7007008D60055308D31BD25843127
:1009580040015A08D1005B08D2005C08D3005D084A
:10096800D4000830D500D437D30CD20CD10CD50B19
:10097800B72C51088D31BD25843140015A088D317D
:10098800BD25843140015608D1005708D2005808C7
:10099800D3005908D4000830D500D437D30CD20C72
:1009A800D10CD50BD12C51088D31BD258431400196
:1009B80056088D31BD258431AA308D31BD250800FA
:1009C8007008F4007108F5007208F6000310750D40
:1009D800760DF7007708FD007D08031DFC2C00301C
:1009E800F3000030F2000030F1000030F0000800A1
:1009F8007008F4007108F5007208F6001730F63632
:100A0800F50CF40C890B032D7408F7007708F8002F
:100A1800F117FF30F005FF30F1050030F2057008DE
:100A2800F9007108FA007208FB00FC018E30FD0223
:100A3800FD1F3A2D7D08803A8F3E03182C2D00307B
:100A4800F3000030F2000030F1000030F000080040
:100A58000130FC36FB0CFA0CF90C890B2D2D0130FA
:100A6800F4007408FD070319532D2C2D18307D024E
:100A7800031C502D0030F3000030F2000030F1006C
:100A88000030F00008000130F935FA0DFB0DFC0DBF
:100A9800890B482D0130FD027D08031D472D78087C
:100AA8000319612DF909FA09FB09FC09F90A031967
:100AB800FA0A0319FB0A0319FC0A7C08F3007B08ED
:100AC800F2007A08F1007908F00008004101D0012D
:100AD800C91F7B2DC609C709C809C909C60A031950
:100AE800C70A0319C80A0319C90AD001D00ACD1FB9
:100AF8008C2DCA09CB09CC09CD09CA0A0319CB0A1E
:100B08000319CC0A0319CD0A0130CE004E08D006CD
:100B18000030D4000030D3000030D2000030D100C3
:100B280049084804470446040319D52DCF01CF0AC4
:100B3800C91BAA2D0130C635C70DC80DC90D890BB3
:100B48009F2D0130CE004E08CF079C2D0130D135A6
:100B5800D20DD30DD40D890BAB2D49084D02031DC1
:100B6800BF2D48084C02031DBF2D47084B02031D2B
:100B7800BF2D46084A02031CCA2D4608CA02470868
:100B8800CB3B4808CC3B4908CD3B51140130C93612
:100B9800C80CC70CC60C890BCB2D0130CF02031D26
:100BA800AA2D50080319E32DD109D209D309D40974
:100BB800D10A0319D20A0319D30A0319D40A54080B
:100BC800C9005308C8005208C7005108C6000800E9
:100BD80000304101DF000030DE000030DD00003071
:100BE800DC00E001323060020318182E45308D31E8
:100BF8009B25853141014E08D8004F08D9000030A7
:100C0800D91BFF30DA00DB005808DC075908DD3D46
:100C18005A08DE3D5B08DF3D0130D8005808E00780
:100C280032306002031CFA2D6008D800D901DA01BD
:100C3800DB015B08C9005A08C8005908C7005808F2
:100C4800C6005F08CD005E08CC005D08CB005C08DC
:100C5800CA0085316A25853141014708B800460830
:100C6800B7003808BA003708B9003A084001E4006C
:100C7800410139084001E30041013A084001E2001E
:100C8800410139084001E10055308E310B2685318C
:100C9800AA308E310B26080073080319582E7208E3
:100CA80071047004031D692E0030F0000030F1005B
:100CB8000030F20008000130F5007508F307013034
:100CC800F236F10CF00C890B642EFE307205031914
:100CD800822E5F2E0130F5007508F3070130F0070A
:100CE800003003180130F107003003180130F20713
:100CF8000130F236F10CF00C890B7D2EFF307205B5
:100D080003198F2E6E2E0130F3020130F035F10DEC
:100D1800F20D890B8A2EF11B952E023073020318EF
:100D2800872E73189D2EFF30F0057F30F105FF30B8
:100D3800F2050310F30C7308F500F601F701103003
:100D4800F535F60DF70D890BA42E7508F004760815
:100D5800F1047708F204740803190800F217080070
:100D680040013A08F0003B08F1003C08F200CD30A1
:100D7800F300CC30F4003D30F5008E31CA268631C0
:100D88000318D82ECD30F000CC30F100BD30F20081
:100D980040013A08F3003B08F4003C08F5008E31A6
:100DA800CA268631031CFE2E40015E08AA005F0891
:100DB800AB006008AC00D730F8002330F9003C30B5
:100DC800FA003A08FB003B08FC003C08FD008231B1
:100DD800F922863178084001AD007908AE007A081A
:100DE800AF0080315A2040012A08DE002B08DF00BE
:100DF8002C08E00040013D08860087015E08C03FDE
:100E08005F08C13F6008C23F3D08033E8600870176
:100E18003A08C03F3B08C13F3C08C23F08004101B7
:100E2800C700C901CA01C80140018E111416410149
:100E3800C901CA014A08803AC60080304602083013
:100E4800031949020318452F40018E15031041016B
:100E5800C80D40010E0E01394101C6004608C804FC
:100E680040018E1101304101C9070030CA3D4A08CE
:100E7800803AC60080304602083003194902031C34
:100E8800282FEF304101C600460840019405410172
:100E980047080319522F40010E12542F40010E1615
:100EA8000032003240018E150032003240018E11AE
:100EB80041014808080009304101E2001E30E10004
:100EC800E430890B652FE10B652FE20B652F0000DD
:100ED80075308E3136268731703A031D080041017E
:100EE800CB016B308C31E924873107304101E100B7
:100EF8006108CB0019308C31E92487310630410173
:100F0800E1006108CB001A308C31E92487314101B6
:100F1800CB011B308C31E92487313D304101E100A0
:100F28006108CB006C308C31E924873109304101EC
:100F3800E2001E30E100E430890BA02FE10BA02F66
:100F4800E20BA02F00008531EC2508004101C70005
:100F5800C901CA01C901CA014A08803AC6008030DD
:100F680046020830031949020318D82F40018E1190
:100F78004101C71FC22F40010E16C42F40010E1297
:100F880003104101C70D0130C9070030CA3D4001B7
:100F98008E1541014A08803AC60080304602083062
:100FA80003194902031CBA2F40018E11141600328E
:100FB80000320032003240018E150032003200301B
:100FC80040010E1A01304101C80040018E11EF3076
:100FD8004101C6004608400194054101480808003F
:100FE800603051018D008F0191010630930090010E
:080FF8009201080001340334EA
:101838004B019E17080042019F1408008B170B17D5
:1018480008004B019E1708004B019E130800640016
:1018580080010131890B2C2C003440018D1E362C5F
:1018680001300800003008004F01960197019801E7
:1018780099019A019B0108004001220821042004D3
:10188800031908008030A206080000304001DE007D
:101898000030DF000030E0004101BF0108007B306C
:1018A8004B019F009E309D009C014E018C129616A4
:1018B80080304B019E000800F11F08007009F200FB
:1018C8007109F300F20A0319F30A7208F0007308A9
:1018D800F100080040018D180D1D742C023008001D
:1018E8008D18782C0D1D7A2C013008000030080066
:1018F80040010E1200320032003240018E150032D3
:101908000032003240010E16003200320032080068
:1019180040010E1200320032003240018E150032B2
:101928000032003240010E16003200320032080048
:1019380040010E160032003240018E15003200328E
:10194800003240010E1200320032003240018E1186
:10195800080040010E160032003240018E15003298
:101968000032003240010E120032003200324001D3
:101978008E1108008C3138248C318E3164268C31DC
:101988008731F4278C318C31FF248C3187315F27E4
:101998008C318C3153248C318C31222408004E0137
:1019A8008C124001661DDD2C01304101BB0700305F
:1019B800BC3D40016D08031D080001304101B50719
:1019C8000030B63D8431552408004101CC008C31EB
:1019D800AD248C31D0308731AA278C3141014C0895
:1019E8008731AA278C3141014B088731AA278C31CE
:1019F8008C318C2408004E0199121912483042018A
:101A08009F0090309D0024309E0044309B009C0134
:101A18004001EB01EA0108304101C60046084001D7
:101A2800EC00E901E801E7014E01991608000830C9
:101A380040016C020318352D6A08A83E860087010C
:101A4800010842019A000130F00070084001EA07DD
:101A580008306A020318EA010130F0007008EC0748
:101A680008004E0119120800FD01F91F422DF8095E
:101A7800F909F80A0319F90AFD01FD0A7808F000C6
:101A88007908F100F2018E30FB007B08F3007D0835
:101A9800FC007C08F400863150267008F8007108B4
:101AA800F9007208FA000800FC007C088D31E32573
:101AB8008D314001A0002008FA007C08013E8D31DC
:101AC800E3254001A0002008FB007B08A000A1013D
:101AD8007A08A200A3012208A300A2012008220775
:101AE800F8002108233DF900080042019D1C7E2DC5
:101AF8009D139D179F1C852D1908F0007008F10093
:101B080008001908F00040016908A03E8600870116
:101B1800700881000130F0007008E9070830690298
:101B28000318E9010130F0007008E70708004101D7
:101B3800D70057088E3136268D314101D000500824
:101B4800D5005708013E8E3136264101D000500895
:101B5800D6005608D000D1015508D200D30152084A
:101B6800D300D20150085207CE005108533DCF0090
:101B78000800F10040016C080319BE2D42019E1CAB
:101B8800C22D4E01191ACC2D710842019A00080085
:101B980019127108F00040016B08A83E8600870101
:101BA800700881000130F0007008EB0708306B0204
:101BB8000318EB010130EC024E0119160800F6007B
:101BC800F7018C319C248D31D0308F3141278D31F4
:101BD800F5007508F70076088F3141278D31F5003B
:101BE8007508F7008C319C248D31D1308F31412715
:101BF8008D31F5007508F70000308F317F278D3162
:101C0800F5007508F7008C317C247708080041013D
:101C1800C70040016C0803190D2E42019E1C112EAD
:101C28004E01191A1C2E4101470842019A0008006A
:101C3800191241014708C60040016B08A83E8600FA
:101C480087014101460881000130C600460840016D
:101C5800EB0708306B020318EB010130EC024E0170
:101C6800191608004101CC00CD018C31AD248E310C
:101C7800D0308731AA278E314101CB004B08CD00E7
:101C88004C088731AA278E314101CB004B08CD0083
:101C98008C31AD248E31D1308731AA278E31410164
:101CA800CB004B08CD000030873113278E3141011E
:101CB800CB004B08CD008C318C2441014D08080025
:101CC8004001980199019A01FC309200E730930095
:101CD800A7309400FC307E01B800C130C300063044
:101CE800CE00E5012630C400B9010130CF00BA01A9
:101CF800C501D0017D014B08C0391738CB000F3022
:101D08007E01A60040010E1518304101C6004608A4
:101D18007E01D004C9144915C91654144E0116166B
:101D2800080040015E084101C60040015F0841010A
:101D3800C700400160084101C8000030C9002030D8
:101D4800CA004130CB008F3105278E310318C42ECD
:101D580000304101C6002030C700C130C800400132
:101D68005E084101C90040015F084101CA00400105
:101D780060084101CB008F3105278E31031CC72E27
:101D88004101BF01BF0A41013F080800F21FE02ED0
:101D98007009F6007109F7007209F800F60A0319CC
:101DA800F70A0319F80A00307607F0000030773D8B
:101DB800F1008030783DF200F51FF62E7309F60029
:101DC8007409F7007509F800F60A0319F70A0319E8
:101DD800F80A00307607F3000030773DF4008030D1
:101DE800783DF5008030F2068030F50675087202FD
:101DF800031D080074087102031D080073087002AF
:101E080008004101C81F1C2F4609CC004709CD0016
:101E18004809CE00CC0A0319CD0A0319CE0A0030AE
:101E28004C07C60000304D3DC70080304E3DC8000D
:101E3800CB1F322F4909CC004A09CD004B09CE00EF
:101E4800CC0A0319CD0A0319CE0A00304C07C90081
:101E580000304D3DCA0080304E3DCB008030C80672
:101E68008030CB064B084802031D08004A08470289
:101E7800031D0800490846020800F100F301F401B7
:101E8800F301F4017408803AF000803070020830E1
:101E9800031973020318682F40018E11F11F562F82
:101EA8000E16572F0E120310F10D0130F3070030F4
:101EB800F43D8E157408803AF000803070020830C6
:101EC80003197302031C502F40018E11141600329F
:101ED80000320032003240018E15003200320030EC
:101EE80040010E1A0130F2008E11EF30F000700838
:101EF800940572080800F100F301F401F2014001B1
:101F08008E111416F301F4017408803AF000803041
:101F180070020830031973020318AA2F40018E15A6
:101F28000310F20D0E0E0139F0007008F2048E1144
:101F38000130F3070030F43D7408803AF000803037
:101F48007002083003197302031C922FEF30F0005F
:101F580070084001940571080319B42F0E12B52FAB
:101F68000E160032003240018E1500320032400158
:101F78008E117208080000304101C600A030C70069
:101F88004030C80040015E084101C90040015F08B7
:101F98004101CA00400160084101CB008F3105278B
:101FA8008F31031CF42F40015E084101C600400137
:101FB8005F084101C700400160084101C8000030C6
:101FC800C900A030CA00C030CB008F3105278F313F
:101FD800031CF42F01304101CF004F08BD07F72F34
:101FE8004101BD01BE0132303D02031CFE2FBD017F
:081FF800BE01BE0A3E0808000C
:020000040001F9
:0A000E00EC3FFF37AD07FF3FFF3F57
:00000001FF
