S01E000052414D436F646553706563696669635F52656C656173652E6D6F74C2
S11300009905D505F1050B0637063F0641060000A4
S11300105E4801210166FF2101607047F3B48368E3
S11300205B496A4612795824624389180022594C64
S1130030A34206D9CD692C43CC61574C1B190093BC
S113004007E0CC691B051B0D240B24031C43CC6166
S11300500092C3681E0B77077F0F08D0022F01D0D0
S113006002D306E0022403E00024022501E0002478
S113007000253605C027BF033740BC469E09B70399
S1130080E02676023E4067463E43B4465E0AF702E7
S1130090E026B6013E4067463E432406E70BC024F3
S11300A0E4003C4034432D066E0CC0256D00354001
S11300B025431E01702434402C43DB085B000E25CD
S11300C01D4025438D610A64C268D30CDB02F02411
S11300D0E4011C40D20BD201F023DB001340234384
S11300E002221A434A6402680A6040688860012058
S11300F06946097988408106890E0002FC22920132
S113010002400A43254802600098F6BC7047F0B4E8
S113011083B002000800224B01241968C140214029
S1130120FBD0012181400091996700998906890ECD
S1130130009D2D02FC26B6012E400E430296144962
S1130140582545434919134D002601960DE0120523
S1130150120D360B36031643CE61019A0EE01E686B
S1130160C6402640FBD0009E9E67002A0AD0AA42C1
S1130170CE69ECD92E43CE61074E9219074E029FE9
S11301803760ECE703B0F0BC70470000380312207E
S113019000001220FF0F000001F0FFFFA003122057
S11301A0C002122080B505206946487001236A46C2
S11301B0012100A8401C00F051F968460078C007EE
S11301C0F4D46846007802BD10B584B012A402A825
S11301D006CC06C0083C002002A9487088700C2098
S11301E0C870042301AA052102A800F037F9019878
S11301F0001D01A90CCC0CC101A9020C4A70020A11
S11302008A70C87004236A46052101A800F026F903
S1130210009804B010BD00005A0000000000000067
S113022080B5AB20694608700121684600F0CEF81D
S113023001BD0000FEB504000E0C89B20191012E2F
S113024016DB150080277F0256A0694602680A6003
S11302506846210C4170210A8170C4703B002A0059
S1130260042100F0FBF8E419ED19761EECD12A0004
S1130270019800280CD068464BA10B680360210C40
S11302804170210A8170C470019B042100F0E6F8DA
S1130290002003B0F0BD000038B504000D000620B6
S11302A0694608700121684600F090F8032D06D1D4
S11302B0684600BF3AA10A780270012114E0200ABE
S11302C0210C022D02D16A4638A306E0012D6A46AC
S11302D002D100BF36A300E036A31D68156051703B
S11302E09070D4700421684600F070F8FFF75AFF4C
S11302F0002032BDFEB505000C001600280A0002DD
S1130300A84219D0802149004018401B270084428C
S113031000D907000620694608700121684600F0EC
S113032055F83B0032002900022000F05FF8FFF787
S113033039FFF619ED19E41B2002000CE1B201911A
S1130340012817DB3400060080277F000620694659
S113035008700121684600F039F83B0022002900AA
S1130360022000F043F8FFF71DFFED19E419761E93
S1130370ECD12600019800280ED0062069460870AA
S11303800121684600F022F8019B32002900022076
S113039000F02CF8FFF706FF002003B0F0BD0000CA
S11303A0600000000300000003000000D80000000B
S11303B052000000200000003E4A00231360D06079
S11303C03D4801603D49416093607047F8B584B091
S11303D006000F003A4C3B4820603C202065002575
S11303E0E5640220E0640120A06017E0F8B584B061
S11303F016001F00324C334A22603C22226500253D
S1130400E5640222E2640122A26020660802000E72
S113041020660804000E2066C8B22066684600BF45
S11304202AA1102200F062F80096200060300190AA
S1130430029700216846FFF7F1FD012121610021A7
S1130440FFF765FE0120A16A89080840FAD0A06A76
S1130450C007FCD4A560256105B0F0BDF0B585B03A
S11304601F00174C184B23607B1E636007236365D2
S11304700026E6640125E564A5600B0004D003783A
S11304802366401C491EFAD1009201A813A1102230
S113049000F02CF8009802900397002101A8FFF7C0
S11304A0BDFD25610021FFF732FEA660266105B07F
S11304B0F0BD000008003020F00030201842000099
S11304C000003020000107000003070000000000C6
S11304D00000000000000000409200006000302096
S11304E0000000000000000080A4000070B4103A76
S11304F003D378C9103A78C0FBD2530701D318C983
S113050018C001D508C908C0D20704D30B880380DA
S1130510891C801C002A01D50B78037070BC7047BD
S113052080B572B61748184901604160174A1160D6
S1130530516000BF00BF00BF00BF00BF00BF14492F
S11305400A6807239A43012313430B604A6F114B34
S113055013404B6702690F239A4303231343036138
S11305600022D2434A65090C816049088160FFF783
S11305704FFD01210220FFF71FFFFFF751FE01BDD0
S113058000000000102013205555555510901420DC
S113059000102020FFFFFEFF10B55468FFF7C0FFD6
S11305A0FFF712FE401C002121800822A270E17096
S11305B0012222716271A271E17121726172A272CF
S11305C022616161C10BA161942149030860100398
S11305D0E06110BD10B50C0010004268416900696B
S11305E04002400AFFF726FE00202060606010BD34
S11305F010B50C0010004268416900694002400ACD
S1130600FFF778FE0020206010BD38B514695569E5
S113061000200860002D09D000212000FFF73CFED7
S11306208020400124186D1EF6D131BD0321200025
S1130630FFF732FE31BD80B5FFF772FF01BD704791
S10506407047FD
S9030000FC
