:020000040010EA
:10000000484D11008D011000450610002507100015
:1000100000000000000000000000000000000000E0
:100020000000000000000000000000004506100075
:1000300000000000000000004B0110004506100009
:1000400045061000C5081000CD081000F909100081
:10005000850910007509100065091000450610009B
:10006000A50C1000B50C1000C50C1000790D100087
:10007000890D1000D9091000E9091000C909100004
:100080003D0D10007D0C10004506100046000000DC
:1000900069561000314C1000B54A1000954A100006
:1000A000B94D10009557100015571000215710003A
:1000B000115710002D57100061571000A537100080
:1000C000F1361000D936100099771000C97710006A
:1000D000757510005975100091751000D89D1200AB
:1000E000D89E1000E69E10000D461000B9081000C2
:1000F00000000000153D100000000000000000009E
:100100000348854600F01AFA00480047854710006A
:10011000484D1100084B19680868203080F30988A1
:10012000022080F31488BFF36F8F3FBCAE4608BC3B
:1001300004BC62B618470000F8A71000EFF3108067
:1001400072B6704780F310887047EFF309800E4B4A
:100150001A6820381060F0C044464D4656465F4647
:10016000F0C008B572B608F0ADFE62B60CBC1168FE
:1001700008681030F0C8A046A946B246BB4680F3D6
:1001800009882038F0C81847F8A71000014CA0478C
:10019000014C2047D50C1000010110000321001D67
:1001A000401E037812021A43491EF9D510467047C3
:1001B000F0B507460846584087B0C00F0490480085
:1001C0000E46590040084908BC1A884105D23846F5
:1001D00031461E4617460B4602465800400810435B
:1001E0004CD0300D039040055900400D490D05904D
:1001F000401A0290402872DA18030121000B090509
:100200000843019004980092002805D001995242B9
:100210000020884100920190029840210A1A019919
:10022000009801F793FC05460C466B4607CB00F09F
:1002300097F9C0197141039A0E0D0023D717564044
:100240001A467A40164344D0049A002A2DD0029AC6
:10025000012A039A15DC1205C01A914101263605C0
:10026000001C7141D20F059ED207009301920296A5
:100270002A46234600F094F907B0F0BD38463146CF
:10028000FAE71605224A0F46B218C01AB7410121F3
:100290000905001C4F4100187F411146181879418B
:1002A000E20F10436D19644113E0E2076D08154336
:1002B0006408C2071443039A01261205C01A91412B
:1002C0003605001C7141CE07400830434908C0186C
:1002D00051412A46234600F056F9CDE7FFE704983E
:1002E00001224000C117121A00238B4104983146A5
:1002F000C417381AA141EEE730B40124E407634083
:1003000030BC55E730B40124E407614030BC4FE70E
:100310000000E0FFF0B51FB488B00B9909980024E5
:1003200048400999C00F490049080991C0070B9935
:100330000090490049080B9109990898A64608437E
:100340001CD00B990A98084318D009980124400042
:10035000420D4800410D099824050003000B20437D
:1003600009900B980003000B20430B9050181C4978
:100370004018002201901446104605E00020014676
:100380000DB0F0BD032801DA034600E003239C46CC
:10039000C11A0AAE0AE05F0008ADED5B4F00F75BE3
:1003A0007D430027AA187C41491C5B1E6145F2DD94
:1003B000410004AB5A522104120C0A43240C401C85
:1003C0000828DFDB019802900099704601910090A7
:1003D000059B049A0799069800F0E2F8D0E7000020
:1003E0000DFCFFFFF0B50C465C4085B0E40FE40760
:1003F00003944C00002664085900944649080246BC
:100400000296224321D062460A431ED06200570D55
:100410004A000E032303550D012402462C492405EE
:10042000781B1B0B360B4018234326436146009074
:100430001C46501AB44103D30098401C009002E0BF
:10044000921800985B41002803DA0020014605B0AD
:10045000F0BD0020012109050746864611E06446EB
:100460001D46141BB54106D36546521BB341744665
:1004700007430C43A646CD07400849082843921875
:100480005B4105460D43EAD11046184313D0604640
:10049000194650407140084306D06046101AB341D7
:1004A00006D20122002306E000220123DB0702E03E
:1004B0000122D2435310009874460105381C614153
:1004C000029C039D0019694100F05DF8BFE7000040
:1004D000FD0300004A0009030123090B1B05194312
:1004E0000A4B10B5520D9A4202DA0020014610BDA7
:1004F000064B34339A4203DC9A1A01F737FB10BDDE
:10050000034BD21801F722FB10BD0000FF030000CF
:10051000CDFBFFFF10B5002904DB0124E4074042B6
:100520008C412146002B04DB1C460123DB07524291
:10053000A341994200D1904210BD0000064C012514
:10054000064E05E0E36807CC2B430C3C984710347B
:10055000B442F7D3FFF7D8FDA0A71000C0A7100042
:1005600010B5202A06DBCB170846203A1041C117E8
:100570000B4306E00B461341D0402024A21A9140C1
:100580000843194610BD10B5002B08DA0024401CA2
:10059000614192185B411A4301D14008400010BDEF
:1005A000F0B51FB482B005460C0003D0084600F039
:1005B00085FD02E000F082FD2030024600902146D9
:1005C000284601F7C3FA049B059A04460F461843D0
:1005D0001143084314D0184610431BD00098402103
:1005E0000A1A1846059901F7C1FA05460E46009AFF
:1005F0000599049801F7AAFA084305D0012004E000
:100600002046394607B0F0BD0020C11705430E4310
:100610002C43374300990E986305401A7905E40A84
:1006200000220C43FD0A0A3002D500200146E9E70A
:100630000105101969410C9C0D9D00196941FFF7D6
:10064000A2FFDFE7FEE70000401E0028FCD1704754
:10065000FEB53C48066845688468C1680291016936
:10066000019141690091876937A1012006F0E4FEFC
:1006700043A1012006F0E0FE44A10120029A06F009
:10068000DBFE46A10120019A06F0D6FE47A101201B
:10069000009A06F0D1FE3A4648A1012006F0CCFEB1
:1006A00022464AA1012006F0C7FE32464BA1012096
:1006B00006F0C2FE2A464DA1012006F0BDFEE41C54
:1006C0002DD034464DA1012006F0B6FE50A10120E8
:1006D000226806F0B1FE52A10120626806F0ACFE6D
:1006E00053A10120A26806F0A7FE55A10120E268EF
:1006F00006F0A2FE56A10120226906F09DFE58A137
:100700000120626906F098FE59A10120A26906F055
:1007100093FE5BA10120E26906F08EFEFEBD2C4631
:100720005BA1D0E710B5EFF308814A6805480831AE
:1007300000F0B8F8FFF78CFF002041780029FCD1C9
:1007400010BD000094F4100021212121212121213C
:100750002121486172644661756C742048616E6441
:100760006C6572206973207472696767657265646D
:10077000212121212121212121210D0A0000000018
:1007800050726F6C6F673A0D0A00000052342020DF
:10079000203D203078253038780D0A005235202051
:1007A000203D203078253038780D0A005236202040
:1007B000203D203078253038780D0A00523720202F
:1007C000203D203078253038780D0A006C722020CA
:1007D000203D203078253038780D0A006D73702068
:1007E000203D203078253038780D0A007073702055
:1007F000203D203078253038780D0A004D535020A8
:10080000537461636B20496E666F3A0D0A000000F5
:1008100052302020203D203078253038780D0A00D5
:1008200052312020203D203078253038780D0A00C4
:1008300052322020203D203078253038780D0A00B3
:1008400052332020203D203078253038780D0A00A2
:1008500052313220203D203078253038780D0A0082
:100860004C522020203D203078253038780D0A0069
:1008700050432020203D203078253038780D0A0064
:1008800078505352203D203078253038780D0A00BA
:1008900050535020537461636B20496E666F3A0D5C
:1008A0000A0000000160EFF3098343608260C460C6
:1008B000056146618761704700B5734606F0D4FD57
:1008C00000BD000010B502F083F910BD10B51AF795
:1008D000A5FB03490420086004F07EF810BD000069
:1008E00080E200E010B5E82000F00BF8FE2000F0F8
:1008F00008F80B2000F005F810BD10B500F001F865
:1009000010BDF8B505460024032003F0C5FD032003
:1009100003F0FAFD0126E127BF013046A04028423E
:100920000BD0032003F0FAFD3846FFF78DFE0320BD
:1009300003F0EAFD4B2080010AE0032003F0EEFD06
:100940004B208001FFF780FE032003F0DDFD3846D9
:10095000FFF77AFE641C082CDFDB032003F0DEFDCA
:10096000F8BD000010B50248006801F0F7F810BDAE
:1009700020A9100010B50248006801F0DDFA10BD92
:1009800050A91000F8B50D4EB06A00248506AD0ED2
:1009900001273846A040284204D0F0620848A10050
:1009A00040588047641CE4B2052CF2D3A80604D555
:1009B0002020F062034800688047F8BD0010202026
:1009C00014F91000E8A8100010B50248006801F002
:1009D0000DFA10BD24A9100010B50248006801F0FE
:1009E000E9FA10BD54A9100010B50248406801F0A2
:1009F000E1FA10BD54A9100010B508F00DF910BDB2
:100A000010B503480078002801D100F0C5F910BDE9
:100A1000D03C1100F8B5044616480078002801D1F2
:100A200000F0BAF9FF20002569460870102C1DD28D
:100A30001148104E005D48701836307D0E4F80070B
:100A4000800F7F1E02280BD0304600F0DBF9022811
:100A50000CD33C7002226946304600F0FEFA07E0F3
:100A60003C700222304600F0C8FA01E00025ED4358
:100A70002846F8BDD03C110096A8100070B5074B71
:100A80000646187814460D46002801D100F084F976
:100A900022462946304600F003F870BDD03C1100D4
:100AA00070B50E4618214843134914464518E86AA4
:100AB0001835002804D001280FD0022805D113E0F2
:100AC000284600F09FF9A04201D2002411E02246FE
:100AD0003146284600F0C1FA0BE0284600F092F9B2
:100AE000A042F4D20446F2E73146284600F085FAE7
:100AF0000446204670BD0000D03C1100F7B598B008
:100B000007A802904020039000200C4604901899FA
:100B100015460826069105902178641C002970D09E
:100B2000252907D002A800F049FA05980028F3DA31
:100B30001BB0F0BD01220020134602272178232993
:100B40001BD02B2916D02D2902D0302906D101E047
:100B5000184300E03843641C002AEFD100212278BA
:100B60001346303B0A2B0AD20A23594389183039DD
:100B7000641CF4E704210843EDE73043EBE700236E
:100B8000D7B22E2F0AD1641C22781746303F0A2F85
:100B900004D20A277B439B18303BF4E76C2A0DD024
:100BA000682A0BD0702A48D00BDC252A4FD0582A4F
:100BB00028D0632A0CD0642A4DD10EE02278641C20
:100BC000ECE7732A2AD0752A13D0782A43D119E08A
:100BD0002868011D296001783AE02A68171D2F60F6
:100BE0001768009101900A22394602A800F015F911
:100BF00031E02A68171D2F6017680A2200910190C2
:100C000007E02AE02A68171D2F601768102200915C
:100C10000190394602A800F065F91CE02868011D22
:100C20002960076839787F1C002914D002A800F0D9
:100C3000C5F905980028F5DA0DE028680823011D9C
:100C4000296001680020102200960190E2E725212A
:100C500002A800F0B3F9641C67E7002800DC67E72E
:100C60000498002804D0024607A91898FFF706FF49
:100C700004990598401805905AE7000010B50749F7
:100C800000204860064900238A69C8698B61CB61EE
:100C90001946904703F0A0FE10BD0000402013202D
:100CA00024ED100010B50248006801F07FFC10BD73
:100CB000A0A9100010B50248406801F077FC10BDF3
:100CC000A0A9100010B50248006801F06FFC10BD2B
:100CD0009CA9100070B5134D134CAB4205D00020F9
:100CE000206060600220A06006E007C4012113209C
:100CF0008903000400F709FF202006F0FDFFBFF381
:100D00005F8F0120094900058860BFF34F8F2520C0
:100D10000749C00300F7F9FE0649074800F7F5FE4A
:100D200070BD0000993300000CF5120000ED00E0EA
:100D3000C61D0000340A0000CCF5120070B50C4846
:100D400042680C490A6082694A600169406AC907C1
:100D5000C90F084DC407E40F0835002902D02868E0
:100D600001F03CFD002C02D0686801F037FD70BD39
:100D700000001320A8A9100010B50248006801F077
:100D8000CFFD10BDB8A9100010B50248406801F0B1
:100D9000C7FD10BDB8A9100010B5114C022020618C
:100DA000606110A0A0611248E06101208002002172
:100DB000A162206261620BA0E162A0640D48E06460
:100DC000A165102061652065E1650BA1E01D00F7BC
:100DD000B4FE0AA1204600F7B0FE2020A07110BD8D
:100DE000D03C11005465726D696E616C00000000AA
:100DF000B0F41000B0F81000525454005345474767
:100E0000455200000269C1688A4203D88068401ACE
:100E1000801800E0501A401E7047FFB583B00E46A0
:100E200070420D9F0C9C0090002900DB08460125B4
:100E300002E000F7FBFD6D1C05998842F9DA06987F
:100E4000A84200D90546002C04D0002E01DB78070B
:100E500000D5641EB80702D50698002810D0F80700
:100E60000ED1002C0CD0A5420AD22021641E03987A
:100E700000F0A4F80398C0680028F2DA07B0F0BDCB
:100E80000398C0680028F9DB002E02DA2D21009EAD
:100E900002E0780707D52B21039800F08FF803981C
:100EA000C0680028EADBB807800F022810D1069836
:100EB00000280DD1002C0BD0A54209D23021641E90
:100EC000039800F07BF80398C0680028F2DAD5E7B1
:100ED000019700943146069B059A039800F002F8AA
:100EE000CCE70000FFB581B001261F4635460A9CBD
:100EF000029802E000F784FD6D1C03998842F9D244
:100F0000AF4200D93D460B98C00718D1002C16D02F
:100F10000B98800701D5002F02D0202000900CE014
:100F20003020FBE7641E0099019800F047F8019813
:100F3000C06800283DDB002C01D0A542F2D3019807
:100F4000C068002835DB012F01D97F1E06E031463D
:100F5000029800F755FD0399884202D3039846434F
:100F6000F1E7154F3146029800F74AFD0146029A13
:100F70007143511A0291395C019800F01FF80198F1
:100F8000C068002805DB3046039900F739FD0600EC
:100F9000E8D10B98C0070CD0002C0AD0A54208D28B
:100FA0002021641E019800F009F80198C06800280B
:100FB000F2DA05B0F0BD00006B9F100010B50446DA
:100FC00080686368421C934205D323681954A26069
:100FD000E068401CE060A2686068824209D1216834
:100FE0002069FFF74BFDA168884203D00020C04371
:100FF000E06010BD0020A06010BDF7B5054682B0CE
:1010000000200090EC6817462869A04201D9061B11
:1010100002E0A968201A0E1AA868761E001BB042CA
:1010200000D80646BE4200D33E46686832460019E4
:10103000039900F751FD0098BF1B80190090039899
:10104000A41980190390A868A04200D10024EC6084
:10105000002FD9D1009805B0F0BDF7B50446C76898
:101060008068E168C51B606816464018B54205D91E
:10107000019900F731FDB819E060FEBD2A460199DB
:1010800000F72AFD0198761B41193246606800F787
:1010900023FDE660FEBD000037B514460846064B4A
:1010A0006A46214600F00AF904466946002000F02D
:1010B000A1FC20463EBD0000F51910002021020CC5
:1010C00001D010211046020A01D010460839020949
:1010D00001D01046091F820801D01046891E42081F
:1010E00001D0881E7047081A7047000008B572B614
:1010F00013460A46009002A1012006F09DF9FEE782
:10110000417373657274696F6E204661696C6564C2
:101110003A2066696C652025732C206C696E652009
:1011200025642C2025730A0002E008C8121F08C19C
:10113000002AFAD170477047002001E001C1121F58
:10114000002AFBD170470000F0B51FB486B00998A3
:10115000089A030D0021024314D05148514A18182F
:10116000504305141198012810981AD0281A401CD1
:1011700000264D4F4D49009601910490002812DA47
:10118000444211E01198012449A3012801D110988B
:10119000C1430698119A84600360C26041600BB03D
:1011A000F0BD4042E4E70446210500203F4A001C10
:1011B00051410391029012E0E00707D032463B46CE
:1011C00001990098FFF7A6F80191009032463B463E
:1011D00010461946FFF79EF806460F466410002C8D
:1011E000EAD10498039B0028029A0999089806DA24
:1011F000FFF790F8019B009AFFF78CF805E0FFF7E6
:10120000F1F8019B009AFFF7EDF804460E46002224
:10121000284BFFF77FF903D80020C043014607E0C1
:101220000022254B20463146FEF7C2FFFFF752F958
:10123000102409E0002C0ADB0A22002300F70AFC34
:10124000079B30321A55641E02460A43F2D111221E
:10125000641C079B121B1C19119B012B03D001233B
:1012600008430ED10AE0084304D01120109000205A
:10127000119077E71098151A6D1E0BE010988242B6
:1012800002DD00236D1C03E0824201DA00236D1EA3
:10129000002BEED0069811998260C16030C07EE7C5
:1012A00001FCFFFF104D0000000014400000F03F63
:1012B000300000000000F0430000E03FFFB597B0B1
:1012C0000646002518E2252877D100242746FD4947
:1012D000049400E00443761C32780120203A9040C8
:1012E0000842F7D130782A280ED002223078014601
:1012F0003039092916D804990A235943303940183E
:101300001443761C0490F1E7189802C804911890D1
:10131000002904DA012040030443484204900220DB
:101320000443761C30782E2814D1042004437078AE
:10133000761C2A2809D11898761C80C8189009E0D4
:101340000A214F43303FC719761C307801463039A7
:101350000929F5D930786C2810D006DC4C281AD031
:1013600068280ED06A2817D104E0742813D07A2890
:1013700012D110E00120400504430CE001210905D1
:1013800001E0032109050C437178814203D101205A
:1013900000052418761C761C3078119066280BD036
:1013A00013DC58287DD009DC00287BD04528F6D0F6
:1013B0004628F4D047281AD1A5E118E0632835D093
:1013C000642870D0652812D19DE170286CD008DCAB
:1013D0006728F1D069287BD06E280DD06F2806D100
:1013E000BAE073282ED0752871D0782859D01A9A6F
:1013F000199990476D1C7EE16002400F022809D0C8
:1014000003280DD00428189801680DD00D60001D28
:10141000189070E11898EA1701680D604A60F6E7C5
:10142000189801680D80F2E70D70F0E718986A4689
:1014300001781172001D18900020507202A80090CF
:10144000012005E0189802C8189000200091C043C0
:1014500061070DD5002101E00199491C0191B942B4
:1014600012DA8142F8DB009A515C0029F4D10BE0DA
:10147000002101E00199491C01918142FADB019AA6
:101480000099895C0029F5D1019904981A9B471AA3
:1014900021463846199A00F097FA019940194518E3
:1014A0000BE04FE02CE113E04EE00098009900784B
:1014B000491C00911A9A199990470198401E019071
:1014C000401CF2D1214638461A9B199A10E137E0A8
:1014D0000A200021009001916002410F022907D0EB
:1014E000189A01CA1892C2179446032908D00AE034
:1014F0001898C01DC108C90005C91891944607E095
:1015000000B2C2179446042902D140B2C1178C46DA
:1015100000226146944506DA0A4600214042914184
:101520008C462D2102E0210504D52B216A4611733A
:10153000012103E0E10701D02021F7E7029155E006
:101540000A200AE0102008E010200090002104206A
:1015500004430191082703E0082000210191009035
:101560006002410F022907D0189A01CA189200227E
:101570009446032908D008E01898C01DC108C90086
:1015800005C91891944603E080B2042900D1C0B285
:1015900000210291210729D51199702906D0009ABE
:1015A0001021019B4A401A4305D00EE040216A46B3
:1015B0001173012108E06146014306D030216A46DB
:1015C00011731199517302210291009A0821019B14
:1015D0004A401A430AD16146014301D1610705D54A
:1015E00030216A46117301217F1E029111995829F9
:1015F00004D035A10E910DA90D910DE037A1F9E7A9
:101600006146019B009A00F725FA0E9B8C469B5C75
:101610000D9A521E0D92137061460143F0D10D9840
:1016200005A9081A20300190600703D501200004A5
:10163000844300E001270198874201DD381A00E069
:101640000020019900904118029809180498401A46
:101650000490E00306D421461A9B199A049800F0DE
:10166000B3F94519002706E003A81A9AC05D199935
:1016700090476D1C7F1C02988742F5DBE0030CD578
:1016800021461A9B199A049800F09EF9451904E026
:101690001A9A3020199990476D1C0099481E0090A5
:1016A0000029F5DC08E00D980D990078491C0D9192
:1016B0001A9A199990476D1C0199481E01900029AA
:1016C000F1DC63E10928010030313233343536373B
:1016D000383961626364656600000000303132337E
:1016E000343536373839414243444546000000001E
:1016F00000F05AF94519761C3078002800D0E2E550
:1017000028461BB0F0BD600700D406271898C01DFE
:10171000C108C90048680A680831C30FDB0718917F
:10172000190001D09CA108E0210501D59BA104E08E
:10173000E10701D09AA100E09AA1430011985B084B
:10174000109165280CD006DC452809D046281DD00C
:10175000472841D141E0662818D067283CD13CE0B9
:101760000021112F01DB112000E0781C0191009075
:1017700008A911A8FFF7E8FC139905910021119A17
:1017800015927F1C12980197009150E00120C0072C
:1017900003900120019008A9009711A8FFF7D4FC3D
:1017A000139A149905920022119B00921298159396
:1017B000059A0192002901D0104602E0791C4018D8
:1017C0000190381A01D5019804E04042401E009073
:1017D000781C0190C01B029043E0012F00DA012722
:1017E0000021112F01DD112000E038460191009009
:1017F00008A911A8FFF7A8FC13990591119A0021D7
:10180000129815920091019721070CD40599B942BD
:1018100001DB019900E00191012904DD159A491EBF
:10182000515C302906D0B84201DA011D05DA0121E8
:10183000029115E00199491EEDE7002805DC0099A9
:10184000411800910199091A03E0019A411C914243
:1018500000DD01910099401A401C02900120C00750
:101860000390200706D402990198814202DB0020F0
:10187000C043029000206946C87707AF0121039852
:101880000337C907884224D0022011902B201290E0
:10189000039800280CDA404203902D20129007E0B4
:1018A0000A21039800F7ACF830317F1E039039709D
:1018B0001199481E11900029F2DC03980028EFD1FD
:1018C000791E129808703078202108404530BF1EDC
:1018D000387006A8C01BC01D03901098007800281F
:1018E00000D00120019941180298C01709180398E7
:1018F00009180498401A401E0490E00306D42146BB
:101900001A9B199A049800F05FF84519109800780E
:10191000002803D01A9A199990476D1CE00324D52A
:1019200021461A9B199A049800F04EF845191CE0BC
:101930000098002807DB00990598884203DD159878
:10194000405C199901E0199930201A9A9047009843
:101950006D1C401C00900298401E0290002804D18B
:101960001A9A2E20199990476D1C0199481E0190D2
:101970000029DDDC05E038781A9A7F1C1999904718
:101980006D1C0399481E03900029F4DC21461A9B24
:10199000199A0498ACE600002D0000002B0000000E
:1019A0002000000000000000F8B5044600251E4697
:1019B0001746880404D405E039462020B0476D1C42
:1019C000641EF9D52846F8BDFFB50446002581B050
:1019D0001E46C80301D5302700E02027880404D51F
:1019E00005E038460399B0476D1C641EF9D52846BA
:1019F00005B0F0BD0A68531C0B601070704710B53D
:101A000003F0E0FC10BD000070B510480B218468A5
:101A10001620A27D4243C001163200F037F8054679
:101A20001622616800F758F8A27D16204243281854
:101A3000A16800F751F8A17D162041430022D2434E
:101A40002846163103F09EFA70BD000054ED1000D8
:101A50000FB470B5044606AE00250EE0327A307839
:101A60007168531C23706070A01C0C3600F734F8AA
:101A70002078641C04196D1CEDB26846007D854217
:101A8000ECD3204670BC08BC04B0184770B50646BD
:101A9000104615460C46083004F0E8FD00280BD02F
:101AA0000680448010218180C58008300446294684
:101AB00000F72BF8204670BD122202A109A0FFF703
:101AC00015FB00002E2E5C2E2E5C2E2E5C2E2E5C26
:101AD0007574696C735C6F736170705F7461736B44
:101AE0002E6300006D736720213D20300000000050
:101AF00070B5154D044669688847EA68002120469C
:101B000090472A680221204690472A6800212046F3
:101B100090470720E1680122C00108188261207AFD
:101B20008240521E9006800E0202104303221202CF
:101B30008918086308616A69002120469047EA68AD
:101B400001212046904770BD08A9100010B5024839
:101B5000FFF7CEFF10BD0000C0A91000F8B5064683
:101B6000C068032109024718B968002916D0DB2292
:101B70000FA11DA0FFF7BAFA00240BE0A96E012007
:101B8000A040014204D0B8632146304601F064FD14
:101B9000641CE4B2307AA04203D9EFE70521C90101
:101BA0004518A86E0028E7D1304601F0FBFCF8BDCF
:101BB0002E2E5C2E2E5C2E2E5C2E2E5C2E2E5C2E5F
:101BC0002E5C706C665C7065726970686572616CC1
:101BD0005C6170705F646D61635C6170705F646DA7
:101BE00061632E63000000007265672D3E737461AF
:101BF0007475735F6572725F6C203D3D203000002C
:101C0000F8B50C46054601F00BFC06460C2358437C
:101C10006A682168031DD15001466B68626808310B
:101C20005A506A68216911502D4F0021FA682846E0
:101C300090477A690221284690473146284601F0AC
:101C4000CDFB60694104490F0DD0012908D002295C
:101C500004D0692223A131A0FFF748FA022203E051
:101C60000022022101E000220021EB688504C70563
:101C7000AD0F7F0F2D05BF033D4307057F0FFF020B
:101C80003D4352021543C9010D434107490E0D431F
:101C90008106490F49000D430002C00F582105433A
:101CA0007143C818856100220264626955025203BB
:101CB0002D0F120FED02D2011543AD1C4564A26831
:101CC0005A50E16881600120B04081068006890E8B
:101CD000800C01430720C001181801623046F8BD8E
:101CE00008A910002E2E5C2E2E5C2E2E5C2E2E5C53
:101CF0002E2E5C2E2E5C706C665C7065726970684E
:101D00006572616C5C6170705F646D61635C617071
:101D1000705F646D61632E6300000000300000009E
:101D200010B501460148FFF76BFF10BDC0A91000B8
:101D3000F3B50646C0680521C90183B0451804996A
:101D400001248C40296C2142FCD003210902411856
:101D500002918C63A706A106BF0E890C0F430721D1
:101D6000C9014018019004980C214843009008E0F4
:101D700001F034FB01980762286C2042FCD00298E5
:101D80008463716800980858049900283046EFD1A0
:101D900001F088FB304601F005FC05B0F0BD000005
:101DA00010B501460148FFF7C3FF10BDC0A91000E0
:101DB00070B50D4E0546F268002190473268022149
:101DC0002846904732680021284690476C6804E016
:101DD0002146284601F0C2FF2468002CF8D1726920
:101DE00000212846904770BD7C9F100070B50546C5
:101DF00044680EE0E968086C227AD040C00707D03A
:101E0000CB6C0120904083431843C86460688047CE
:101E10002468002CEED170BDC06842680A4342605D
:101E20007047C06840687047C06841607047C068CC
:101E300002688A4302607047C06800687047C068E3
:101E400002680A4302607047C06802684A40026044
:101E50007047C0680160704770B50E460446EFF3E6
:101E6000108572B6406801F01AF9002804D0732278
:101E70000CA11AA0FFF73AF93146606801F0E8F8C2
:101E8000207A002803D00020002D03D003E0012099
:101E90002072F9E762B6002802D0204601F0F6FF72
:101EA00070BD00002E2E5C2E2E5C2E2E5C2E2E5C25
:101EB0002E2E5C2E2E5C706C665C7065726970688C
:101EC0006572616C5C6170705F68776563635C61AB
:101ED00070705F68776563632E63000030000000F8
:101EE00010B501460148FFF7B7FF10BDD4A9100097
:101EF00070B50C4C054661688847E26800212846A9
:101F000090472268022128469047226800212846EF
:101F10009047E8680021416001210161E26828469C
:101F2000904770BD38A9100010B50248FFF7E0FFD8
:101F300010BD0000D4A91000F8B50446E1680120E6
:101F4000C8610021606801F0B2F8054687694669FA
:101F50000721E068C90141182022E868FFF6BCFDAE
:101F60001D21E0684901411820222869FFF6B4FDCF
:101F70000F480121C26820469047EFF3108572B6E2
:101F8000606801F053F8606801F082F8002802D020
:101F90000020207200E00120002D00D162B6002850
:101FA00002D0204601F072FF3846B047F8BD00006D
:101FB00038A91000F8B5C61D0546F936F06CC46A9C
:101FC000214602F01FF8600729D52B46FF33213345
:101FD00029468031F26C0DE01769086B0770086BB9
:101FE000401C0863187F00280CD0401E0006000E1D
:101FF000187707D0906FC006EED1187F102805D94A
:10200000082004E0284602F01DF906E0401EC1B297
:10201000906B000A00020843906304208443E006AA
:102020001027002803DA284602F0D6F9BC43A006A0
:1020300005D5F06C016B39430163202084436006B1
:1020400001D540208443200601D580208443002C04
:1020500007D0FF3541352A7C234602A1022005F036
:10206000EBF9F8BD69696325643A756E657870654A
:1020700063746564206972712C737461743D307887
:1020800025780A0010B58902520211431A02029CF7
:1020900011432143016110BD70B50E46114915462B
:1020A000CA68046900219047A87B01068207090FCE
:1020B000C902920D00071143800F0143182001430C
:1020C000F4200151E88908498005800F4005401837
:1020D000206068688008401E606026610120A06062
:1020E00070BD0000AC9F100000021F0010B502463A
:1020F00001210248FFF7D0FF10BD0000E4A9100045
:1021000001698A6AD207FCD18A600A610149CA68FA
:1021100001211047AC9F100010B50248FFF7F0FFF7
:1021200010BD0000E4A91000006960307047000095
:1021300010B50248FFF7F8FF10BD0000E4A9100039
:10214000FFB581B01E46054604F06FFB0090144FAA
:102150002C69FA680021284690477A6902212846AE
:1021600090472046009904F08FFB039820663002C8
:10217000000E20663004000E2066F0B22066204675
:102180000B9B0A9A029904F08DFB7A690321284679
:102190009047FA6801212846904705B0F0BD00003D
:1021A000AC9F1000FEB51D4614460E46074601F0D2
:1021B00029FD33463A460121044801950094FFF772
:1021C000BFFF00F09BFF06F08BFCFEBDE4A91000F2
:1021D000F8B5224F044679688847FA6800212046FE
:1021E00090473B69E179002220469847607B0228AE
:1021F00009D13B69E17A0422204698473B69A17ADC
:102200000322204698473B69217A012220469847BD
:102210003B69617A0222204698470025052660190D
:10222000017B3B693246204698476D1C761CEDB217
:10223000F6B2002DF3D02169002088602169A088C2
:1022400048612069A179803001677A6900212046C0
:102250009047FA68012120469047F8BDAC9F1000D6
:1022600010B51148022484800121104A817112683E
:102270001300FFF68CFC0504050705070800002184
:10228000417300E04473182101731921C1711A21AF
:1022900001721B2141721C2181721D21C1720248F1
:1022A000FFF796FF10BD0000E4A9100014F512001E
:1022B000F7B588B006900469012150688904154675
:1022C000884204D3A62247A155A0FEF70FFF870836
:1022D00086075948B60FC2680021069890475648AD
:1022E0000221426906989047A87B01068207090FE0
:1022F000C902920D00071143800F014320200143C2
:102300000698006980304167002F32D0E8894B4938
:102310008005800F400540182060781E606007200F
:1023200060650020E0640120E064A060A889206668
:10233000A8682066182242496846FFF6CDFB204671
:10234000EC300290286803900F2205980121D203F7
:10235000C9039043084311018843059004976846D8
:10236000FFF7DEFC09992161FFF71AFD0020A0604C
:102370002061002E2AD0E88932498005800F40056F
:1023800040182060701E60600022E2640120A0609E
:10239000A8892066A868B900030A5B181B02C0B2AE
:1023A0000343236609982061A06A4007FCD5A06A10
:1023B000C007FCD128684118002003E0236E0B54AD
:1023C000401CC0B2B042F9D3A26022611A4C032172
:1023D000626906989047E2680121069890470BB021
:1023E000F0BD00002E2E5C2E2E5C2E2E5C2E2E5C60
:1023F0002E2E5C2E2E5C706C665C70657269706847
:102400006572616C5C7373695C6170705F7173702D
:10241000695C6170705F717370692E630000000009
:10242000706172616D2D3E6C656E677468203C2032
:102430003078343030303000AC9F100000021F0084
:102440008CA010000002070010B5044601F0DAFB72
:10245000224601210348FFF72BFF00F04FFE06F054
:102460003FFB10BDE4A91000FFB5054604692548EF
:1024700087B0C2681F46119E002128469047214818
:1024800002214269284690471F482060701E606004
:10249000072060650020E0640120E064A060002067
:1024A00004E00999095C2166401CC0B2B842F8D327
:1024B000182216496846FFF60FFB2046603002904E
:1024C000109803900F2205980121D203C90390436D
:1024D0000843110188430496059000266846FFF7DB
:1024E0001FFC08992161FFF75BFCA6602661054C83
:1024F0000321626928469047E268012128469047F7
:102500000BB0F0BDAC9F10000003070074A01000DA
:10251000FEB51D4614460E46074601F073FB3346D2
:102520003A460121044801950094FFF79DFF00F011
:10253000E5FD06F0D5FAFEBDE4A91000FFB581B0B7
:10254000044604F072F90F4D0746EA682669002137
:10255000204690476A690221204690473946304616
:1025600004F092F9304602AE0ECE04F09BF96A698F
:10257000032120469047EA6801212046904705B094
:10258000F0BD0000AC9F100070B50C46054601F090
:1025900039FB23462A4601210348FFF7CFFF00F00D
:1025A000ADFD06F09DFA70BDE4A9100070B50646B9
:1025B00005462036A86A006B0406240E0BD0A00640
:1025C00013D5327B22A1022004F036FFA86A406CAA
:1025D000FF22573231E0A86A8068002804D12448DD
:1025E0000121C2682846904770BDE00602D5284602
:1025F00005F086FA200709D5327B1EA1022004F0DF
:102600001BFFA86AC06BFF22613216E0600709D584
:10261000327B20A1022004F00FFFA86A006CFF2289
:1026200067320AE0A0070CD5327B22A1022004F019
:1026300003FFA86A806BFF226D3226A133A0FEF74C
:1026400055FDE007B6D0284605F0EAFAB2E70000EB
:1026500073706925642C6D756C74695F6D6173743A
:10266000657220636F6E74656E74696F6E0A000028
:10267000C49F100073706925642C52656365697688
:1026800065204649464F204F766572666C6F770A23
:102690000000000073706925642C526563656976DB
:1026A00065204649464F20556E646572666C6F77AB
:1026B0000A00000073706925642C5472616E736D9A
:1026C0006974204649464F204F766572666C6F7775
:1026D0000A0000002E2E5C2E2E5C2E2E5C2E2E5C10
:1026E0002E2E5C2E2E5C706C665C70657269706854
:1026F0006572616C5C7373695C6170705F73706943
:102700005C6170705F7370692E63000030000000C0
:10271000112001F003FF102001F000FF172001F04D
:10272000FDFE112001F0B8FE102001F0B5FE1720CB
:1027300001F0B2FE06F0C8F9102001F0E5FE01201C
:1027400005F082FD102001F0E9FE012005F07CFD7E
:1027500006F0C6F9EEE7000002484168491C4160F6
:1027600070470000FCA9100070B51B4E00223369B1
:102770000446056911469847326802212046904771
:102780003268002120469047B2680F2120469047CA
:10279000F268002120469047217D142041436A5869
:1027A0006068120E0002000A120610436850207D75
:1027B0001421484340198168022211438160207D21
:1027C0001421484340198168042291438160726951
:1027D00000212046904770BDDC9F1000027D14232D
:1027E00001695A435118C968C26881681046084790
:1027F000027D142301695A4351188A6801231A4340
:102800008A6002494A69022110470000DC9F1000DB
:1028100010B5EFF31082416B72B6CB6F1B070CD46F
:10282000CB6F5B0709D5037BEF2423400373086953
:10283000022398430861012000E00020002A00D113
:1028400062B610BD027B10231A43416B0273086904
:102850000222104308617047F8B50646041D40681F
:102860002E4F850A8005800D009079683046884794
:10287000BA68294630469047FA68002130469047AA
:102880003B6921790122304698473B6961790022F2
:1028900030469847207A756B400709D53B69A17986
:1028A0000322304698473B69E17902223046984737
:1028B000207A20210007002804DA8120A8602869F6
:1028C000084303E00120A860286988432861207A32
:1028D000C006304602D5FFF7B5FF01E0FFF798FFCD
:1028E000207AC1078007C00F090F0001C91C0143EE
:1028F000E96068680421084368603A68022130464C
:1029000090473A680021304690472846009905F0E4
:102910009BFF7A69002130469047F8BDF49F100074
:10292000F8B50646406B3546203500900098806823
:102930000107090F012950D0022937D0042920D0DE
:10294000062907D00C291CD02A7E24A1022004F0DD
:1029500073FDEBE7746B6069C7B2B80708D525A1B2
:10296000012004F069FD00E020686069C007FBD128
:102970003807DBD523A1012004F05EFD0120687437
:10298000D4E73046726B0AE01168436A1970016A35
:10299000491E0162436A5B1C4362002903D05169EE
:1029A000C907C3D0F0E705F087FEBFE731693046BD
:1029B00000290FD0426B09E0416909781160416933
:1029C000491C41610169491E0161AFD0D16F89077E
:1029D000ACD5F1E705F096FFA8E7F8BD7561727414
:1029E0003A256420756E6578706563746564206946
:1029F00069640A0075617274206F76657272756E13
:102A00000A00000075617274206672616D696E67FC
:102A1000206572726F720A00F8B516460F460446BA
:102A20001D461A463146384605F062FF002804D09C
:102A3000606A002803D00220F8BD0120F8BD67625B
:102A40002662A5620698E062094802214269204692
:102A50009047207B400603D5204600F00BF804E0A9
:102A6000606B41680122114341600020F8BD000005
:102A7000F49F100030B587B0044605F097FD054679
:102A800018221B496846FFF627F80194606B0290F4
:102A9000606A0390206A0490207B000701D56808D3
:102AA00000E0012000F014FDFF2205994007C1322B
:102AB000C00D9143014320340591207E002801D0B0
:102AC0000B2000E009200F22D203C00391430143F1
:102AD00068460591FFF724F94007410E207C8F22BC
:102AE0001040084380210843207407B030BD000027
:102AF0000CA01000F0B516460F46044687B01D46E0
:102B00001A463146384605F0F3FE002805D06069C4
:102B1000002804D0022007B0F0BD0120FBE7676168
:102B20002661A5610C98E0611C4805214269204698
:102B30009047207B800629D5204605F037FD1822D6
:102B400017496846FEF6C8FF019460690290606B01
:102B50000390206920340490207E002801D00A20B0
:102B600000E008200F220599D204C00491430143DC
:102B700068460591FFF7D4F84107207C490FC0084B
:102B8000C000084308210843207404E0606B4168DA
:102B90000222114341600020BDE70000F49F1000B5
:102BA00024A0100003490A6B52005208C0070243D8
:102BB0000A637047000010200149032048637047F2
:102BC0000010202010B5032005F000F910BD000012
:102BD00010B50120800200F0DBFA01F025FE002094
:102BE00005F0F4F80A49012008700A480421016040
:102BF000094A002013680B4207D0002807D1FF22A2
:102C0000083206A113A0FEF771FA401CF2E710BDCE
:102C100088A8100000E100E000E200E02E2E5C2E0B
:102C20002E5C2E2E5C2E2E5C2E2E5C2E2E5C706C5E
:102C3000665C61706F6C6C6F5F30305C7372635C8C
:102C4000736C6565705C7379735F736C6565702E0A
:102C500063000000726564756E64616E745F746910
:102C60006D65000004490A68C00752085200C00F91
:102C700002430A60704700004000112004494A697D
:102C8000000712091201000F02434A617047000059
:102C90004000112004494A680005120B1203000D80
:102CA00002434A60704700004000112004498A68CE
:102CB0000005120B1203000D02438A6070470000EA
:102CC000400011200449CA680005120B1203000DD0
:102CD0000243CA60704700004000112004490A699D
:102CE0000005120B1203000D02430A617047000039
:102CF00040001120014610B50748002300685A1E05
:102D0000406806F0C9FA012804D01F2203A10BA0D5
:102D1000FEF7ECF910BD000054A810002E2E5C2E1A
:102D20002E5C2E2E5C2E2E5C7574696C735C626C4E
:102D3000655F7461736B2E6300000000300000005B
:102D4000FFB581B00C9F1C4615460E46880704D57A
:102D5000002211460120FDF7AFFD280B04D0002210
:102D600011460120FDF7A8FD600804D0002211469D
:102D70000120FDF7A1FD0A98400804D00022114669
:102D80000120FDF799FD0B98400804D00022114660
:102D90000120FDF791FD780904D0002211460120A1
:102DA000FDF78AFD0D98000904D00022114601208C
:102DB000FDF782FD0198B107C007084329040843C5
:102DC000E10308430A99490308430B99090308439F
:102DD000390108430D9908430149486305B0F0BD26
:102DE0004000102004490A68FF231B049A43000492
:102DF00002430A60704700008000102010B5084CA4
:102E00002078002805D10BF7FBFF002801D000F047
:102E100009F82078022801D104F0FEFB10BD000063
:102E200088A8100010B50AA1032004F005FB0120BA
:102E3000800200F0ADF90A4A1020116B8143014372
:102E40001163084800E030BF01780229FBD110BDB2
:102E5000736F66742077616B6575700A00000000FF
:102E60000000102088A810001CB50D4C20600D48F3
:102E7000006804F02BFB0025ED43FFF7BFFF20683F
:102E80002A460068694606F043FB0128F5D16846EA
:102E900081880029F1D08279009802F059FAECE794
:102EA00054A810007CA8100003490A68120A1202F4
:102EB00002430A607047000080001020F8B5054604
:102EC00005F002FE04F0E4FC044600F0EDFB060011
:102ED00001D0072C05D0E00700D030BF05F000FE80
:102EE000F8BD2B4F3969B8680C1A012E0FD0651E3A
:102EF0002848456000F0DAF902F006FC30BF02F025
:102F0000C9FB24480069002807D0012106E06D1C98
:102F10006843F9680019451AEAE700211D4800686E
:102F2000012E0ED100290CD0FA680021AA180B46F8
:102F30004B41821A994104D3FF223D3216A11EA0B3
:102F400023E0001BB968FEF65BFD054605F076FF41
:102F50003869A04204D3B9686943C943814201D2A8
:102F6000012400E00024B96869430818094D38615C
:102F7000686000F09BF9002CB0D12868396988425C
:102F8000ACD9FF22563204A11BA0FEF7AFF8000017
:102F900060A81000000020202E2E5C2E2E5C2E2E0D
:102FA0005C2E2E5C7574696C735C7461736B5F6905
:102FB0006E69742E630000002875696E7436345F84
:102FC000742977616B6575704D6174636856616CC7
:102FD0007565202B2052544357616B6575704465AD
:102FE0006C6179203E52544356616C75654166743C
:102FF0006572536C6565700028287265675F72742E
:10300000635F74202A2930783230323030303030EB
:10301000292D3E5254435F434356523C3D727463E4
:103020004D61746368436F756E7400008188037B23
:1030300002684B439A184389491C5B1E438189B23D
:1030400081800389994201D1002181801046704717
:1030500010B50B46044600F015F8227B1946FEF623
:103060003BFD204600F001F810BD4189491C41811B
:10307000C188491C89B2C1800289914201D10021D5
:10308000C1807047C2880168007B42435018704776
:103090004089002801D000207047012070474189F5
:1030A0000089814201D10120704700207047428988
:1030B0008A4201D800207047838802685918038922
:1030C000994200D3C91A007B41438818704710B554
:1030D000002904D00120400200F088F810BDFF2034
:1030E0000130F9E710B50248006800F095FB10BD0B
:1030F0000CF5120010B500F0ADFB10BD10B5024884
:10310000007A00F0B9FB10BD0CF51200044802680B
:10311000C90752085200C90F0A43026070470000F5
:1031200040201320081A1949001F0B400105490DC2
:1031300009040B43C101420210B54A40D20FD243E9
:103140000124D207E4061209A3431A4363001A4379
:1031500003024B40DB0FDB43DB07A4009B08A243C9
:1031600013430322920713439A0A80029202800DAE
:103170000243E0148243C80F800202431F20C002B2
:1031800082430F200003101810BD0000FFFF00F85D
:1031900010B50B4948600B4A104203D04A680242FE
:1031A000FCD110BD074AD243104204D04A680346FE
:1031B0009343FBD110BD1E22034904A0FDF796FFE7
:1031C00000102020AAAAAAAAE8A21000300000003D
:1031D0000449034808614861034908614861704730
:1031E000AAAAAAAA002013200090142010B50B4907
:1031F00048610B4A104203D04A690242FCD110BD1B
:10320000074AD243104204D04A6903469343FBD194
:1032100010BD6722034904A0FDF768FF00201320BA
:10322000AAAAAAAAE8A210003000000010B50B4913
:1032300008610B4A104203D00A690242FCD110BD5A
:10324000074AD243104204D00A6903469343FBD194
:1032500010BD3022034904A0FDF748FF0090142060
:10326000AAAAAAAAE8A210003000000010B50B49D3
:1032700048610B4A104203D04A690242FCD110BD9A
:10328000074AD243104204D04A6903469343FBD114
:1032900010BD4222034904A0FDF728FF009014202E
:1032A000AAAAAAAAE8A21000300000000248806979
:1032B00002490820086070470000202080E200E0FA
:1032C00001700A0A42700A0C8270090EC1707047C0
:1032D00002480068002800D001207047C4A81000F0
:1032E0000FB408B503AA09480299FDF7D5FE0246B6
:1032F00000200090064B05490648FFF7FBFB052020
:1033000004F0A2FF01B008BC04B01847C4F91000D3
:103310009F36100028AA100070B500F06BFA2A4DF5
:103320000446E86910218843E8611A202749C04310
:103330000860FFF741FCFFF745FC00F007FB04F0D5
:10334000DBFE002800D0012004F088FD012004F0FD
:10335000EFFC28680121C008C00008432860002055
:1033600003F0C2FB1A49641C0A68A242FCD3E86954
:103370000121090488430843E861002004F04AFD64
:10338000A86840084000A86001F0B6F8114C124D42
:10339000A168884321690843286001F08DF8A1687D
:1033A0008843E16808436860286801F0CBF86868E2
:1033B00001F08AF803F050F9034960684031486130
:1033C000022004F0B5FC70BD0010202080E100E078
:1033D00000002020D4A810008CA8100030B50C22CA
:1033E0004A43582543686943C5689B580B4C4919A3
:1033F000A34207D9CB692343CB614068634281581C
:10340000C91808E0CC691B051B0D240B24032343BA
:10341000CB6140680021815030BD0000FF0F0000EB
:1034200070B504460020267A16E001218140C9B219
:10343000EFF3108572B6637A0B4201D1012200E0EE
:103440000022002A01D00B436372002D00D162B626
:10345000002A08D1401CC0B28642E6D8372202A119
:103460000FA0FDF743FE70BD2E2E5C2E2E5C2E2E7F
:103470005C2E2E5C2E2E5C2E2E5C706C665C706555
:10348000726970686572616C5C6170705F646D61B7
:10349000635C6170705F646D61632E6300000000A7
:1034A0003000000001228A40EFF3108172B6437AA7
:1034B00093434372002900D162B6704710B50029CA
:1034C00003D08020FFF792FE10BD4020FAE70000F5
:1034D00010B5012809D020281BD008DC042812D000
:1034E000082812D0102809D111E0002010BD402872
:1034F00011D0802811D0FF38012810D0C22209A194
:1035000016A0FDF7F3FD012010BD022010BD032021
:1035100010BD042010BD052010BD062010BD0720E1
:1035200010BD00002E2E5C2E2E5C2E2E5C2E2E5CEE
:103530002E2E5C2E2E5C706C665C706572697068F5
:103540006572616C5C6170705F646D61635C617019
:10355000705F646D61632E63000000003000000046
:1035600010B54022002908D001290AD002290CD028
:103570001822074907A0FDF7B9FD07490860074869
:1035800001E006488030026010BD0548FBE70000FE
:1035900058A410003000000020A9100000E100E055
:1035A00080E200E070B50446C1680720C001081839
:1035B000006A002814D10520C0010818806E002878
:1035C0000ED10320000208188068002808D1054D9C
:1035D0000121EA68204690476A6903212046904706
:1035E00070BD000008A9100010B5202004F07CFB7D
:1035F00010BD000010B500290DD0012910D00E4BD0
:103600000229186811D0032912D00A460BA1022002
:1036100003F012FF10BD01460E4803F0E3F910BDA0
:1036200001460C4803F014FA10BD0121084301E0E3
:1036300040084000186010BDC4A81000756E657881
:10364000706563746564207379735F737461743A31
:1036500025640A00B4A8100070B50D462C460C2253
:10366000416854430A59C668002A0ED02946FFF71C
:10367000B5FE0120A84081068006890E800C01431A
:103680000720C0013018016270BD221D08348E5819
:103690000C592946FFF706FF2046B04770BD08B514
:1036A0000020009008BD0000094901200968002998
:1036B00001D0002070470749CA69002AF9D1044A9D
:1036C000283212688968491E8A42F3D10220704765
:1036D0004CEB1000F8A7100008B50092034A0B4607
:1036E0001146203900F05EF808BD0000F49C10007F
:1036F000F0B585B0044600294FD12046083003902C
:10370000001D0290001D0190001D071D3E1D244D4F
:103710000090FEF6CFF901462046FFF7D1FDFEF6F8
:10372000C9F90146201DFFF7CBFDFEF6C3F901469E
:103730000398FFF7C5FDFEF6BDF901460298FFF7B5
:10374000BFFDFEF6B7F901460198FFF7B9FDFEF699
:10375000B1F901460098FFF7B3FDFEF6ABF901465B
:103760003846FFF7ADFDFEF6A5F901463046FFF7F6
:10377000A7FD1F20215C002901D1401EFAD5401C65
:1037800002D120780028C4D01F20215C2A5C9142FD
:10379000BFD8914201D3401EF7D505B0F0BD00005F
:1037A000149D1000F0B51C4687B017460E4605461E
:1037B0004023FF2220460C990BF746FD04461C22AD
:1037C00007496846FEF688F92046203004900394A5
:1037D00006946A46E0C26846FEF782FB07B0F0BD79
:1037E000949E100010B50BF767FD01F0F5F810BDC1
:1037F0007047000010B50748C26910218A430A4388
:10380000C261C26909028A430A43C26100F092FAA6
:1038100010BD00000010202070B50B4A05460121A4
:10382000126800209047094A002112680846904714
:1038300000F082F8064C6560FEF77AFCA060272055
:10384000C005E06070BD000004A9100000A91000D0
:103850000010122010B506480068002801D0FEF7BD
:103860005BFC044A012112680020904710BD000053
:103870000010122000A910007FB52C4A0546002137
:10388000126808469047002D01D0052D02D3012073
:1038900004B070BD26496E460FC90FC60C208101C9
:1038A000F022012D06D0022D0FD0032D19D0042DAA
:1038B0002FD122E06C46E38983438B43FF330133EE
:1038C00093438033E3813B2423E06C46E3898343C5
:1038D0008B43FF33FF33023393438033E3816B2405
:1038E00017E06C46E38983431B1D8B43FF33013391
:1038F00093434033E381BB240BE06C46E38983436D
:103900001B1D8B43FF33FF33023393436033E3814B
:10391000EB24084DE868000A00022043E86068468E
:10392000FEF7E4FB012028600020B1E700A91000A9
:103930004CA0100000101220034801218161C161D8
:10394000C1690029FCD170470010122008B5B920C8
:103950006946087001216846FEF716FE08BD10B5DD
:10396000032300F061F8002010BD10B5012300F022
:103970005BF8002010BD0000F8B50C0006460AD028
:10398000012C08D0022C06D0032C04D0692216A1E9
:103990002148FDF7ABFB05F08DFA00F08EF9300CF5
:1039A00069464870300A8870CE70002C06D0012C11
:1039B00006D0022C08D0032C0BD107E0202000E019
:1039C00052200870042504E0D820FAE7602008702F
:1039D000012529466846FEF7D7FD00F069F805F095
:1039E000D5FF0020F8BD00002E2E5C2E2E5C2E2E62
:1039F0005C2E2E5C2E2E5C2E2E5C706C665C7065D0
:103A0000726970686572616C5C666C6173685C6633
:103A10006C6173682E63000000A7100010B50021D0
:103A2000FFF7AAFF10BD00007FB5204C0002A5687B
:103A3000E4680191E9B2014300920C220291F02066
:103A400091010394012B06D0022B0AD0032B14D032
:103A5000042B0ED11CE03B236C46A381E3899343E6
:103A600011E06B236C46A381E3899343834317E002
:103A7000E3816846FEF7E8FC7FBDBB236C46A3816B
:103A8000E38993431B1D83438B43FF330133EFE7EC
:103A9000EB236C46A381E38993431B1D834340338F
:103AA0008B43FF33FF330233E2E700003CA01000FA
:103AB0001CB505206946087101236A46194601A80C
:103AC000FEF726FD68460078C007F5D16846007805
:103AD0001CBD0000F8B5044616460D46000E04D085
:103AE000952219A124A0FDF701FB200A0002A042A3
:103AF0000CD0071BFF370137BD4200D20F463946B5
:103B0000204600F045F8F619E419ED1B2802070CD1
:103B1000E8B2002500900BE0FF213246013120463B
:103B200000F036F86D1CFF340134FF36ADB20136BB
:103B3000BD42F1D30098002804D001463246204609
:103B400000F026F80020F8BD2E2E5C2E2E5C2E2EC6
:103B50005C2E2E5C2E2E5C2E2E5C706C665C70656E
:103B6000726970686572616C5C666C6173685C66D2
:103B70006C6173682E630000286F66667365742637
:103B800030786666303030303030293D3D300000CE
:103B900070B50546FF20013016460C46814204D917
:103BA0008B2209A114A0FDF7A1FA05F083F900F01A
:103BB00084F82346324629460220FEF7F3FAFFF73F
:103BC00077FF05F0E3FE70BD2E2E5C2E2E5C2E2EB0
:103BD0005C2E2E5C2E2E5C2E2E5C706C665C7065EE
:103BE000726970686572616C5C666C6173685C6652
:103BF0006C6173682E6300006C656E6774683C3D91
:103C00003235360010B5002404F05EFFFFF772FA7B
:103C1000204610BD10B50423FFF706FF002010BD9D
:103C200010B50223FFF700FF002010BD38B508A330
:103C30001B680093030C6C466370030AA370E0706A
:103C40008BB204216846FEF763FC002038BD0000FB
:103C50000300000000B50A49002009680B00FDF6CA
:103C600096FF050406080A0C0500064800BD064834
:103C700000BD064800BD064800BD064800BD000066
:103C800014F512002D3C10006B391000213C10007F
:103C90005F391000153C100010B500F005F8FFF773
:103CA00021FAFFF727FA10BD08B5AB206946087066
:103CB00001216846FEF768FC08BD08B50620694684
:103CC000087001216846FEF75FFC08BD0D4A10B57B
:103CD0000021904201D9062111E00A4AC83A9042D7
:103CE0000DD8094A904201D9072108E0E122D2000B
:103CF000904204D86E22054905A0FDF7F7F9084661
:103D000010BD00003C0F0000480D000000A4100092
:103D10003000000003480449401804494018044991
:103D200008607047551A00003B1B0000F52A000090
:103D300084A8100002490A6808688242FCD07047D3
:103D40000000202010B5002905D0012902D1480328
:103D5000FFF78CFA10BD01200003F9E7F0B5C36846
:103D60009D6E4A7A0C7A5207D60F0122A64017465A
:103D7000A740BD432E439E66C3689E6B4C7A174690
:103D8000E5070C7AED0FA540A740BE4335439D6380
:103D9000C368DE6B4C7A1746A407E50F0C7AA54082
:103DA000A740BE433543DD63C468256B0E7A1346D6
:103DB000B3409D432B432363C068436B097A8A4019
:103DC00093434363F0BD0000012210B5D2030029E4
:103DD00008D001290AD002290CD02422064907A0C4
:103DE000FDF784F906490860064801E0054880307F
:103DF000026010BD0448FBE7ACA4100030000000D6
:103E000024A9100000E100E080E200E010B50120EC
:103E1000400403F071FF10BD10B5002907D001293F
:103E20000AD00A4607A1022003F006FB10BD014696
:103E30000B4802F0D7FD10BD0146094802F008FE0C
:103E400010BD0000756E65787065637465642073DD
:103E5000797320737461743A2025640A00000000AD
:103E6000A8A81000828A8A4205D2807D1018884254
:103E700001D30120704700207047000010B50248B0
:103E800000F0E2FA10BD00000804024B70B50446D1
:103E900040680021FFF70BF9054626480021C2685B
:103EA000204690471F22E06852018018296820228E
:103EB00000F06EFC1522E06852018018696820222B
:103EC00000F066FC0B22E06892018018A9682022AD
:103ED00000F05EFC0921E0688901401808220021F9
:103EE00002F01EFE1326E0687601801908220021E8
:103EF00002F016FE0521E068C901401808220021E1
:103F000002F00EFE1725E0686D014019082200211D
:103F100002F006FEE06801228019114602F000FE60
:103F2000E06801224019114602F0FAFDE168012023
:103F3000886070BD38A9100010B5002904D0012098
:103F4000C004FFF753F910BD01208004F9E7000019
:103F500010B52022002908D001290AD002290CD04E
:103F60001D22074907A0FDF7C1F807490860074867
:103F700001E006488030026010BD0548FBE7000004
:103F800000A510003000000050A9100000E100E082
:103F900080E200E010B50120C00503F0A5FE10BDD1
:103FA00010B500290ED0012911D00E4B40221868FF
:103FB000022911D0032911D00A460BA1022003F0D7
:103FC0003BFA10BD01460E4802F00CFD10BD014643
:103FD0000B4802F03DFD10BD104300E09043186017
:103FE00010BD0000C4A81000756E6578706563741C
:103FF0006564207379735F737461743A25640A0091
:10400000B4A8100008B5CA0701D0426C00928A0714
:1040100001D5826C00920A0701D5C26C00928A0613
:1040200001D5026D00924A0601D5426D00920A0642
:1040300001D5826D0092CA0501D5C26D00928A0534
:1040400001D5026E00924A0501D5426E0092090523
:1040500001D5806E009008BD10B5FF304130007C66
:10406000002803D05020FFF7E1F810BD0520FAE743
:1040700070B5FF225132125CFF300130C46C3A48F7
:104080003023CDB2002AEFF3108172B60DD020227A
:10409000026102689A43026010220261002900D185
:1040A00062B60120FFF7E2F80DE002220261026829
:1040B00092089200026001220261002900D162B6DA
:1040C0000120FFF7B3F82168A8070622400F9143AB
:1040D000084320602548012D04D0022D12D0032D65
:1040E00020D02EE062692149120C898A120489B21B
:1040F00011436161A269018A120C89B21204114351
:10410000A1611EE0E2691949120C898C120489B27E
:104110001143E161226A018C120C89B2120411432D
:1041200021620EE0626A1149120C898E120489B272
:1041300011436162A26A018E120C89B2120411430A
:10414000A162E16F2A011018027AFF2312041B04F6
:1041500099430A43E267E16F8089090C80B2090440
:104160000843E06770BD0000009014205CA91000B7
:1041700010B5FF225132135C002B01D00E2200E05B
:104180000D220124002908D001290CD002290FD0CA
:104190003022094909A0FCF7A9FF9900084B944077
:1041A0005850084802E0074894408030046010BD31
:1041B00094400548FAE7000058A5100030000000C0
:1041C00054A9100000E100E080E200E070B5FF308B
:1041D0004130057C8C1E0E46002A06D0012A12D0E2
:1041E000B522154915A0FCF781FF0521304603F0E3
:1041F0004BFF002D03D00122E0B2082110E0012284
:10420000E0B206210CE00521304603F03DFF002D11
:1042100003D00122E0B2092102E0E0B2012207212D
:1042200001F032FF0648016A0122B24011430162E7
:10423000C1691143C16170BD58A510003000000074
:104240004010202070B5C11DF931CA6C136B1024C9
:10425000A34313630C6C4D6C002C0AD000220A643B
:104260004A6406494A690321904700212846A0472D
:1042700070BD412202A10FA0FCF738FF949F1000EF
:104280002E2E5C2E2E5C2E2E5C2E2E5C2E2E5C2E68
:104290002E5C706C665C7065726970686572616CCA
:1042A0005C6170705F6969635C6170705F696963AC
:1042B0002E63000063616C6C6261636B0000000040
:1042C00010B5FF304130007C002801D0082000E00C
:1042D000022003F011FD10BDF8B50A46FF2151314F
:1042E000144C0D5CFF260136802721681300FDF673
:1042F0004EFC0604090E150E151B01460E4802F071
:1043000071FBF8BD01460C4802F0A2FBF8BD002D80
:1043100001D0314300E039432160F8BD002D01D0C8
:10432000B143F9E7B943F7E704A1022003F084F8A9
:10433000F8BD0000C0A81000A8A81000756E657830
:104340007065637465642073797320737461743A63
:104350002025640A0000000070B5FF214D31095886
:104360000A6B10239A430A6302468032546A956AA4
:10437000002C0AD000215162916206494A69052148
:10438000904700212846A04770BD542202A10FA0EB
:10439000FCF7ACFE949F10002E2E5C2E2E5C2E2E71
:1043A0005C2E2E5C2E2E5C2E2E5C706C665C706516
:1043B000726970686572616C5C6170705F69696375
:1043C0005C6170705F6969632E63000063616C6C8F
:1043D0006261636B00000000F8B50446FF302546BB
:1043E0000130A035C66C28782F46A037002822D18E
:1043F000306B102188433063387A002802D1204680
:10440000FFF7AAFFF8BD387A012818D000232878D2
:10441000012816D000226069002100780090304603
:10442000FDF730FE6069401C60612878401E000680
:10443000000E2870E6D0306F8007E4D4F8BD012369
:10444000E5E70122E7E7000008B50F496022486070
:104450000D2008720C204872087B10430873084630
:10446000FEF7FAF9FF2107310848FDF64EFB084830
:104470000221017104490020C91E0090054B012250
:10448000C81CFEF7C9FA08BD28AA1000CAFB100014
:10449000CAFC1000E183100010B5012282401446CE
:1044A0002046012103F0F8FD21460248FDF7B4FC47
:1044B00010BD0000ECA8100010B50248FDF7B1FCDB
:1044C00010BD0000ECA8100010B501460148FDF732
:1044D000ABFC10BDECA8100010B50448FDF768FC5B
:1044E0000349102008600349086010BDECA81000C3
:1044F00080E200E000E100E010B50248FDF79CFC1E
:1045000010BD0000ECA81000012110B58140024848
:10451000FDF78DFC10BD0000ECA81000012110B5C6
:1045200081400248FDF78BFC10BD0000ECA8100094
:10453000012110B581400248FDF786FC10BD000046
:10454000ECA8100010B501460148FDF782FC10BD33
:10455000ECA8100070B5184DAC6B1848844204D319
:10456000002211460120FCF7A7F9204603F0EEF8DF
:10457000134CA17A461813493046FDF641FA114909
:1045800027224143711A1201511A89B200230029CE
:104590000CD0A372084A4032506011600A490820CA
:1045A0000860296B81430143296370BD11460122D4
:1045B000A272401CEEE7000000001020001BB700B4
:1045C00088F81200710200004010202010B50D4A3A
:1045D000D3680D4C23605063FF200F30906104209E
:1045E000D060D0680006C00F05D0802090610346DF
:1045F000D0689843D060002902D10120FEF7D2FA9A
:1046000010BD0000000010204CA8100070B586B04E
:104610002F48002101600224684604716A4601A9FE
:104620000F2000F047FA002802D02A486946088087
:104630006846047104AA01A90E2000F03BFA264D39
:10464000002801D0684605826846047102AA01A9C3
:104650000D2000F02FFA002801D068460581684639
:10466000008903F091F886B26846008A03F08CF85E
:1046700085B26846008803F087F884B2E80A04D05F
:10468000002211460120FCF717F9A00A04D00022ED
:1046900011460120FCF710F97005A90208430F49E3
:1046A0002043C863684602890088824200D91046C8
:1046B00069460881098A884200D808466946088107
:1046C00003F07AF80020FEF76DFA06B070BD000026
:1046D0004CA8100071020000881300000000102098
:1046E00010B50020FEF75EFAFFF734FF0249012003
:1046F0008861C86010BD0000000010200248034916
:104700000068C860704700004CA81000000010202E
:1047100010B500F001F810BD70B5144CA07B032853
:1047200020D0607B01281DD10423114A00211148AB
:104730000AF78AFD0021104B61731A680125AD0448
:10474000AA431A60A27B002A0DD00C4AD28942806B
:104750000322A273017009F779FF0022114601209C
:104760000AF7BEFD70BD064A5268F0E7ACF71200CA
:104770001F200000010800000000102058841200D3
:104780000001102003F0D0F802F0E0FDFEE7000089
:10479000F8B50C460546930704D0102209A117A0CE
:1047A000FCF7A4FC0026970808E0601CFBF7F6FC69
:1047B00021780002084301C5241D761CB742F4D8B5
:1047C000F8BD00002E2E5C2E2E5C2E2E5C2E2E5C54
:1047D0002E2E5C2E2E5C706C665C70657269706843
:1047E0006572616C5C6170705F68776563635C6162
:1047F00070705F68776563632E6300006C656E6739
:1048000074682573697A656F662875696E743332CA
:104810005F74293D3D30000010B50120FEF722FAFB
:1048200000F064F810BD000010B52D4C2078002871
:104830000BD06088FEF72EFAA088FEF737FAE088E2
:10484000FEF740FA2089FEF749FA264C60690521F7
:10485000800980010843606160690F210902884373
:10486000012189020843606160697F21090688434C
:1048700009218906084360612068072149028843AD
:104880000121C902084320602168062081430143B9
:10489000216020680121C90588430843206012482F
:1048A000006BC006C00E0320FEF7E8F90D49403149
:1048B0004869F0229043602210434861206849050E
:1048C000884300212060A06B07221203904310430D
:1048D000A063E069E161206A000A0002206210BD65
:1048E000C0F810000000112080102020F8B5374ECD
:1048F0003078002869D1364C20688007C00FFBD182
:10490000FEF7B0F93348006B0021C206D20ED21F69
:10491000481E012500911300FDF639F90A060A1018
:104920000A0A1E0A1E19131E6846057045700BE020
:104930006946087048708870C8700DE00120C04357
:10494000F6E76846057041708570C57004E06A46F8
:10495000117050709070D170606869460022000537
:104960008A56000D801880B2FEF794F9A068694657
:10497000012200058A56000D801880B2FEF796F9D4
:10498000E0686946022200058A56000D801880B250
:10499000FEF798F920696946032200058A56000D42
:1049A000801880B2FEF79AF960680005000D7080EB
:1049B000A0680005000DB080E0680005000DF080E3
:1049C00020690005000D30813570F8BDC0F8100079
:1049D00040001120801020201CB500200A4C0090BF
:1049E00001902068006804F071FD002806D020685E
:1049F000002300681A46694604F002FD01200349BD
:104A0000000748601CBD000054A8100000ED00E045
:104A100010B5002304F040FC012804D0462202A176
:104A200009A0FCF763FB10BD2E2E5C2E2E5C2E2EF3
:104A30005C2E2E5C7574696C735C6F736170705F53
:104A40007461736B2E63000030000000034610B5E4
:104A500003480A46006819460068FFF7D9FF10BDF1
:104A60005CA810001CB508496A46CB6F082198471E
:104A7000042206A16846FDF653F8002801D0002064
:104A80001CBD01981CBD0000FCF310004E564453A1
:104A90000000000010B500F0C1F9040007D06088E4
:104AA00000F024F9002020706070608010BD0220AA
:104AB00010BD000070B515460C4600F0AFF9002897
:104AC00014D001782278C91EC9B28A4201D20420CA
:104AD00070BD2170064A408892681018044A803AD6
:104AE000D36F2A46C01C9847002070BD022070BDBD
:104AF0007CF41000F8B505460721FCF681FF07207D
:104B0000461A1F212846FCF67BFF0C460A4F01E09F
:104B10000020F8BD88003A5C002A03D0C019427812
:104B2000AA4202D18800C019F8BD88191F21FCF6DD
:104B300067FFA142EED1EBE7FCF31000F8B50D469C
:104B400007461D486A46C36F0321284698476846B2
:104B50000078C0430606360E21D068468078C0072C
:104B600017D068464078FFF7C5FF040019D06946A2
:104B700060784978884206D110A1022002F05CFCDE
:104B8000608800F0B3F86846407860702670E81BD3
:104B90006080AD190121E81B09038842D1DB28465A
:104BA000F8BD0EA1012002F047FCFF22173212A12E
:104BB0001EA0FCF79BFA0000FCF31000756E6578F0
:104BC000706563746564206D756C7469706C6520C4
:104BD00076616C6964207461670A00006E6F2073EF
:104BE0007061636520666F72206E76647320696EF3
:104BF0006465780A000000002E2E5C2E2E5C2E2E9E
:104C00005C2E2E5C2E2E5C2E2E5C6D6F64756C659A
:104C1000735C6E7664735C7372635C6E7664735FF0
:104C2000696E5F72616D2E6300000000300000004D
:104C3000F8B50546000505D0FF222F3214A121A0AA
:104C4000FCF754FAFFF706F82549C8670C462548D3
:104C500080342060244860602846FFF703FF064642
:104C60000120000328180746FFF7FCFEB04203D9D5
:104C7000A7602061012002E026610020A560207568
:104C8000A06801460831FFF759FFE0600020F8BD39
:104C90002E2E5C2E2E5C2E2E5C2E2E5C2E2E5C2E4E
:104CA0002E5C6D6F64756C65735C6E7664735C739B
:104CB00072635C6E7664735F696E5F72616D2E63A2
:104CC00000000000282875696E7433325F74296211
:104CD000617365263078666666293D3D30000000C8
:104CE000FCF31000D53A10001D3A100008B5064933
:104CF000801C0968009105498A680B6810186A468B
:104D00000121984708BD0000CC9E10007CF41000E3
:104D1000F0B5274C0121227D0903A068C5B0002A07
:104D200041D0401A029061688847029E00250836EB
:104D30001F4AAF00803AD15D002918D0B8180390FF
:104D40004088002813D0A3681818D36F04AA984786
:104D5000174823688038C15D04AA304698470298F6
:104D60000399301A488012488038C05D86196D1C3E
:104D7000EDB21F2DDCD30F486A46406800902069D1
:104D8000401C019023680821029898470298E66029
:104D9000A0602069401C2061207D002805D00020F3
:104DA000207545B0F0BD4018BCE70120F8E70000D1
:104DB0007CF41000CC9E1000F8B507461648164645
:104DC0000D46C268C91C5118806801221203801860
:104DD000814201D9FFF79CFF384600F01FF80028F8
:104DE0000CD0448833462A46394600F03FF8002C60
:104DF00002D02046FFF77AFF0020F8BD3846FFF7C3
:104E000079FE002805D033462A46394600F02EF8B0
:104E1000F2E70320F8BD00007CF41000F8B504466A
:104E20000721FCF6EDFD0720461A1F212046FCF65F
:104E3000E7FD0D4F88003A5C002A12D0C019427875
:104E4000A2420DD00D4688191F21FCF6D9FDA942BA
:104E500007D08800C0194078A042F4D18800C0195A
:104E6000F8BD0020F8BD0000FCF31000F8B5D61C1A
:104E70000F460546F043694608704F70FF20887062
:104E80000C4C9E469446E068236872466146C01CFE
:104E9000984723686A460321E06898476F70F0B22C
:104EA0002870A1892289891A6980E1680818E06060
:104EB000F8BD00007CF4100000487047549C1000BE
:104EC000F8B5064614460D460A4800F780F9094F22
:104ED000FC60002407E0182060438119054800F7B2
:104EE0002DFA641CE4B2AC42F5D33868B860FCF724
:104EF0008BFDF8BD54ED100010B50A4C8278E368C4
:104F0000A168002A01D0104609E002888A820A6856
:104F1000002A03D0A260FCF777FD10BD8078984787
:104F200010BD000054ED100010B50846FFF7E4FF77
:104F300010BD0000F0B40023012201460831104CDE
:104F40000FE02568D600AD5B0688B54207D1D200D8
:104F50002368121D9C5883884288B0B20BE0521C13
:104F600092B225799542ECD8002B07D1246883882A
:104F7000428800886468A446F0BC6047F0BC704773
:104F80004C9C10001CB5064B08385B6800900193E0
:104F90006846083181801146FFF758FD1CBD0000AE
:104FA000649C100008B500931346024602A103203A
:104FB00002F042FA08BD000064656661756C7420F9
:104FC00068616E646C65722C6D736769643A203039
:104FD0007825782C20646573745F69643A20307892
:104FE00025782C207372635F69643A2030782578C5
:104FF0000A00000010B501220D210448FCF746FD0F
:10500000012101708A1EFFF7BDFF10BD020D0000D7
:1050100070B51C4619462C220848FCF737FD05469A
:105020002C21FCF672FD0022D2432C212846FFF7EA
:10503000A9FF0349200A487070BD0000020E00005D
:10504000C0A7100010B58A7803A1032002F0F4F97C
:1050500000F0B8F910BD0000646973636F6E6E3ABA
:1050600025640A0070B50978002519486E1E0029CC
:1050700015D0012924D0022910D10A221946FCF7A3
:1050800005FD02210170082141800A218180C5802F
:10509000C821018132460A21FFF774FF70BD212229
:1050A0001946FCF7F3FC04460570172060800246A1
:1050B00008A1201DFCF610FD324621212046EBE719
:1050C0000A221946FCF7E2FC012101704580E1E764
:1050D0000B0E000041706F6C6C6F20424C452055E8
:1050E00041525420536572766572000010B51C461B
:1050F00009A1032002F0A0F9E120214606220001C7
:10510000FCF7C4FC0121017009498180418006211E
:1051100000F016F910BD0000706172616D207570AD
:105120006461746520726571756573740A000000AE
:10513000FFFF000070B50A78012A05D0032A21D0AC
:105140000D2A2DD019A12DE04878002801D0D222B7
:105150001CE00A260025012430220D211B48FCF703
:1051600095FC0321017046701B214184FF214931C8
:1051700081848576C476E102C184A21E3021FFF7C6
:1051800001FF70BD4878002804D0D62210A11BA0D2
:10519000FBF7ACFF224A01212248FFF791FE70BDC8
:1051A0004A7821A1022002F047F970BD6761706D55
:1051B0005F636D705F657674206F7065726174698E
:1051C0006F6E3A307825780A00000000040D000068
:1051D0002E2E5C2E2E5C6F736170705F7561727421
:1051E0005F7365727665725C6F736170705F756115
:1051F00072745F7365727665722E6300636D705FA3
:105200006576742D3E7374617475733D3D474150EE
:105210005F4552525F4E4F5F4552524F5200000061
:10522000FF191000C8A710006164762073746174C0
:1052300075733A25640A000008B508784A78122880
:1052400007D000924B8802460EA1032002F0F4F82A
:1052500008BD002A04D011A1032002F0EDF808BD1A
:105260001349144A086812689042F8D2124A134B44
:105270001268125C1A70401C08600021084603F096
:10528000D9F808BD6F703A25642C7365713A2564AE
:105290002C7374617475733A25640A006E6F7469B7
:1052A000207374617475733A25640A0D0000000060
:1052B00064A81000A4AA1000A8AA1000C0A710009B
:1052C000808A491C401880B27047000070B50646BD
:1052D0000C4D3146A868FEF7C5FD002801D0A8682E
:1052E00070BD2C6809E031462046FEF7BBFD002862
:1052F00002D02046AC6070BD2468002CF3D10020A1
:1053000070BD000054ED100010B502A1032002F0A2
:1053100093F810BD7765616B20646566696E69748A
:10532000696F6E206D6573685F7175657565645F23
:105330006D73675F68616E646C65720A00000000DF
:1053400010B50022D243FFF71DFE012010BD000062
:10535000064B5B691A70054A2432491CD180012131
:1053600011721060024891804160704724ED100076
:105370004020132010B508460122194600F001F81C
:1053800010BDFEB50588044616460F462846FFF7B1
:105390009DFF00280AD0818A691A491E8AB2002E10
:1053A00005D0C368002B01D039469847FEBD05697A
:1053B000002DFBD0A188A31D00910193638839467D
:1053C000A847FEBD38B550220D211148FCF75EFB01
:1053D000002504464570072020722021A180E1802D
:1053E0000D2020700120607217200090204609A334
:1053F000092201210C30FCF72BFB011B0C39E17257
:10540000282005556A1E50212046FFF7BBFD38BDF8
:105410000D0D000041706F6C6C6F20424C452055A3
:105420004152542053657276657200001CB5194CC8
:105430000025ED43206020682A464068694604F054
:1054400067F8012804D0E62213A11BA0FBF74EFE4B
:1054500068468079801E0300FCF699FB0618141834
:1054600004080E140098FFF765FD0FE06846818878
:10547000009800F035F809E0684681880098FFF749
:1054800043FF03E00DA1022001F0D6FF009803F0D6
:105490005BFBD0E75CA810002E2E5C2E2E5C2E2E1F
:1054A0005C2E2E5C7574696C735C6F736170705FD9
:1054B0007461736B2E630000300000006F736170C5
:1054C00070207061636B657420727820696E7661FC
:1054D0006C696420696E64696361746F720A0000AC
:1054E00010B502A1032001F0A7FF10BD7765616B25
:1054F00020646566696E6974696F6E207573725F8A
:105500006D73675F68616E646C65720A000000000D
:1055100010B5084600221946FFF733FF10BD000002
:1055200008B5684600F03CF800280ED06B46094AE2
:105530000949187800F048F8084802686B461B785B
:10554000012199400A43026008BD112204A113A061
:10555000FBF7CCFD640500002C54010080301320C3
:105560002E2E5C2E2E5C2E2E5C2E2E5C2E2E5C2E75
:105570002E5C706C665C61706F6C6C6F5F30305C61
:105580007372635C70617463685F6C6973745C618F
:1055900064765F696E742E630000000030000000C6
:1055A00030B50021074C012522682B468B401A425A
:1055B00002D10170012030BD491CC9B21029F3D3BA
:1055C000002030BD8030132070B50F2804D976221A
:1055D00009490AA0FBF78AFD0C4C89030B4D80009A
:1055E000090C23580A4E403549043340C90B0B437C
:1055F00023502A5070BD000030A310007061746306
:10560000685F6E6F203C3D203078660000301320CC
:105610000300FEFF10B504490020086002F0EEF818
:10562000FFF77EFF10BD00008030132002480068A5
:10563000002800D001207047C0A8100070B50024D9
:10564000054601260BE031466868A140084204D0B7
:105650002868A100405801688847641CE4B2287A91
:10566000A042F0D870BD000010B572B60649496876
:1056700008600649884205D00549884202D00220C8
:1056800002F02AFB10BD00007CA81000C3C3C3C3F6
:10569000A5A5A5A570B501F0A3FA012002F0BAFBFB
:1056A000FEF748FB0446012002F0D8FB124D2868A3
:1056B000FEF748FF6868FEF707FF104810490068CA
:1056C000486100F0C9FF0E49403988680425A843A5
:1056D0008860FDF77DFD02F047FDFEF7DDFA20460C
:1056E00002F012FB02F0C2FC02F00CFD0548016959
:1056F000A943016170BD00008CA81000D4A810005F
:105700004010202000ED00E010B5FDF705FE10BDB3
:10571000402070470020401CC0B20A28FBD37047CD
:105720000020401CC0B20A28FBD3704730B5FF23CD
:10573000040AC5B209490020182242435218928A2D
:10574000AA4204D1182250434018C38A03E0401CE7
:10575000C0B20A28F0D32002184330BD34EC100048
:1057600030B5FF23040AC5B209490020182242437C
:105770005218D28AAA4204D1182250434018838A70
:1057800003E0401CC0B20A28F0D32002184330BD09
:1057900034EC1000F8B50025154EFF2700280FD077
:1057A0000024182060438019C78245608560C58148
:1057B000007D09F7E3FE641CE4B20A2CF1D3F8BDC6
:1057C0000024204618214843811922460A320D61DF
:1057D0008A82CF824D608D60CD818D813550087D6C
:1057E00009F75CFE641CE4B20A2CEAD3F8BD0000A1
:1057F00034EC1000F8B5134E0F46F56804463068D7
:10580000001D03F0E6F8601C07D1002F05D03168B9
:105810000D48091D03F04CF9F8BD30682C1944609F
:105820003168AC4204D2B06B091D03F029F9F8BD10
:10583000706B091D03F024F9B06A8442F7D2B46298
:10584000F8BD0000F8A7100074EB1000F8B505468D
:1058500003F03AF9294EB068401CB0603068284F18
:10586000002803D07069002827D02CE03560B0688C
:10587000012828D1002414206043C01903F0F2F855
:10588000641C062CF7D31E48783003F0EBF81C4854
:105890008C3003F0E7F81A48A03003F0E3F818481A
:1058A000B43003F0DFF81648C83003F0DBF81448D2
:1058B000783070631430B06305E03068E96AC06A1C
:1058C000884200D83560706A401C7062E86A3169AD
:1058D000884200D9306114214843C019291D03F0C2
:1058E000E7F803F0FDF87069002806D03068E96A2F
:1058F000C06A884201D203F0BFF9F8BDF8A71000D2
:10590000ACEA100038B503F0DFF80E4C2068002830
:1059100015D10D4803F0A6F80B48143003F0A2F897
:105920000948E0601430084B20610020843B1A468F
:10593000009048320C21052003F0D6FB206003F0D4
:10594000CFF838BD34A810000CEC100010B5026C74
:105950000C46002A0CD0C1688B18C36041688B428A
:1059600001D2194601E00168C1602046FCF6B4F896
:1059700010BDF8B5856B164604460027026C002A58
:1059800021D0002E0FD0E068FCF6A6F8E168206C6C
:10599000091AE1602268914202D26168081AE06047
:1059A000022E0DD00FE0A068FCF696F8216CA068DE
:1059B0004018A0606168884205D32068A06002E0BA
:1059C000002D00D06D1E6D1CA5633846F8BD00008B
:1059D00010B504464030407A002808D0012809D08C
:1059E00002280AD0054A06A10BA0FBF77FFB206B1B
:1059F00003F0AAF8204603F0A7F810BD880E0000B7
:105A00002E2E5C2E2E5C2E2E5C2E2E5C7372635C12
:105A10007461736B732E630070785443422D3E752E
:105A200063537461746963616C6C79416C6C6F630E
:105A300061746564203D3D202820282075696E74BE
:105A4000385F742029203220290000000A490020F4
:105A50000A69002A00D001200A68D26A002A01D00F
:105A600000207047054A1268012AF9D80028F7D1AA
:105A7000886AC968401A7047F8A71000ACEA10009D
:105A800001210E488903420705D0C01DC0080B4AFA
:105A9000C000821A891A0A4B0022411805C308392E
:105AA000C908C900183B19604A600A600A1A06C092
:105AB0009A600120C0075A60D8607047ACAA1000F5
:105AC000F0A710001B4D1C4E11E002F0FDFFF06826
:105AD000C468201D02F07DFFA868401EA8606868A9
